{
  "abi": [
    {
      "inputs": [
        {
          "internalType": "string",
          "name": "name",
          "type": "string"
        },
        {
          "internalType": "uint256",
          "name": "min",
          "type": "uint256"
        }
      ],
      "name": "createCampaign",
      "outputs": [],
      "stateMutability": "nonpayable",
      "type": "function"
    },
    {
      "inputs": [
        {
          "internalType": "uint256",
          "name": "",
          "type": "uint256"
        }
      ],
      "name": "deployedContract",
      "outputs": [
        {
          "internalType": "address",
          "name": "",
          "type": "address"
        }
      ],
      "stateMutability": "view",
      "type": "function"
    },
    {
      "inputs": [
        {
          "internalType": "uint256",
          "name": "",
          "type": "uint256"
        }
      ],
      "name": "deployedContractName",
      "outputs": [
        {
          "internalType": "string",
          "name": "",
          "type": "string"
        }
      ],
      "stateMutability": "view",
      "type": "function"
    },
    {
      "inputs": [],
      "name": "getDeployedContract",
      "outputs": [
        {
          "internalType": "address[]",
          "name": "",
          "type": "address[]"
        },
        {
          "internalType": "string[]",
          "name": "",
          "type": "string[]"
        }
      ],
      "stateMutability": "view",
      "type": "function"
    }
  ],
  "devdoc": {
    "kind": "dev",
    "methods": {},
    "version": 1
  },
  "evm": {
    "assembly": "    /* \"Campaign.sol\":57:538  contract Factory{... */\n  mstore(0x40, 0x80)\n  callvalue\n  dup1\n  iszero\n  tag_1\n  jumpi\n  0x00\n  dup1\n  revert\ntag_1:\n  pop\n  dataSize(sub_0)\n  dup1\n  dataOffset(sub_0)\n  0x00\n  codecopy\n  0x00\n  return\nstop\n\nsub_0: assembly {\n        /* \"Campaign.sol\":57:538  contract Factory{... */\n      mstore(0x40, 0x80)\n      callvalue\n      dup1\n      iszero\n      tag_1\n      jumpi\n      0x00\n      dup1\n      revert\n    tag_1:\n      pop\n      jumpi(tag_2, lt(calldatasize, 0x04))\n      shr(0xe0, calldataload(0x00))\n      dup1\n      0x1e285caa\n      eq\n      tag_3\n      jumpi\n      dup1\n      0x30d91045\n      eq\n      tag_4\n      jumpi\n      dup1\n      0xa97c4796\n      eq\n      tag_5\n      jumpi\n      dup1\n      0xf102a67c\n      eq\n      tag_6\n      jumpi\n    tag_2:\n      0x00\n      dup1\n      revert\n        /* \"Campaign.sol\":79:112  address[] public deployedContract */\n    tag_3:\n      tag_7\n      0x04\n      dup1\n      calldatasize\n      sub\n      dup2\n      add\n      swap1\n      tag_8\n      swap2\n      swap1\n      tag_9\n      jump\t// in\n    tag_8:\n      tag_10\n      jump\t// in\n    tag_7:\n      mload(0x40)\n      tag_11\n      swap2\n      swap1\n      tag_12\n      jump\t// in\n    tag_11:\n      mload(0x40)\n      dup1\n      swap2\n      sub\n      swap1\n      return\n        /* \"Campaign.sol\":118:154  string[] public deployedContractName */\n    tag_4:\n      tag_13\n      0x04\n      dup1\n      calldatasize\n      sub\n      dup2\n      add\n      swap1\n      tag_14\n      swap2\n      swap1\n      tag_9\n      jump\t// in\n    tag_14:\n      tag_15\n      jump\t// in\n    tag_13:\n      mload(0x40)\n      tag_16\n      swap2\n      swap1\n      tag_17\n      jump\t// in\n    tag_16:\n      mload(0x40)\n      dup1\n      swap2\n      sub\n      swap1\n      return\n        /* \"Campaign.sol\":387:536  function getDeployedContract() public view returns (address[] memory, string[] memory){... */\n    tag_5:\n      tag_18\n      tag_19\n      jump\t// in\n    tag_18:\n      mload(0x40)\n      tag_20\n      swap3\n      swap2\n      swap1\n      tag_21\n      jump\t// in\n    tag_20:\n      mload(0x40)\n      dup1\n      swap2\n      sub\n      swap1\n      return\n        /* \"Campaign.sol\":161:381  function createCampaign(string memory name, uint min) public {... */\n    tag_6:\n      tag_22\n      0x04\n      dup1\n      calldatasize\n      sub\n      dup2\n      add\n      swap1\n      tag_23\n      swap2\n      swap1\n      tag_24\n      jump\t// in\n    tag_23:\n      tag_25\n      jump\t// in\n    tag_22:\n      stop\n        /* \"Campaign.sol\":79:112  address[] public deployedContract */\n    tag_10:\n      0x00\n      dup2\n      dup2\n      sload\n      dup2\n      lt\n      tag_26\n      jumpi\n      0x00\n      dup1\n      revert\n    tag_26:\n      swap1\n      0x00\n      mstore\n      keccak256(0x00, 0x20)\n      add\n      0x00\n      swap2\n      pop\n      sload\n      swap1\n      0x0100\n      exp\n      swap1\n      div\n      0xffffffffffffffffffffffffffffffffffffffff\n      and\n      dup2\n      jump\t// out\n        /* \"Campaign.sol\":118:154  string[] public deployedContractName */\n    tag_15:\n      0x01\n      dup2\n      dup2\n      sload\n      dup2\n      lt\n      tag_28\n      jumpi\n      0x00\n      dup1\n      revert\n    tag_28:\n      swap1\n      0x00\n      mstore\n      keccak256(0x00, 0x20)\n      add\n      0x00\n      swap2\n      pop\n      swap1\n      pop\n      dup1\n      sload\n      tag_30\n      swap1\n      tag_31\n      jump\t// in\n    tag_30:\n      dup1\n      0x1f\n      add\n      0x20\n      dup1\n      swap2\n      div\n      mul\n      0x20\n      add\n      mload(0x40)\n      swap1\n      dup2\n      add\n      0x40\n      mstore\n      dup1\n      swap3\n      swap2\n      swap1\n      dup2\n      dup2\n      mstore\n      0x20\n      add\n      dup3\n      dup1\n      sload\n      tag_32\n      swap1\n      tag_31\n      jump\t// in\n    tag_32:\n      dup1\n      iszero\n      tag_33\n      jumpi\n      dup1\n      0x1f\n      lt\n      tag_34\n      jumpi\n      0x0100\n      dup1\n      dup4\n      sload\n      div\n      mul\n      dup4\n      mstore\n      swap2\n      0x20\n      add\n      swap2\n      jump(tag_33)\n    tag_34:\n      dup3\n      add\n      swap2\n      swap1\n      0x00\n      mstore\n      keccak256(0x00, 0x20)\n      swap1\n    tag_35:\n      dup2\n      sload\n      dup2\n      mstore\n      swap1\n      0x01\n      add\n      swap1\n      0x20\n      add\n      dup1\n      dup4\n      gt\n      tag_35\n      jumpi\n      dup3\n      swap1\n      sub\n      0x1f\n      and\n      dup3\n      add\n      swap2\n    tag_33:\n      pop\n      pop\n      pop\n      pop\n      pop\n      dup2\n      jump\t// out\n        /* \"Campaign.sol\":387:536  function getDeployedContract() public view returns (address[] memory, string[] memory){... */\n    tag_19:\n        /* \"Campaign.sol\":439:455  address[] memory */\n      0x60\n        /* \"Campaign.sol\":457:472  string[] memory */\n      dup1\n        /* \"Campaign.sol\":491:507  deployedContract */\n      0x00\n        /* \"Campaign.sol\":508:528  deployedContractName */\n      0x01\n        /* \"Campaign.sol\":483:529  return (deployedContract,deployedContractName) */\n      dup2\n      dup1\n      sload\n      dup1\n      0x20\n      mul\n      0x20\n      add\n      mload(0x40)\n      swap1\n      dup2\n      add\n      0x40\n      mstore\n      dup1\n      swap3\n      swap2\n      swap1\n      dup2\n      dup2\n      mstore\n      0x20\n      add\n      dup3\n      dup1\n      sload\n      dup1\n      iszero\n      tag_37\n      jumpi\n      0x20\n      mul\n      dup3\n      add\n      swap2\n      swap1\n      0x00\n      mstore\n      keccak256(0x00, 0x20)\n      swap1\n    tag_38:\n      dup2\n      0x00\n      swap1\n      sload\n      swap1\n      0x0100\n      exp\n      swap1\n      div\n      0xffffffffffffffffffffffffffffffffffffffff\n      and\n      0xffffffffffffffffffffffffffffffffffffffff\n      and\n      dup2\n      mstore\n      0x20\n      add\n      swap1\n      0x01\n      add\n      swap1\n      dup1\n      dup4\n      gt\n      tag_38\n      jumpi\n    tag_37:\n      pop\n      pop\n      pop\n      pop\n      pop\n      swap2\n      pop\n      dup1\n      dup1\n      sload\n      dup1\n      0x20\n      mul\n      0x20\n      add\n      mload(0x40)\n      swap1\n      dup2\n      add\n      0x40\n      mstore\n      dup1\n      swap3\n      swap2\n      swap1\n      dup2\n      dup2\n      mstore\n      0x20\n      add\n      0x00\n      swap1\n    tag_39:\n      dup3\n      dup3\n      lt\n      iszero\n      tag_40\n      jumpi\n      dup4\n      dup3\n      swap1\n      0x00\n      mstore\n      keccak256(0x00, 0x20)\n      add\n      dup1\n      sload\n      tag_42\n      swap1\n      tag_31\n      jump\t// in\n    tag_42:\n      dup1\n      0x1f\n      add\n      0x20\n      dup1\n      swap2\n      div\n      mul\n      0x20\n      add\n      mload(0x40)\n      swap1\n      dup2\n      add\n      0x40\n      mstore\n      dup1\n      swap3\n      swap2\n      swap1\n      dup2\n      dup2\n      mstore\n      0x20\n      add\n      dup3\n      dup1\n      sload\n      tag_43\n      swap1\n      tag_31\n      jump\t// in\n    tag_43:\n      dup1\n      iszero\n      tag_44\n      jumpi\n      dup1\n      0x1f\n      lt\n      tag_45\n      jumpi\n      0x0100\n      dup1\n      dup4\n      sload\n      div\n      mul\n      dup4\n      mstore\n      swap2\n      0x20\n      add\n      swap2\n      jump(tag_44)\n    tag_45:\n      dup3\n      add\n      swap2\n      swap1\n      0x00\n      mstore\n      keccak256(0x00, 0x20)\n      swap1\n    tag_46:\n      dup2\n      sload\n      dup2\n      mstore\n      swap1\n      0x01\n      add\n      swap1\n      0x20\n      add\n      dup1\n      dup4\n      gt\n      tag_46\n      jumpi\n      dup3\n      swap1\n      sub\n      0x1f\n      and\n      dup3\n      add\n      swap2\n    tag_44:\n      pop\n      pop\n      pop\n      pop\n      pop\n      dup2\n      mstore\n      0x20\n      add\n      swap1\n      0x01\n      add\n      swap1\n      jump(tag_39)\n    tag_40:\n      pop\n      pop\n      pop\n      pop\n      swap1\n      pop\n      swap2\n      pop\n      swap2\n      pop\n        /* \"Campaign.sol\":387:536  function getDeployedContract() public view returns (address[] memory, string[] memory){... */\n      swap1\n      swap2\n      jump\t// out\n        /* \"Campaign.sol\":161:381  function createCampaign(string memory name, uint min) public {... */\n    tag_25:\n        /* \"Campaign.sol\":232:250  address newCapaign */\n      0x00\n        /* \"Campaign.sol\":274:277  min */\n      dup2\n        /* \"Campaign.sol\":278:288  msg.sender */\n      caller\n        /* \"Campaign.sol\":261:289  new Campaign(min,msg.sender) */\n      mload(0x40)\n      tag_48\n      swap1\n      tag_49\n      jump\t// in\n    tag_48:\n      tag_50\n      swap3\n      swap2\n      swap1\n      tag_51\n      jump\t// in\n    tag_50:\n      mload(0x40)\n      dup1\n      swap2\n      sub\n      swap1\n      0x00\n      create\n      dup1\n      iszero\n      dup1\n      iszero\n      tag_52\n      jumpi\n      returndatasize\n      0x00\n      dup1\n      returndatacopy\n      revert(0x00, returndatasize)\n    tag_52:\n      pop\n        /* \"Campaign.sol\":232:290  address newCapaign = address(new Campaign(min,msg.sender)) */\n      swap1\n      pop\n        /* \"Campaign.sol\":300:316  deployedContract */\n      0x00\n        /* \"Campaign.sol\":322:332  newCapaign */\n      dup2\n        /* \"Campaign.sol\":300:333  deployedContract.push(newCapaign) */\n      swap1\n      dup1\n      0x01\n      dup2\n      sload\n      add\n      dup1\n      dup3\n      sstore\n      dup1\n      swap2\n      pop\n      pop\n      0x01\n      swap1\n      sub\n      swap1\n      0x00\n      mstore\n      keccak256(0x00, 0x20)\n      add\n      0x00\n      swap1\n      swap2\n      swap1\n      swap2\n      swap1\n      swap2\n      0x0100\n      exp\n      dup2\n      sload\n      dup2\n      0xffffffffffffffffffffffffffffffffffffffff\n      mul\n      not\n      and\n      swap1\n      dup4\n      0xffffffffffffffffffffffffffffffffffffffff\n      and\n      mul\n      or\n      swap1\n      sstore\n      pop\n        /* \"Campaign.sol\":343:363  deployedContractName */\n      0x01\n        /* \"Campaign.sol\":369:373  name */\n      dup4\n        /* \"Campaign.sol\":343:374  deployedContractName.push(name) */\n      swap1\n      dup1\n      0x01\n      dup2\n      sload\n      add\n      dup1\n      dup3\n      sstore\n      dup1\n      swap2\n      pop\n      pop\n      0x01\n      swap1\n      sub\n      swap1\n      0x00\n      mstore\n      keccak256(0x00, 0x20)\n      add\n      0x00\n      swap1\n      swap2\n      swap1\n      swap2\n      swap1\n      swap2\n      pop\n      swap1\n      dup1\n      mload\n      swap1\n      0x20\n      add\n      swap1\n      tag_55\n      swap3\n      swap2\n      swap1\n      tag_56\n      jump\t// in\n    tag_55:\n      pop\n        /* \"Campaign.sol\":222:381  {... */\n      pop\n        /* \"Campaign.sol\":161:381  function createCampaign(string memory name, uint min) public {... */\n      pop\n      pop\n      jump\t// out\n    tag_49:\n      dataSize(sub_0)\n      dup1\n      dataOffset(sub_0)\n      dup4\n      codecopy\n      add\n      swap1\n      jump\t// out\n    tag_56:\n      dup3\n      dup1\n      sload\n      tag_57\n      swap1\n      tag_31\n      jump\t// in\n    tag_57:\n      swap1\n      0x00\n      mstore\n      keccak256(0x00, 0x20)\n      swap1\n      0x1f\n      add\n      0x20\n      swap1\n      div\n      dup2\n      add\n      swap3\n      dup3\n      tag_59\n      jumpi\n      0x00\n      dup6\n      sstore\n      jump(tag_58)\n    tag_59:\n      dup3\n      0x1f\n      lt\n      tag_60\n      jumpi\n      dup1\n      mload\n      not(0xff)\n      and\n      dup4\n      dup1\n      add\n      or\n      dup6\n      sstore\n      jump(tag_58)\n    tag_60:\n      dup3\n      dup1\n      add\n      0x01\n      add\n      dup6\n      sstore\n      dup3\n      iszero\n      tag_58\n      jumpi\n      swap2\n      dup3\n      add\n    tag_61:\n      dup3\n      dup2\n      gt\n      iszero\n      tag_62\n      jumpi\n      dup3\n      mload\n      dup3\n      sstore\n      swap2\n      0x20\n      add\n      swap2\n      swap1\n      0x01\n      add\n      swap1\n      jump(tag_61)\n    tag_62:\n    tag_58:\n      pop\n      swap1\n      pop\n      tag_63\n      swap2\n      swap1\n      tag_64\n      jump\t// in\n    tag_63:\n      pop\n      swap1\n      jump\t// out\n    tag_64:\n    tag_65:\n      dup1\n      dup3\n      gt\n      iszero\n      tag_66\n      jumpi\n      0x00\n      dup2\n      0x00\n      swap1\n      sstore\n      pop\n      0x01\n      add\n      jump(tag_65)\n    tag_66:\n      pop\n      swap1\n      jump\t// out\n        /* \"#utility.yul\":7:82   */\n    tag_67:\n        /* \"#utility.yul\":40:46   */\n      0x00\n        /* \"#utility.yul\":73:75   */\n      0x40\n        /* \"#utility.yul\":67:76   */\n      mload\n        /* \"#utility.yul\":57:76   */\n      swap1\n      pop\n        /* \"#utility.yul\":7:82   */\n      swap1\n      jump\t// out\n        /* \"#utility.yul\":88:205   */\n    tag_68:\n        /* \"#utility.yul\":197:198   */\n      0x00\n        /* \"#utility.yul\":194:195   */\n      dup1\n        /* \"#utility.yul\":187:199   */\n      revert\n        /* \"#utility.yul\":211:328   */\n    tag_69:\n        /* \"#utility.yul\":320:321   */\n      0x00\n        /* \"#utility.yul\":317:318   */\n      dup1\n        /* \"#utility.yul\":310:322   */\n      revert\n        /* \"#utility.yul\":334:411   */\n    tag_70:\n        /* \"#utility.yul\":371:378   */\n      0x00\n        /* \"#utility.yul\":400:405   */\n      dup2\n        /* \"#utility.yul\":389:405   */\n      swap1\n      pop\n        /* \"#utility.yul\":334:411   */\n      swap2\n      swap1\n      pop\n      jump\t// out\n        /* \"#utility.yul\":417:539   */\n    tag_71:\n        /* \"#utility.yul\":490:514   */\n      tag_113\n        /* \"#utility.yul\":508:513   */\n      dup2\n        /* \"#utility.yul\":490:514   */\n      tag_70\n      jump\t// in\n    tag_113:\n        /* \"#utility.yul\":483:488   */\n      dup2\n        /* \"#utility.yul\":480:515   */\n      eq\n        /* \"#utility.yul\":470:533   */\n      tag_114\n      jumpi\n        /* \"#utility.yul\":529:530   */\n      0x00\n        /* \"#utility.yul\":526:527   */\n      dup1\n        /* \"#utility.yul\":519:531   */\n      revert\n        /* \"#utility.yul\":470:533   */\n    tag_114:\n        /* \"#utility.yul\":417:539   */\n      pop\n      jump\t// out\n        /* \"#utility.yul\":545:684   */\n    tag_72:\n        /* \"#utility.yul\":591:596   */\n      0x00\n        /* \"#utility.yul\":629:635   */\n      dup2\n        /* \"#utility.yul\":616:636   */\n      calldataload\n        /* \"#utility.yul\":607:636   */\n      swap1\n      pop\n        /* \"#utility.yul\":645:678   */\n      tag_116\n        /* \"#utility.yul\":672:677   */\n      dup2\n        /* \"#utility.yul\":645:678   */\n      tag_71\n      jump\t// in\n    tag_116:\n        /* \"#utility.yul\":545:684   */\n      swap3\n      swap2\n      pop\n      pop\n      jump\t// out\n        /* \"#utility.yul\":690:1019   */\n    tag_9:\n        /* \"#utility.yul\":749:755   */\n      0x00\n        /* \"#utility.yul\":798:800   */\n      0x20\n        /* \"#utility.yul\":786:795   */\n      dup3\n        /* \"#utility.yul\":777:784   */\n      dup5\n        /* \"#utility.yul\":773:796   */\n      sub\n        /* \"#utility.yul\":769:801   */\n      slt\n        /* \"#utility.yul\":766:885   */\n      iszero\n      tag_118\n      jumpi\n        /* \"#utility.yul\":804:883   */\n      tag_119\n      tag_68\n      jump\t// in\n    tag_119:\n        /* \"#utility.yul\":766:885   */\n    tag_118:\n        /* \"#utility.yul\":924:925   */\n      0x00\n        /* \"#utility.yul\":949:1002   */\n      tag_120\n        /* \"#utility.yul\":994:1001   */\n      dup5\n        /* \"#utility.yul\":985:991   */\n      dup3\n        /* \"#utility.yul\":974:983   */\n      dup6\n        /* \"#utility.yul\":970:992   */\n      add\n        /* \"#utility.yul\":949:1002   */\n      tag_72\n      jump\t// in\n    tag_120:\n        /* \"#utility.yul\":939:1002   */\n      swap2\n      pop\n        /* \"#utility.yul\":895:1012   */\n      pop\n        /* \"#utility.yul\":690:1019   */\n      swap3\n      swap2\n      pop\n      pop\n      jump\t// out\n        /* \"#utility.yul\":1025:1151   */\n    tag_73:\n        /* \"#utility.yul\":1062:1069   */\n      0x00\n        /* \"#utility.yul\":1102:1144   */\n      0xffffffffffffffffffffffffffffffffffffffff\n        /* \"#utility.yul\":1095:1100   */\n      dup3\n        /* \"#utility.yul\":1091:1145   */\n      and\n        /* \"#utility.yul\":1080:1145   */\n      swap1\n      pop\n        /* \"#utility.yul\":1025:1151   */\n      swap2\n      swap1\n      pop\n      jump\t// out\n        /* \"#utility.yul\":1157:1253   */\n    tag_74:\n        /* \"#utility.yul\":1194:1201   */\n      0x00\n        /* \"#utility.yul\":1223:1247   */\n      tag_123\n        /* \"#utility.yul\":1241:1246   */\n      dup3\n        /* \"#utility.yul\":1223:1247   */\n      tag_73\n      jump\t// in\n    tag_123:\n        /* \"#utility.yul\":1212:1247   */\n      swap1\n      pop\n        /* \"#utility.yul\":1157:1253   */\n      swap2\n      swap1\n      pop\n      jump\t// out\n        /* \"#utility.yul\":1259:1377   */\n    tag_75:\n        /* \"#utility.yul\":1346:1370   */\n      tag_125\n        /* \"#utility.yul\":1364:1369   */\n      dup2\n        /* \"#utility.yul\":1346:1370   */\n      tag_74\n      jump\t// in\n    tag_125:\n        /* \"#utility.yul\":1341:1344   */\n      dup3\n        /* \"#utility.yul\":1334:1371   */\n      mstore\n        /* \"#utility.yul\":1259:1377   */\n      pop\n      pop\n      jump\t// out\n        /* \"#utility.yul\":1383:1605   */\n    tag_12:\n        /* \"#utility.yul\":1476:1480   */\n      0x00\n        /* \"#utility.yul\":1514:1516   */\n      0x20\n        /* \"#utility.yul\":1503:1512   */\n      dup3\n        /* \"#utility.yul\":1499:1517   */\n      add\n        /* \"#utility.yul\":1491:1517   */\n      swap1\n      pop\n        /* \"#utility.yul\":1527:1598   */\n      tag_127\n        /* \"#utility.yul\":1595:1596   */\n      0x00\n        /* \"#utility.yul\":1584:1593   */\n      dup4\n        /* \"#utility.yul\":1580:1597   */\n      add\n        /* \"#utility.yul\":1571:1577   */\n      dup5\n        /* \"#utility.yul\":1527:1598   */\n      tag_75\n      jump\t// in\n    tag_127:\n        /* \"#utility.yul\":1383:1605   */\n      swap3\n      swap2\n      pop\n      pop\n      jump\t// out\n        /* \"#utility.yul\":1611:1710   */\n    tag_76:\n        /* \"#utility.yul\":1663:1669   */\n      0x00\n        /* \"#utility.yul\":1697:1702   */\n      dup2\n        /* \"#utility.yul\":1691:1703   */\n      mload\n        /* \"#utility.yul\":1681:1703   */\n      swap1\n      pop\n        /* \"#utility.yul\":1611:1710   */\n      swap2\n      swap1\n      pop\n      jump\t// out\n        /* \"#utility.yul\":1716:1885   */\n    tag_77:\n        /* \"#utility.yul\":1800:1811   */\n      0x00\n        /* \"#utility.yul\":1834:1840   */\n      dup3\n        /* \"#utility.yul\":1829:1832   */\n      dup3\n        /* \"#utility.yul\":1822:1841   */\n      mstore\n        /* \"#utility.yul\":1874:1878   */\n      0x20\n        /* \"#utility.yul\":1869:1872   */\n      dup3\n        /* \"#utility.yul\":1865:1879   */\n      add\n        /* \"#utility.yul\":1850:1879   */\n      swap1\n      pop\n        /* \"#utility.yul\":1716:1885   */\n      swap3\n      swap2\n      pop\n      pop\n      jump\t// out\n        /* \"#utility.yul\":1891:2198   */\n    tag_78:\n        /* \"#utility.yul\":1959:1960   */\n      0x00\n        /* \"#utility.yul\":1969:2082   */\n    tag_131:\n        /* \"#utility.yul\":1983:1989   */\n      dup4\n        /* \"#utility.yul\":1980:1981   */\n      dup2\n        /* \"#utility.yul\":1977:1990   */\n      lt\n        /* \"#utility.yul\":1969:2082   */\n      iszero\n      tag_133\n      jumpi\n        /* \"#utility.yul\":2068:2069   */\n      dup1\n        /* \"#utility.yul\":2063:2066   */\n      dup3\n        /* \"#utility.yul\":2059:2070   */\n      add\n        /* \"#utility.yul\":2053:2071   */\n      mload\n        /* \"#utility.yul\":2049:2050   */\n      dup2\n        /* \"#utility.yul\":2044:2047   */\n      dup5\n        /* \"#utility.yul\":2040:2051   */\n      add\n        /* \"#utility.yul\":2033:2072   */\n      mstore\n        /* \"#utility.yul\":2005:2007   */\n      0x20\n        /* \"#utility.yul\":2002:2003   */\n      dup2\n        /* \"#utility.yul\":1998:2008   */\n      add\n        /* \"#utility.yul\":1993:2008   */\n      swap1\n      pop\n        /* \"#utility.yul\":1969:2082   */\n      jump(tag_131)\n    tag_133:\n        /* \"#utility.yul\":2100:2106   */\n      dup4\n        /* \"#utility.yul\":2097:2098   */\n      dup2\n        /* \"#utility.yul\":2094:2107   */\n      gt\n        /* \"#utility.yul\":2091:2192   */\n      iszero\n      tag_134\n      jumpi\n        /* \"#utility.yul\":2180:2181   */\n      0x00\n        /* \"#utility.yul\":2171:2177   */\n      dup5\n        /* \"#utility.yul\":2166:2169   */\n      dup5\n        /* \"#utility.yul\":2162:2178   */\n      add\n        /* \"#utility.yul\":2155:2182   */\n      mstore\n        /* \"#utility.yul\":2091:2192   */\n    tag_134:\n        /* \"#utility.yul\":1940:2198   */\n      pop\n        /* \"#utility.yul\":1891:2198   */\n      pop\n      pop\n      pop\n      jump\t// out\n        /* \"#utility.yul\":2204:2306   */\n    tag_79:\n        /* \"#utility.yul\":2245:2251   */\n      0x00\n        /* \"#utility.yul\":2296:2298   */\n      0x1f\n        /* \"#utility.yul\":2292:2299   */\n      not\n        /* \"#utility.yul\":2287:2289   */\n      0x1f\n        /* \"#utility.yul\":2280:2285   */\n      dup4\n        /* \"#utility.yul\":2276:2290   */\n      add\n        /* \"#utility.yul\":2272:2300   */\n      and\n        /* \"#utility.yul\":2262:2300   */\n      swap1\n      pop\n        /* \"#utility.yul\":2204:2306   */\n      swap2\n      swap1\n      pop\n      jump\t// out\n        /* \"#utility.yul\":2312:2676   */\n    tag_80:\n        /* \"#utility.yul\":2400:2403   */\n      0x00\n        /* \"#utility.yul\":2428:2467   */\n      tag_137\n        /* \"#utility.yul\":2461:2466   */\n      dup3\n        /* \"#utility.yul\":2428:2467   */\n      tag_76\n      jump\t// in\n    tag_137:\n        /* \"#utility.yul\":2483:2554   */\n      tag_138\n        /* \"#utility.yul\":2547:2553   */\n      dup2\n        /* \"#utility.yul\":2542:2545   */\n      dup6\n        /* \"#utility.yul\":2483:2554   */\n      tag_77\n      jump\t// in\n    tag_138:\n        /* \"#utility.yul\":2476:2554   */\n      swap4\n      pop\n        /* \"#utility.yul\":2563:2615   */\n      tag_139\n        /* \"#utility.yul\":2608:2614   */\n      dup2\n        /* \"#utility.yul\":2603:2606   */\n      dup6\n        /* \"#utility.yul\":2596:2600   */\n      0x20\n        /* \"#utility.yul\":2589:2594   */\n      dup7\n        /* \"#utility.yul\":2585:2601   */\n      add\n        /* \"#utility.yul\":2563:2615   */\n      tag_78\n      jump\t// in\n    tag_139:\n        /* \"#utility.yul\":2640:2669   */\n      tag_140\n        /* \"#utility.yul\":2662:2668   */\n      dup2\n        /* \"#utility.yul\":2640:2669   */\n      tag_79\n      jump\t// in\n    tag_140:\n        /* \"#utility.yul\":2635:2638   */\n      dup5\n        /* \"#utility.yul\":2631:2670   */\n      add\n        /* \"#utility.yul\":2624:2670   */\n      swap2\n      pop\n        /* \"#utility.yul\":2404:2676   */\n      pop\n        /* \"#utility.yul\":2312:2676   */\n      swap3\n      swap2\n      pop\n      pop\n      jump\t// out\n        /* \"#utility.yul\":2682:2995   */\n    tag_17:\n        /* \"#utility.yul\":2795:2799   */\n      0x00\n        /* \"#utility.yul\":2833:2835   */\n      0x20\n        /* \"#utility.yul\":2822:2831   */\n      dup3\n        /* \"#utility.yul\":2818:2836   */\n      add\n        /* \"#utility.yul\":2810:2836   */\n      swap1\n      pop\n        /* \"#utility.yul\":2882:2891   */\n      dup2\n        /* \"#utility.yul\":2876:2880   */\n      dup2\n        /* \"#utility.yul\":2872:2892   */\n      sub\n        /* \"#utility.yul\":2868:2869   */\n      0x00\n        /* \"#utility.yul\":2857:2866   */\n      dup4\n        /* \"#utility.yul\":2853:2870   */\n      add\n        /* \"#utility.yul\":2846:2893   */\n      mstore\n        /* \"#utility.yul\":2910:2988   */\n      tag_142\n        /* \"#utility.yul\":2983:2987   */\n      dup2\n        /* \"#utility.yul\":2974:2980   */\n      dup5\n        /* \"#utility.yul\":2910:2988   */\n      tag_80\n      jump\t// in\n    tag_142:\n        /* \"#utility.yul\":2902:2988   */\n      swap1\n      pop\n        /* \"#utility.yul\":2682:2995   */\n      swap3\n      swap2\n      pop\n      pop\n      jump\t// out\n        /* \"#utility.yul\":3001:3115   */\n    tag_81:\n        /* \"#utility.yul\":3068:3074   */\n      0x00\n        /* \"#utility.yul\":3102:3107   */\n      dup2\n        /* \"#utility.yul\":3096:3108   */\n      mload\n        /* \"#utility.yul\":3086:3108   */\n      swap1\n      pop\n        /* \"#utility.yul\":3001:3115   */\n      swap2\n      swap1\n      pop\n      jump\t// out\n        /* \"#utility.yul\":3121:3305   */\n    tag_82:\n        /* \"#utility.yul\":3220:3231   */\n      0x00\n        /* \"#utility.yul\":3254:3260   */\n      dup3\n        /* \"#utility.yul\":3249:3252   */\n      dup3\n        /* \"#utility.yul\":3242:3261   */\n      mstore\n        /* \"#utility.yul\":3294:3298   */\n      0x20\n        /* \"#utility.yul\":3289:3292   */\n      dup3\n        /* \"#utility.yul\":3285:3299   */\n      add\n        /* \"#utility.yul\":3270:3299   */\n      swap1\n      pop\n        /* \"#utility.yul\":3121:3305   */\n      swap3\n      swap2\n      pop\n      pop\n      jump\t// out\n        /* \"#utility.yul\":3311:3443   */\n    tag_83:\n        /* \"#utility.yul\":3378:3382   */\n      0x00\n        /* \"#utility.yul\":3401:3404   */\n      dup2\n        /* \"#utility.yul\":3393:3404   */\n      swap1\n      pop\n        /* \"#utility.yul\":3431:3435   */\n      0x20\n        /* \"#utility.yul\":3426:3429   */\n      dup3\n        /* \"#utility.yul\":3422:3436   */\n      add\n        /* \"#utility.yul\":3414:3436   */\n      swap1\n      pop\n        /* \"#utility.yul\":3311:3443   */\n      swap2\n      swap1\n      pop\n      jump\t// out\n        /* \"#utility.yul\":3449:3557   */\n    tag_84:\n        /* \"#utility.yul\":3526:3550   */\n      tag_147\n        /* \"#utility.yul\":3544:3549   */\n      dup2\n        /* \"#utility.yul\":3526:3550   */\n      tag_74\n      jump\t// in\n    tag_147:\n        /* \"#utility.yul\":3521:3524   */\n      dup3\n        /* \"#utility.yul\":3514:3551   */\n      mstore\n        /* \"#utility.yul\":3449:3557   */\n      pop\n      pop\n      jump\t// out\n        /* \"#utility.yul\":3563:3742   */\n    tag_85:\n        /* \"#utility.yul\":3632:3642   */\n      0x00\n        /* \"#utility.yul\":3653:3699   */\n      tag_149\n        /* \"#utility.yul\":3695:3698   */\n      dup4\n        /* \"#utility.yul\":3687:3693   */\n      dup4\n        /* \"#utility.yul\":3653:3699   */\n      tag_84\n      jump\t// in\n    tag_149:\n        /* \"#utility.yul\":3731:3735   */\n      0x20\n        /* \"#utility.yul\":3726:3729   */\n      dup4\n        /* \"#utility.yul\":3722:3736   */\n      add\n        /* \"#utility.yul\":3708:3736   */\n      swap1\n      pop\n        /* \"#utility.yul\":3563:3742   */\n      swap3\n      swap2\n      pop\n      pop\n      jump\t// out\n        /* \"#utility.yul\":3748:3861   */\n    tag_86:\n        /* \"#utility.yul\":3818:3822   */\n      0x00\n        /* \"#utility.yul\":3850:3854   */\n      0x20\n        /* \"#utility.yul\":3845:3848   */\n      dup3\n        /* \"#utility.yul\":3841:3855   */\n      add\n        /* \"#utility.yul\":3833:3855   */\n      swap1\n      pop\n        /* \"#utility.yul\":3748:3861   */\n      swap2\n      swap1\n      pop\n      jump\t// out\n        /* \"#utility.yul\":3897:4629   */\n    tag_87:\n        /* \"#utility.yul\":4016:4019   */\n      0x00\n        /* \"#utility.yul\":4045:4099   */\n      tag_152\n        /* \"#utility.yul\":4093:4098   */\n      dup3\n        /* \"#utility.yul\":4045:4099   */\n      tag_81\n      jump\t// in\n    tag_152:\n        /* \"#utility.yul\":4115:4201   */\n      tag_153\n        /* \"#utility.yul\":4194:4200   */\n      dup2\n        /* \"#utility.yul\":4189:4192   */\n      dup6\n        /* \"#utility.yul\":4115:4201   */\n      tag_82\n      jump\t// in\n    tag_153:\n        /* \"#utility.yul\":4108:4201   */\n      swap4\n      pop\n        /* \"#utility.yul\":4225:4281   */\n      tag_154\n        /* \"#utility.yul\":4275:4280   */\n      dup4\n        /* \"#utility.yul\":4225:4281   */\n      tag_83\n      jump\t// in\n    tag_154:\n        /* \"#utility.yul\":4304:4311   */\n      dup1\n        /* \"#utility.yul\":4335:4336   */\n      0x00\n        /* \"#utility.yul\":4320:4604   */\n    tag_155:\n        /* \"#utility.yul\":4345:4351   */\n      dup4\n        /* \"#utility.yul\":4342:4343   */\n      dup2\n        /* \"#utility.yul\":4339:4352   */\n      lt\n        /* \"#utility.yul\":4320:4604   */\n      iszero\n      tag_157\n      jumpi\n        /* \"#utility.yul\":4421:4427   */\n      dup2\n        /* \"#utility.yul\":4415:4428   */\n      mload\n        /* \"#utility.yul\":4448:4511   */\n      tag_158\n        /* \"#utility.yul\":4507:4510   */\n      dup9\n        /* \"#utility.yul\":4492:4505   */\n      dup3\n        /* \"#utility.yul\":4448:4511   */\n      tag_85\n      jump\t// in\n    tag_158:\n        /* \"#utility.yul\":4441:4511   */\n      swap8\n      pop\n        /* \"#utility.yul\":4534:4594   */\n      tag_159\n        /* \"#utility.yul\":4587:4593   */\n      dup4\n        /* \"#utility.yul\":4534:4594   */\n      tag_86\n      jump\t// in\n    tag_159:\n        /* \"#utility.yul\":4524:4594   */\n      swap3\n      pop\n        /* \"#utility.yul\":4380:4604   */\n      pop\n        /* \"#utility.yul\":4367:4368   */\n      0x01\n        /* \"#utility.yul\":4364:4365   */\n      dup2\n        /* \"#utility.yul\":4360:4369   */\n      add\n        /* \"#utility.yul\":4355:4369   */\n      swap1\n      pop\n        /* \"#utility.yul\":4320:4604   */\n      jump(tag_155)\n    tag_157:\n        /* \"#utility.yul\":4324:4338   */\n      pop\n        /* \"#utility.yul\":4620:4623   */\n      dup6\n        /* \"#utility.yul\":4613:4623   */\n      swap4\n      pop\n        /* \"#utility.yul\":4021:4629   */\n      pop\n      pop\n      pop\n        /* \"#utility.yul\":3897:4629   */\n      swap3\n      swap2\n      pop\n      pop\n      jump\t// out\n        /* \"#utility.yul\":4635:4759   */\n    tag_88:\n        /* \"#utility.yul\":4712:4718   */\n      0x00\n        /* \"#utility.yul\":4746:4751   */\n      dup2\n        /* \"#utility.yul\":4740:4752   */\n      mload\n        /* \"#utility.yul\":4730:4752   */\n      swap1\n      pop\n        /* \"#utility.yul\":4635:4759   */\n      swap2\n      swap1\n      pop\n      jump\t// out\n        /* \"#utility.yul\":4765:4959   */\n    tag_89:\n        /* \"#utility.yul\":4874:4885   */\n      0x00\n        /* \"#utility.yul\":4908:4914   */\n      dup3\n        /* \"#utility.yul\":4903:4906   */\n      dup3\n        /* \"#utility.yul\":4896:4915   */\n      mstore\n        /* \"#utility.yul\":4948:4952   */\n      0x20\n        /* \"#utility.yul\":4943:4946   */\n      dup3\n        /* \"#utility.yul\":4939:4953   */\n      add\n        /* \"#utility.yul\":4924:4953   */\n      swap1\n      pop\n        /* \"#utility.yul\":4765:4959   */\n      swap3\n      swap2\n      pop\n      pop\n      jump\t// out\n        /* \"#utility.yul\":4965:5107   */\n    tag_90:\n        /* \"#utility.yul\":5042:5046   */\n      0x00\n        /* \"#utility.yul\":5065:5068   */\n      dup2\n        /* \"#utility.yul\":5057:5068   */\n      swap1\n      pop\n        /* \"#utility.yul\":5095:5099   */\n      0x20\n        /* \"#utility.yul\":5090:5093   */\n      dup3\n        /* \"#utility.yul\":5086:5100   */\n      add\n        /* \"#utility.yul\":5078:5100   */\n      swap1\n      pop\n        /* \"#utility.yul\":4965:5107   */\n      swap2\n      swap1\n      pop\n      jump\t// out\n        /* \"#utility.yul\":5113:5272   */\n    tag_91:\n        /* \"#utility.yul\":5187:5198   */\n      0x00\n        /* \"#utility.yul\":5221:5227   */\n      dup3\n        /* \"#utility.yul\":5216:5219   */\n      dup3\n        /* \"#utility.yul\":5209:5228   */\n      mstore\n        /* \"#utility.yul\":5261:5265   */\n      0x20\n        /* \"#utility.yul\":5256:5259   */\n      dup3\n        /* \"#utility.yul\":5252:5266   */\n      add\n        /* \"#utility.yul\":5237:5266   */\n      swap1\n      pop\n        /* \"#utility.yul\":5113:5272   */\n      swap3\n      swap2\n      pop\n      pop\n      jump\t// out\n        /* \"#utility.yul\":5278:5622   */\n    tag_92:\n        /* \"#utility.yul\":5356:5359   */\n      0x00\n        /* \"#utility.yul\":5384:5423   */\n      tag_165\n        /* \"#utility.yul\":5417:5422   */\n      dup3\n        /* \"#utility.yul\":5384:5423   */\n      tag_76\n      jump\t// in\n    tag_165:\n        /* \"#utility.yul\":5439:5500   */\n      tag_166\n        /* \"#utility.yul\":5493:5499   */\n      dup2\n        /* \"#utility.yul\":5488:5491   */\n      dup6\n        /* \"#utility.yul\":5439:5500   */\n      tag_91\n      jump\t// in\n    tag_166:\n        /* \"#utility.yul\":5432:5500   */\n      swap4\n      pop\n        /* \"#utility.yul\":5509:5561   */\n      tag_167\n        /* \"#utility.yul\":5554:5560   */\n      dup2\n        /* \"#utility.yul\":5549:5552   */\n      dup6\n        /* \"#utility.yul\":5542:5546   */\n      0x20\n        /* \"#utility.yul\":5535:5540   */\n      dup7\n        /* \"#utility.yul\":5531:5547   */\n      add\n        /* \"#utility.yul\":5509:5561   */\n      tag_78\n      jump\t// in\n    tag_167:\n        /* \"#utility.yul\":5586:5615   */\n      tag_168\n        /* \"#utility.yul\":5608:5614   */\n      dup2\n        /* \"#utility.yul\":5586:5615   */\n      tag_79\n      jump\t// in\n    tag_168:\n        /* \"#utility.yul\":5581:5584   */\n      dup5\n        /* \"#utility.yul\":5577:5616   */\n      add\n        /* \"#utility.yul\":5570:5616   */\n      swap2\n      pop\n        /* \"#utility.yul\":5360:5622   */\n      pop\n        /* \"#utility.yul\":5278:5622   */\n      swap3\n      swap2\n      pop\n      pop\n      jump\t// out\n        /* \"#utility.yul\":5628:5824   */\n    tag_93:\n        /* \"#utility.yul\":5717:5727   */\n      0x00\n        /* \"#utility.yul\":5752:5818   */\n      tag_170\n        /* \"#utility.yul\":5814:5817   */\n      dup4\n        /* \"#utility.yul\":5806:5812   */\n      dup4\n        /* \"#utility.yul\":5752:5818   */\n      tag_92\n      jump\t// in\n    tag_170:\n        /* \"#utility.yul\":5738:5818   */\n      swap1\n      pop\n        /* \"#utility.yul\":5628:5824   */\n      swap3\n      swap2\n      pop\n      pop\n      jump\t// out\n        /* \"#utility.yul\":5830:5953   */\n    tag_94:\n        /* \"#utility.yul\":5910:5914   */\n      0x00\n        /* \"#utility.yul\":5942:5946   */\n      0x20\n        /* \"#utility.yul\":5937:5940   */\n      dup3\n        /* \"#utility.yul\":5933:5947   */\n      add\n        /* \"#utility.yul\":5925:5947   */\n      swap1\n      pop\n        /* \"#utility.yul\":5830:5953   */\n      swap2\n      swap1\n      pop\n      jump\t// out\n        /* \"#utility.yul\":5987:6978   */\n    tag_95:\n        /* \"#utility.yul\":6126:6129   */\n      0x00\n        /* \"#utility.yul\":6155:6219   */\n      tag_173\n        /* \"#utility.yul\":6213:6218   */\n      dup3\n        /* \"#utility.yul\":6155:6219   */\n      tag_88\n      jump\t// in\n    tag_173:\n        /* \"#utility.yul\":6235:6331   */\n      tag_174\n        /* \"#utility.yul\":6324:6330   */\n      dup2\n        /* \"#utility.yul\":6319:6322   */\n      dup6\n        /* \"#utility.yul\":6235:6331   */\n      tag_89\n      jump\t// in\n    tag_174:\n        /* \"#utility.yul\":6228:6331   */\n      swap4\n      pop\n        /* \"#utility.yul\":6357:6360   */\n      dup4\n        /* \"#utility.yul\":6402:6406   */\n      0x20\n        /* \"#utility.yul\":6394:6400   */\n      dup3\n        /* \"#utility.yul\":6390:6407   */\n      mul\n        /* \"#utility.yul\":6385:6388   */\n      dup6\n        /* \"#utility.yul\":6381:6408   */\n      add\n        /* \"#utility.yul\":6432:6498   */\n      tag_175\n        /* \"#utility.yul\":6492:6497   */\n      dup6\n        /* \"#utility.yul\":6432:6498   */\n      tag_90\n      jump\t// in\n    tag_175:\n        /* \"#utility.yul\":6521:6528   */\n      dup1\n        /* \"#utility.yul\":6552:6553   */\n      0x00\n        /* \"#utility.yul\":6537:6933   */\n    tag_176:\n        /* \"#utility.yul\":6562:6568   */\n      dup6\n        /* \"#utility.yul\":6559:6560   */\n      dup2\n        /* \"#utility.yul\":6556:6569   */\n      lt\n        /* \"#utility.yul\":6537:6933   */\n      iszero\n      tag_178\n      jumpi\n        /* \"#utility.yul\":6633:6642   */\n      dup5\n        /* \"#utility.yul\":6627:6631   */\n      dup5\n        /* \"#utility.yul\":6623:6643   */\n      sub\n        /* \"#utility.yul\":6618:6621   */\n      dup10\n        /* \"#utility.yul\":6611:6644   */\n      mstore\n        /* \"#utility.yul\":6684:6690   */\n      dup2\n        /* \"#utility.yul\":6678:6691   */\n      mload\n        /* \"#utility.yul\":6712:6796   */\n      tag_179\n        /* \"#utility.yul\":6791:6795   */\n      dup6\n        /* \"#utility.yul\":6776:6789   */\n      dup3\n        /* \"#utility.yul\":6712:6796   */\n      tag_93\n      jump\t// in\n    tag_179:\n        /* \"#utility.yul\":6704:6796   */\n      swap5\n      pop\n        /* \"#utility.yul\":6819:6889   */\n      tag_180\n        /* \"#utility.yul\":6882:6888   */\n      dup4\n        /* \"#utility.yul\":6819:6889   */\n      tag_94\n      jump\t// in\n    tag_180:\n        /* \"#utility.yul\":6809:6889   */\n      swap3\n      pop\n        /* \"#utility.yul\":6918:6922   */\n      0x20\n        /* \"#utility.yul\":6913:6916   */\n      dup11\n        /* \"#utility.yul\":6909:6923   */\n      add\n        /* \"#utility.yul\":6902:6923   */\n      swap10\n      pop\n        /* \"#utility.yul\":6597:6933   */\n      pop\n        /* \"#utility.yul\":6584:6585   */\n      0x01\n        /* \"#utility.yul\":6581:6582   */\n      dup2\n        /* \"#utility.yul\":6577:6586   */\n      add\n        /* \"#utility.yul\":6572:6586   */\n      swap1\n      pop\n        /* \"#utility.yul\":6537:6933   */\n      jump(tag_176)\n    tag_178:\n        /* \"#utility.yul\":6541:6555   */\n      pop\n        /* \"#utility.yul\":6949:6953   */\n      dup3\n        /* \"#utility.yul\":6942:6953   */\n      swap8\n      pop\n        /* \"#utility.yul\":6969:6972   */\n      dup8\n        /* \"#utility.yul\":6962:6972   */\n      swap6\n      pop\n        /* \"#utility.yul\":6131:6978   */\n      pop\n      pop\n      pop\n      pop\n      pop\n        /* \"#utility.yul\":5987:6978   */\n      swap3\n      swap2\n      pop\n      pop\n      jump\t// out\n        /* \"#utility.yul\":6984:7658   */\n    tag_21:\n        /* \"#utility.yul\":7225:7229   */\n      0x00\n        /* \"#utility.yul\":7263:7265   */\n      0x40\n        /* \"#utility.yul\":7252:7261   */\n      dup3\n        /* \"#utility.yul\":7248:7266   */\n      add\n        /* \"#utility.yul\":7240:7266   */\n      swap1\n      pop\n        /* \"#utility.yul\":7312:7321   */\n      dup2\n        /* \"#utility.yul\":7306:7310   */\n      dup2\n        /* \"#utility.yul\":7302:7322   */\n      sub\n        /* \"#utility.yul\":7298:7299   */\n      0x00\n        /* \"#utility.yul\":7287:7296   */\n      dup4\n        /* \"#utility.yul\":7283:7300   */\n      add\n        /* \"#utility.yul\":7276:7323   */\n      mstore\n        /* \"#utility.yul\":7340:7448   */\n      tag_182\n        /* \"#utility.yul\":7443:7447   */\n      dup2\n        /* \"#utility.yul\":7434:7440   */\n      dup6\n        /* \"#utility.yul\":7340:7448   */\n      tag_87\n      jump\t// in\n    tag_182:\n        /* \"#utility.yul\":7332:7448   */\n      swap1\n      pop\n        /* \"#utility.yul\":7495:7504   */\n      dup2\n        /* \"#utility.yul\":7489:7493   */\n      dup2\n        /* \"#utility.yul\":7485:7505   */\n      sub\n        /* \"#utility.yul\":7480:7482   */\n      0x20\n        /* \"#utility.yul\":7469:7478   */\n      dup4\n        /* \"#utility.yul\":7465:7483   */\n      add\n        /* \"#utility.yul\":7458:7506   */\n      mstore\n        /* \"#utility.yul\":7523:7651   */\n      tag_183\n        /* \"#utility.yul\":7646:7650   */\n      dup2\n        /* \"#utility.yul\":7637:7643   */\n      dup5\n        /* \"#utility.yul\":7523:7651   */\n      tag_95\n      jump\t// in\n    tag_183:\n        /* \"#utility.yul\":7515:7651   */\n      swap1\n      pop\n        /* \"#utility.yul\":6984:7658   */\n      swap4\n      swap3\n      pop\n      pop\n      pop\n      jump\t// out\n        /* \"#utility.yul\":7664:7781   */\n    tag_96:\n        /* \"#utility.yul\":7773:7774   */\n      0x00\n        /* \"#utility.yul\":7770:7771   */\n      dup1\n        /* \"#utility.yul\":7763:7775   */\n      revert\n        /* \"#utility.yul\":7787:7904   */\n    tag_97:\n        /* \"#utility.yul\":7896:7897   */\n      0x00\n        /* \"#utility.yul\":7893:7894   */\n      dup1\n        /* \"#utility.yul\":7886:7898   */\n      revert\n        /* \"#utility.yul\":7910:8090   */\n    tag_98:\n        /* \"#utility.yul\":7958:8035   */\n      0x4e487b7100000000000000000000000000000000000000000000000000000000\n        /* \"#utility.yul\":7955:7956   */\n      0x00\n        /* \"#utility.yul\":7948:8036   */\n      mstore\n        /* \"#utility.yul\":8055:8059   */\n      0x41\n        /* \"#utility.yul\":8052:8053   */\n      0x04\n        /* \"#utility.yul\":8045:8060   */\n      mstore\n        /* \"#utility.yul\":8079:8083   */\n      0x24\n        /* \"#utility.yul\":8076:8077   */\n      0x00\n        /* \"#utility.yul\":8069:8084   */\n      revert\n        /* \"#utility.yul\":8096:8377   */\n    tag_99:\n        /* \"#utility.yul\":8179:8206   */\n      tag_188\n        /* \"#utility.yul\":8201:8205   */\n      dup3\n        /* \"#utility.yul\":8179:8206   */\n      tag_79\n      jump\t// in\n    tag_188:\n        /* \"#utility.yul\":8171:8177   */\n      dup2\n        /* \"#utility.yul\":8167:8207   */\n      add\n        /* \"#utility.yul\":8309:8315   */\n      dup2\n        /* \"#utility.yul\":8297:8307   */\n      dup2\n        /* \"#utility.yul\":8294:8316   */\n      lt\n        /* \"#utility.yul\":8273:8291   */\n      0xffffffffffffffff\n        /* \"#utility.yul\":8261:8271   */\n      dup3\n        /* \"#utility.yul\":8258:8292   */\n      gt\n        /* \"#utility.yul\":8255:8317   */\n      or\n        /* \"#utility.yul\":8252:8340   */\n      iszero\n      tag_189\n      jumpi\n        /* \"#utility.yul\":8320:8338   */\n      tag_190\n      tag_98\n      jump\t// in\n    tag_190:\n        /* \"#utility.yul\":8252:8340   */\n    tag_189:\n        /* \"#utility.yul\":8360:8370   */\n      dup1\n        /* \"#utility.yul\":8356:8358   */\n      0x40\n        /* \"#utility.yul\":8349:8371   */\n      mstore\n        /* \"#utility.yul\":8139:8377   */\n      pop\n        /* \"#utility.yul\":8096:8377   */\n      pop\n      pop\n      jump\t// out\n        /* \"#utility.yul\":8383:8512   */\n    tag_100:\n        /* \"#utility.yul\":8417:8423   */\n      0x00\n        /* \"#utility.yul\":8444:8464   */\n      tag_192\n      tag_67\n      jump\t// in\n    tag_192:\n        /* \"#utility.yul\":8434:8464   */\n      swap1\n      pop\n        /* \"#utility.yul\":8473:8506   */\n      tag_193\n        /* \"#utility.yul\":8501:8505   */\n      dup3\n        /* \"#utility.yul\":8493:8499   */\n      dup3\n        /* \"#utility.yul\":8473:8506   */\n      tag_99\n      jump\t// in\n    tag_193:\n        /* \"#utility.yul\":8383:8512   */\n      swap2\n      swap1\n      pop\n      jump\t// out\n        /* \"#utility.yul\":8518:8826   */\n    tag_101:\n        /* \"#utility.yul\":8580:8584   */\n      0x00\n        /* \"#utility.yul\":8670:8688   */\n      0xffffffffffffffff\n        /* \"#utility.yul\":8662:8668   */\n      dup3\n        /* \"#utility.yul\":8659:8689   */\n      gt\n        /* \"#utility.yul\":8656:8712   */\n      iszero\n      tag_195\n      jumpi\n        /* \"#utility.yul\":8692:8710   */\n      tag_196\n      tag_98\n      jump\t// in\n    tag_196:\n        /* \"#utility.yul\":8656:8712   */\n    tag_195:\n        /* \"#utility.yul\":8730:8759   */\n      tag_197\n        /* \"#utility.yul\":8752:8758   */\n      dup3\n        /* \"#utility.yul\":8730:8759   */\n      tag_79\n      jump\t// in\n    tag_197:\n        /* \"#utility.yul\":8722:8759   */\n      swap1\n      pop\n        /* \"#utility.yul\":8814:8818   */\n      0x20\n        /* \"#utility.yul\":8808:8812   */\n      dup2\n        /* \"#utility.yul\":8804:8819   */\n      add\n        /* \"#utility.yul\":8796:8819   */\n      swap1\n      pop\n        /* \"#utility.yul\":8518:8826   */\n      swap2\n      swap1\n      pop\n      jump\t// out\n        /* \"#utility.yul\":8832:8986   */\n    tag_102:\n        /* \"#utility.yul\":8916:8922   */\n      dup3\n        /* \"#utility.yul\":8911:8914   */\n      dup2\n        /* \"#utility.yul\":8906:8909   */\n      dup4\n        /* \"#utility.yul\":8893:8923   */\n      calldatacopy\n        /* \"#utility.yul\":8978:8979   */\n      0x00\n        /* \"#utility.yul\":8969:8975   */\n      dup4\n        /* \"#utility.yul\":8964:8967   */\n      dup4\n        /* \"#utility.yul\":8960:8976   */\n      add\n        /* \"#utility.yul\":8953:8980   */\n      mstore\n        /* \"#utility.yul\":8832:8986   */\n      pop\n      pop\n      pop\n      jump\t// out\n        /* \"#utility.yul\":8992:9404   */\n    tag_103:\n        /* \"#utility.yul\":9070:9075   */\n      0x00\n        /* \"#utility.yul\":9095:9161   */\n      tag_200\n        /* \"#utility.yul\":9111:9160   */\n      tag_201\n        /* \"#utility.yul\":9153:9159   */\n      dup5\n        /* \"#utility.yul\":9111:9160   */\n      tag_101\n      jump\t// in\n    tag_201:\n        /* \"#utility.yul\":9095:9161   */\n      tag_100\n      jump\t// in\n    tag_200:\n        /* \"#utility.yul\":9086:9161   */\n      swap1\n      pop\n        /* \"#utility.yul\":9184:9190   */\n      dup3\n        /* \"#utility.yul\":9177:9182   */\n      dup2\n        /* \"#utility.yul\":9170:9191   */\n      mstore\n        /* \"#utility.yul\":9222:9226   */\n      0x20\n        /* \"#utility.yul\":9215:9220   */\n      dup2\n        /* \"#utility.yul\":9211:9227   */\n      add\n        /* \"#utility.yul\":9260:9263   */\n      dup5\n        /* \"#utility.yul\":9251:9257   */\n      dup5\n        /* \"#utility.yul\":9246:9249   */\n      dup5\n        /* \"#utility.yul\":9242:9258   */\n      add\n        /* \"#utility.yul\":9239:9264   */\n      gt\n        /* \"#utility.yul\":9236:9348   */\n      iszero\n      tag_202\n      jumpi\n        /* \"#utility.yul\":9267:9346   */\n      tag_203\n      tag_97\n      jump\t// in\n    tag_203:\n        /* \"#utility.yul\":9236:9348   */\n    tag_202:\n        /* \"#utility.yul\":9357:9398   */\n      tag_204\n        /* \"#utility.yul\":9391:9397   */\n      dup5\n        /* \"#utility.yul\":9386:9389   */\n      dup3\n        /* \"#utility.yul\":9381:9384   */\n      dup6\n        /* \"#utility.yul\":9357:9398   */\n      tag_102\n      jump\t// in\n    tag_204:\n        /* \"#utility.yul\":9076:9404   */\n      pop\n        /* \"#utility.yul\":8992:9404   */\n      swap4\n      swap3\n      pop\n      pop\n      pop\n      jump\t// out\n        /* \"#utility.yul\":9424:9764   */\n    tag_104:\n        /* \"#utility.yul\":9480:9485   */\n      0x00\n        /* \"#utility.yul\":9529:9532   */\n      dup3\n        /* \"#utility.yul\":9522:9526   */\n      0x1f\n        /* \"#utility.yul\":9514:9520   */\n      dup4\n        /* \"#utility.yul\":9510:9527   */\n      add\n        /* \"#utility.yul\":9506:9533   */\n      slt\n        /* \"#utility.yul\":9496:9618   */\n      tag_206\n      jumpi\n        /* \"#utility.yul\":9537:9616   */\n      tag_207\n      tag_96\n      jump\t// in\n    tag_207:\n        /* \"#utility.yul\":9496:9618   */\n    tag_206:\n        /* \"#utility.yul\":9654:9660   */\n      dup2\n        /* \"#utility.yul\":9641:9661   */\n      calldataload\n        /* \"#utility.yul\":9679:9758   */\n      tag_208\n        /* \"#utility.yul\":9754:9757   */\n      dup5\n        /* \"#utility.yul\":9746:9752   */\n      dup3\n        /* \"#utility.yul\":9739:9743   */\n      0x20\n        /* \"#utility.yul\":9731:9737   */\n      dup7\n        /* \"#utility.yul\":9727:9744   */\n      add\n        /* \"#utility.yul\":9679:9758   */\n      tag_103\n      jump\t// in\n    tag_208:\n        /* \"#utility.yul\":9670:9758   */\n      swap2\n      pop\n        /* \"#utility.yul\":9486:9764   */\n      pop\n        /* \"#utility.yul\":9424:9764   */\n      swap3\n      swap2\n      pop\n      pop\n      jump\t// out\n        /* \"#utility.yul\":9770:10424   */\n    tag_24:\n        /* \"#utility.yul\":9848:9854   */\n      0x00\n        /* \"#utility.yul\":9856:9862   */\n      dup1\n        /* \"#utility.yul\":9905:9907   */\n      0x40\n        /* \"#utility.yul\":9893:9902   */\n      dup4\n        /* \"#utility.yul\":9884:9891   */\n      dup6\n        /* \"#utility.yul\":9880:9903   */\n      sub\n        /* \"#utility.yul\":9876:9908   */\n      slt\n        /* \"#utility.yul\":9873:9992   */\n      iszero\n      tag_210\n      jumpi\n        /* \"#utility.yul\":9911:9990   */\n      tag_211\n      tag_68\n      jump\t// in\n    tag_211:\n        /* \"#utility.yul\":9873:9992   */\n    tag_210:\n        /* \"#utility.yul\":10059:10060   */\n      0x00\n        /* \"#utility.yul\":10048:10057   */\n      dup4\n        /* \"#utility.yul\":10044:10061   */\n      add\n        /* \"#utility.yul\":10031:10062   */\n      calldataload\n        /* \"#utility.yul\":10089:10107   */\n      0xffffffffffffffff\n        /* \"#utility.yul\":10081:10087   */\n      dup2\n        /* \"#utility.yul\":10078:10108   */\n      gt\n        /* \"#utility.yul\":10075:10192   */\n      iszero\n      tag_212\n      jumpi\n        /* \"#utility.yul\":10111:10190   */\n      tag_213\n      tag_69\n      jump\t// in\n    tag_213:\n        /* \"#utility.yul\":10075:10192   */\n    tag_212:\n        /* \"#utility.yul\":10216:10279   */\n      tag_214\n        /* \"#utility.yul\":10271:10278   */\n      dup6\n        /* \"#utility.yul\":10262:10268   */\n      dup3\n        /* \"#utility.yul\":10251:10260   */\n      dup7\n        /* \"#utility.yul\":10247:10269   */\n      add\n        /* \"#utility.yul\":10216:10279   */\n      tag_104\n      jump\t// in\n    tag_214:\n        /* \"#utility.yul\":10206:10279   */\n      swap3\n      pop\n        /* \"#utility.yul\":10002:10289   */\n      pop\n        /* \"#utility.yul\":10328:10330   */\n      0x20\n        /* \"#utility.yul\":10354:10407   */\n      tag_215\n        /* \"#utility.yul\":10399:10406   */\n      dup6\n        /* \"#utility.yul\":10390:10396   */\n      dup3\n        /* \"#utility.yul\":10379:10388   */\n      dup7\n        /* \"#utility.yul\":10375:10397   */\n      add\n        /* \"#utility.yul\":10354:10407   */\n      tag_72\n      jump\t// in\n    tag_215:\n        /* \"#utility.yul\":10344:10407   */\n      swap2\n      pop\n        /* \"#utility.yul\":10299:10417   */\n      pop\n        /* \"#utility.yul\":9770:10424   */\n      swap3\n      pop\n      swap3\n      swap1\n      pop\n      jump\t// out\n        /* \"#utility.yul\":10430:10610   */\n    tag_105:\n        /* \"#utility.yul\":10478:10555   */\n      0x4e487b7100000000000000000000000000000000000000000000000000000000\n        /* \"#utility.yul\":10475:10476   */\n      0x00\n        /* \"#utility.yul\":10468:10556   */\n      mstore\n        /* \"#utility.yul\":10575:10579   */\n      0x22\n        /* \"#utility.yul\":10572:10573   */\n      0x04\n        /* \"#utility.yul\":10565:10580   */\n      mstore\n        /* \"#utility.yul\":10599:10603   */\n      0x24\n        /* \"#utility.yul\":10596:10597   */\n      0x00\n        /* \"#utility.yul\":10589:10604   */\n      revert\n        /* \"#utility.yul\":10616:10936   */\n    tag_31:\n        /* \"#utility.yul\":10660:10666   */\n      0x00\n        /* \"#utility.yul\":10697:10698   */\n      0x02\n        /* \"#utility.yul\":10691:10695   */\n      dup3\n        /* \"#utility.yul\":10687:10699   */\n      div\n        /* \"#utility.yul\":10677:10699   */\n      swap1\n      pop\n        /* \"#utility.yul\":10744:10745   */\n      0x01\n        /* \"#utility.yul\":10738:10742   */\n      dup3\n        /* \"#utility.yul\":10734:10746   */\n      and\n        /* \"#utility.yul\":10765:10783   */\n      dup1\n        /* \"#utility.yul\":10755:10836   */\n      tag_218\n      jumpi\n        /* \"#utility.yul\":10821:10825   */\n      0x7f\n        /* \"#utility.yul\":10813:10819   */\n      dup3\n        /* \"#utility.yul\":10809:10826   */\n      and\n        /* \"#utility.yul\":10799:10826   */\n      swap2\n      pop\n        /* \"#utility.yul\":10755:10836   */\n    tag_218:\n        /* \"#utility.yul\":10883:10885   */\n      0x20\n        /* \"#utility.yul\":10875:10881   */\n      dup3\n        /* \"#utility.yul\":10872:10886   */\n      lt\n        /* \"#utility.yul\":10852:10870   */\n      dup2\n        /* \"#utility.yul\":10849:10887   */\n      eq\n        /* \"#utility.yul\":10846:10930   */\n      iszero\n      tag_219\n      jumpi\n        /* \"#utility.yul\":10902:10920   */\n      tag_220\n      tag_105\n      jump\t// in\n    tag_220:\n        /* \"#utility.yul\":10846:10930   */\n    tag_219:\n        /* \"#utility.yul\":10667:10936   */\n      pop\n        /* \"#utility.yul\":10616:10936   */\n      swap2\n      swap1\n      pop\n      jump\t// out\n        /* \"#utility.yul\":10942:11060   */\n    tag_106:\n        /* \"#utility.yul\":11029:11053   */\n      tag_222\n        /* \"#utility.yul\":11047:11052   */\n      dup2\n        /* \"#utility.yul\":11029:11053   */\n      tag_70\n      jump\t// in\n    tag_222:\n        /* \"#utility.yul\":11024:11027   */\n      dup3\n        /* \"#utility.yul\":11017:11054   */\n      mstore\n        /* \"#utility.yul\":10942:11060   */\n      pop\n      pop\n      jump\t// out\n        /* \"#utility.yul\":11066:11398   */\n    tag_51:\n        /* \"#utility.yul\":11187:11191   */\n      0x00\n        /* \"#utility.yul\":11225:11227   */\n      0x40\n        /* \"#utility.yul\":11214:11223   */\n      dup3\n        /* \"#utility.yul\":11210:11228   */\n      add\n        /* \"#utility.yul\":11202:11228   */\n      swap1\n      pop\n        /* \"#utility.yul\":11238:11309   */\n      tag_224\n        /* \"#utility.yul\":11306:11307   */\n      0x00\n        /* \"#utility.yul\":11295:11304   */\n      dup4\n        /* \"#utility.yul\":11291:11308   */\n      add\n        /* \"#utility.yul\":11282:11288   */\n      dup6\n        /* \"#utility.yul\":11238:11309   */\n      tag_106\n      jump\t// in\n    tag_224:\n        /* \"#utility.yul\":11319:11391   */\n      tag_225\n        /* \"#utility.yul\":11387:11389   */\n      0x20\n        /* \"#utility.yul\":11376:11385   */\n      dup4\n        /* \"#utility.yul\":11372:11390   */\n      add\n        /* \"#utility.yul\":11363:11369   */\n      dup5\n        /* \"#utility.yul\":11319:11391   */\n      tag_75\n      jump\t// in\n    tag_225:\n        /* \"#utility.yul\":11066:11398   */\n      swap4\n      swap3\n      pop\n      pop\n      pop\n      jump\t// out\n    stop\n\n    sub_0: assembly {\n            /* \"Campaign.sol\":541:2838  contract Campaign{... */\n          mstore(0x40, 0x80)\n            /* \"Campaign.sol\":994:1085  constructor(uint min,address creator) {... */\n          callvalue\n          dup1\n          iszero\n          tag_1\n          jumpi\n          0x00\n          dup1\n          revert\n        tag_1:\n          pop\n          mload(0x40)\n          sub(codesize, bytecodeSize)\n          dup1\n          bytecodeSize\n          dup4\n          codecopy\n          dup2\n          dup2\n          add\n          0x40\n          mstore\n          dup2\n          add\n          swap1\n          tag_2\n          swap2\n          swap1\n          tag_3\n          jump\t// in\n        tag_2:\n            /* \"Campaign.sol\":1050:1057  creator */\n          dup1\n            /* \"Campaign.sol\":1042:1049  manager */\n          0x01\n          0x00\n            /* \"Campaign.sol\":1042:1057  manager=creator */\n          0x0100\n          exp\n          dup2\n          sload\n          dup2\n          0xffffffffffffffffffffffffffffffffffffffff\n          mul\n          not\n          and\n          swap1\n          dup4\n          0xffffffffffffffffffffffffffffffffffffffff\n          and\n          mul\n          or\n          swap1\n          sstore\n          pop\n            /* \"Campaign.sol\":1075:1078  min */\n          dup2\n            /* \"Campaign.sol\":1067:1074  minCont */\n          0x04\n            /* \"Campaign.sol\":1067:1078  minCont=min */\n          dup2\n          swap1\n          sstore\n          pop\n            /* \"Campaign.sol\":994:1085  constructor(uint min,address creator) {... */\n          pop\n          pop\n            /* \"Campaign.sol\":541:2838  contract Campaign{... */\n          jump(tag_6)\n            /* \"#utility.yul\":88:205   */\n        tag_8:\n            /* \"#utility.yul\":197:198   */\n          0x00\n            /* \"#utility.yul\":194:195   */\n          dup1\n            /* \"#utility.yul\":187:199   */\n          revert\n            /* \"#utility.yul\":334:411   */\n        tag_10:\n            /* \"#utility.yul\":371:378   */\n          0x00\n            /* \"#utility.yul\":400:405   */\n          dup2\n            /* \"#utility.yul\":389:405   */\n          swap1\n          pop\n            /* \"#utility.yul\":334:411   */\n          swap2\n          swap1\n          pop\n          jump\t// out\n            /* \"#utility.yul\":417:539   */\n        tag_11:\n            /* \"#utility.yul\":490:514   */\n          tag_23\n            /* \"#utility.yul\":508:513   */\n          dup2\n            /* \"#utility.yul\":490:514   */\n          tag_10\n          jump\t// in\n        tag_23:\n            /* \"#utility.yul\":483:488   */\n          dup2\n            /* \"#utility.yul\":480:515   */\n          eq\n            /* \"#utility.yul\":470:533   */\n          tag_24\n          jumpi\n            /* \"#utility.yul\":529:530   */\n          0x00\n            /* \"#utility.yul\":526:527   */\n          dup1\n            /* \"#utility.yul\":519:531   */\n          revert\n            /* \"#utility.yul\":470:533   */\n        tag_24:\n            /* \"#utility.yul\":417:539   */\n          pop\n          jump\t// out\n            /* \"#utility.yul\":545:688   */\n        tag_12:\n            /* \"#utility.yul\":602:607   */\n          0x00\n            /* \"#utility.yul\":633:639   */\n          dup2\n            /* \"#utility.yul\":627:640   */\n          mload\n            /* \"#utility.yul\":618:640   */\n          swap1\n          pop\n            /* \"#utility.yul\":649:682   */\n          tag_26\n            /* \"#utility.yul\":676:681   */\n          dup2\n            /* \"#utility.yul\":649:682   */\n          tag_11\n          jump\t// in\n        tag_26:\n            /* \"#utility.yul\":545:688   */\n          swap3\n          swap2\n          pop\n          pop\n          jump\t// out\n            /* \"#utility.yul\":694:820   */\n        tag_13:\n            /* \"#utility.yul\":731:738   */\n          0x00\n            /* \"#utility.yul\":771:813   */\n          0xffffffffffffffffffffffffffffffffffffffff\n            /* \"#utility.yul\":764:769   */\n          dup3\n            /* \"#utility.yul\":760:814   */\n          and\n            /* \"#utility.yul\":749:814   */\n          swap1\n          pop\n            /* \"#utility.yul\":694:820   */\n          swap2\n          swap1\n          pop\n          jump\t// out\n            /* \"#utility.yul\":826:922   */\n        tag_14:\n            /* \"#utility.yul\":863:870   */\n          0x00\n            /* \"#utility.yul\":892:916   */\n          tag_29\n            /* \"#utility.yul\":910:915   */\n          dup3\n            /* \"#utility.yul\":892:916   */\n          tag_13\n          jump\t// in\n        tag_29:\n            /* \"#utility.yul\":881:916   */\n          swap1\n          pop\n            /* \"#utility.yul\":826:922   */\n          swap2\n          swap1\n          pop\n          jump\t// out\n            /* \"#utility.yul\":928:1050   */\n        tag_15:\n            /* \"#utility.yul\":1001:1025   */\n          tag_31\n            /* \"#utility.yul\":1019:1024   */\n          dup2\n            /* \"#utility.yul\":1001:1025   */\n          tag_14\n          jump\t// in\n        tag_31:\n            /* \"#utility.yul\":994:999   */\n          dup2\n            /* \"#utility.yul\":991:1026   */\n          eq\n            /* \"#utility.yul\":981:1044   */\n          tag_32\n          jumpi\n            /* \"#utility.yul\":1040:1041   */\n          0x00\n            /* \"#utility.yul\":1037:1038   */\n          dup1\n            /* \"#utility.yul\":1030:1042   */\n          revert\n            /* \"#utility.yul\":981:1044   */\n        tag_32:\n            /* \"#utility.yul\":928:1050   */\n          pop\n          jump\t// out\n            /* \"#utility.yul\":1056:1199   */\n        tag_16:\n            /* \"#utility.yul\":1113:1118   */\n          0x00\n            /* \"#utility.yul\":1144:1150   */\n          dup2\n            /* \"#utility.yul\":1138:1151   */\n          mload\n            /* \"#utility.yul\":1129:1151   */\n          swap1\n          pop\n            /* \"#utility.yul\":1160:1193   */\n          tag_34\n            /* \"#utility.yul\":1187:1192   */\n          dup2\n            /* \"#utility.yul\":1160:1193   */\n          tag_15\n          jump\t// in\n        tag_34:\n            /* \"#utility.yul\":1056:1199   */\n          swap3\n          swap2\n          pop\n          pop\n          jump\t// out\n            /* \"#utility.yul\":1205:1712   */\n        tag_3:\n            /* \"#utility.yul\":1284:1290   */\n          0x00\n            /* \"#utility.yul\":1292:1298   */\n          dup1\n            /* \"#utility.yul\":1341:1343   */\n          0x40\n            /* \"#utility.yul\":1329:1338   */\n          dup4\n            /* \"#utility.yul\":1320:1327   */\n          dup6\n            /* \"#utility.yul\":1316:1339   */\n          sub\n            /* \"#utility.yul\":1312:1344   */\n          slt\n            /* \"#utility.yul\":1309:1428   */\n          iszero\n          tag_36\n          jumpi\n            /* \"#utility.yul\":1347:1426   */\n          tag_37\n          tag_8\n          jump\t// in\n        tag_37:\n            /* \"#utility.yul\":1309:1428   */\n        tag_36:\n            /* \"#utility.yul\":1467:1468   */\n          0x00\n            /* \"#utility.yul\":1492:1556   */\n          tag_38\n            /* \"#utility.yul\":1548:1555   */\n          dup6\n            /* \"#utility.yul\":1539:1545   */\n          dup3\n            /* \"#utility.yul\":1528:1537   */\n          dup7\n            /* \"#utility.yul\":1524:1546   */\n          add\n            /* \"#utility.yul\":1492:1556   */\n          tag_12\n          jump\t// in\n        tag_38:\n            /* \"#utility.yul\":1482:1556   */\n          swap3\n          pop\n            /* \"#utility.yul\":1438:1566   */\n          pop\n            /* \"#utility.yul\":1605:1607   */\n          0x20\n            /* \"#utility.yul\":1631:1695   */\n          tag_39\n            /* \"#utility.yul\":1687:1694   */\n          dup6\n            /* \"#utility.yul\":1678:1684   */\n          dup3\n            /* \"#utility.yul\":1667:1676   */\n          dup7\n            /* \"#utility.yul\":1663:1685   */\n          add\n            /* \"#utility.yul\":1631:1695   */\n          tag_16\n          jump\t// in\n        tag_39:\n            /* \"#utility.yul\":1621:1695   */\n          swap2\n          pop\n            /* \"#utility.yul\":1576:1705   */\n          pop\n            /* \"#utility.yul\":1205:1712   */\n          swap3\n          pop\n          swap3\n          swap1\n          pop\n          jump\t// out\n            /* \"Campaign.sol\":541:2838  contract Campaign{... */\n        tag_6:\n          dataSize(sub_0)\n          dup1\n          dataOffset(sub_0)\n          0x00\n          codecopy\n          0x00\n          return\n        stop\n\n        sub_0: assembly {\n                /* \"Campaign.sol\":541:2838  contract Campaign{... */\n              mstore(0x40, 0x80)\n              jumpi(tag_1, lt(calldatasize, 0x04))\n              shr(0xe0, calldataload(0x00))\n              dup1\n              0x82fde093\n              gt\n              tag_14\n              jumpi\n              dup1\n              0x82fde093\n              eq\n              tag_8\n              jumpi\n              dup1\n              0x8a9cfd55\n              eq\n              tag_9\n              jumpi\n              dup1\n              0xa9e818f5\n              eq\n              tag_10\n              jumpi\n              dup1\n              0xd7bb99ba\n              eq\n              tag_11\n              jumpi\n              dup1\n              0xd7d1bbdb\n              eq\n              tag_12\n              jumpi\n              dup1\n              0xd845a4b3\n              eq\n              tag_13\n              jumpi\n              jump(tag_1)\n            tag_14:\n              dup1\n              0x0a144391\n              eq\n              tag_2\n              jumpi\n              dup1\n              0x3410452a\n              eq\n              tag_3\n              jumpi\n              dup1\n              0x4051ddac\n              eq\n              tag_4\n              jumpi\n              dup1\n              0x481c6a75\n              eq\n              tag_5\n              jumpi\n              dup1\n              0x5badbe4c\n              eq\n              tag_6\n              jumpi\n              dup1\n              0x728d545f\n              eq\n              tag_7\n              jumpi\n            tag_1:\n              0x00\n              dup1\n              revert\n                /* \"Campaign.sol\":816:855  mapping(address=>bool) public approvers */\n            tag_2:\n              callvalue\n              dup1\n              iszero\n              tag_15\n              jumpi\n              0x00\n              dup1\n              revert\n            tag_15:\n              pop\n              tag_16\n              0x04\n              dup1\n              calldatasize\n              sub\n              dup2\n              add\n              swap1\n              tag_17\n              swap2\n              swap1\n              tag_18\n              jump\t// in\n            tag_17:\n              tag_19\n              jump\t// in\n            tag_16:\n              mload(0x40)\n              tag_20\n              swap2\n              swap1\n              tag_21\n              jump\t// in\n            tag_20:\n              mload(0x40)\n              dup1\n              swap2\n              sub\n              swap1\n              return\n                /* \"Campaign.sol\":2625:2718  function getRequestsCount() public view returns (uint) {... */\n            tag_3:\n              callvalue\n              dup1\n              iszero\n              tag_22\n              jumpi\n              0x00\n              dup1\n              revert\n            tag_22:\n              pop\n              tag_23\n              tag_24\n              jump\t// in\n            tag_23:\n              mload(0x40)\n              tag_25\n              swap2\n              swap1\n              tag_26\n              jump\t// in\n            tag_25:\n              mload(0x40)\n              dup1\n              swap2\n              sub\n              swap1\n              return\n                /* \"Campaign.sol\":2356:2616  function getSummary() public view returns (... */\n            tag_4:\n              callvalue\n              dup1\n              iszero\n              tag_27\n              jumpi\n              0x00\n              dup1\n              revert\n            tag_27:\n              pop\n              tag_28\n              tag_29\n              jump\t// in\n            tag_28:\n              mload(0x40)\n              tag_30\n              swap6\n              swap5\n              swap4\n              swap3\n              swap2\n              swap1\n              tag_31\n              jump\t// in\n            tag_30:\n              mload(0x40)\n              dup1\n              swap2\n              sub\n              swap1\n              return\n                /* \"Campaign.sol\":788:810  address public manager */\n            tag_5:\n              callvalue\n              dup1\n              iszero\n              tag_32\n              jumpi\n              0x00\n              dup1\n              revert\n            tag_32:\n              pop\n              tag_33\n              tag_34\n              jump\t// in\n            tag_33:\n              mload(0x40)\n              tag_35\n              swap2\n              swap1\n              tag_36\n              jump\t// in\n            tag_35:\n              mload(0x40)\n              dup1\n              swap2\n              sub\n              swap1\n              return\n                /* \"Campaign.sol\":758:782  uint public requestCount */\n            tag_6:\n              callvalue\n              dup1\n              iszero\n              tag_37\n              jumpi\n              0x00\n              dup1\n              revert\n            tag_37:\n              pop\n              tag_38\n              tag_39\n              jump\t// in\n            tag_38:\n              mload(0x40)\n              tag_40\n              swap2\n              swap1\n              tag_26\n              jump\t// in\n            tag_40:\n              mload(0x40)\n              dup1\n              swap2\n              sub\n              swap1\n              return\n                /* \"Campaign.sol\":893:912  uint public minCont */\n            tag_7:\n              callvalue\n              dup1\n              iszero\n              tag_41\n              jumpi\n              0x00\n              dup1\n              revert\n            tag_41:\n              pop\n              tag_42\n              tag_43\n              jump\t// in\n            tag_42:\n              mload(0x40)\n              tag_44\n              swap2\n              swap1\n              tag_26\n              jump\t// in\n            tag_44:\n              mload(0x40)\n              dup1\n              swap2\n              sub\n              swap1\n              return\n                /* \"Campaign.sol\":861:887  uint public approversCount */\n            tag_8:\n              callvalue\n              dup1\n              iszero\n              tag_45\n              jumpi\n              0x00\n              dup1\n              revert\n            tag_45:\n              pop\n              tag_46\n              tag_47\n              jump\t// in\n            tag_46:\n              mload(0x40)\n              tag_48\n              swap2\n              swap1\n              tag_26\n              jump\t// in\n            tag_48:\n              mload(0x40)\n              dup1\n              swap2\n              sub\n              swap1\n              return\n                /* \"Campaign.sol\":1300:1656  function createRequest(string memory description, uint value, address recipient) public restricted {... */\n            tag_9:\n              callvalue\n              dup1\n              iszero\n              tag_49\n              jumpi\n              0x00\n              dup1\n              revert\n            tag_49:\n              pop\n              tag_50\n              0x04\n              dup1\n              calldatasize\n              sub\n              dup2\n              add\n              swap1\n              tag_51\n              swap2\n              swap1\n              tag_52\n              jump\t// in\n            tag_51:\n              tag_53\n              jump\t// in\n            tag_50:\n              stop\n                /* \"Campaign.sol\":1979:2350  function finilizeRequest(uint index) public restricted{... */\n            tag_10:\n              callvalue\n              dup1\n              iszero\n              tag_54\n              jumpi\n              0x00\n              dup1\n              revert\n            tag_54:\n              pop\n              tag_55\n              0x04\n              dup1\n              calldatasize\n              sub\n              dup2\n              add\n              swap1\n              tag_56\n              swap2\n              swap1\n              tag_57\n              jump\t// in\n            tag_56:\n              tag_58\n              jump\t// in\n            tag_55:\n              stop\n                /* \"Campaign.sol\":1091:1294  function contribute() public payable {... */\n            tag_11:\n              tag_59\n              tag_60\n              jump\t// in\n            tag_59:\n              stop\n                /* \"Campaign.sol\":1662:1973  function approveRequest(uint index) public {... */\n            tag_12:\n              callvalue\n              dup1\n              iszero\n              tag_61\n              jumpi\n              0x00\n              dup1\n              revert\n            tag_61:\n              pop\n              tag_62\n              0x04\n              dup1\n              calldatasize\n              sub\n              dup2\n              add\n              swap1\n              tag_63\n              swap2\n              swap1\n              tag_57\n              jump\t// in\n            tag_63:\n              tag_64\n              jump\t// in\n            tag_62:\n              stop\n                /* \"Campaign.sol\":963:987  Request[] public request */\n            tag_13:\n              callvalue\n              dup1\n              iszero\n              tag_65\n              jumpi\n              0x00\n              dup1\n              revert\n            tag_65:\n              pop\n              tag_66\n              0x04\n              dup1\n              calldatasize\n              sub\n              dup2\n              add\n              swap1\n              tag_67\n              swap2\n              swap1\n              tag_57\n              jump\t// in\n            tag_67:\n              tag_68\n              jump\t// in\n            tag_66:\n              mload(0x40)\n              tag_69\n              swap6\n              swap5\n              swap4\n              swap3\n              swap2\n              swap1\n              tag_70\n              jump\t// in\n            tag_69:\n              mload(0x40)\n              dup1\n              swap2\n              sub\n              swap1\n              return\n                /* \"Campaign.sol\":816:855  mapping(address=>bool) public approvers */\n            tag_19:\n              mstore(0x20, 0x02)\n              dup1\n              0x00\n              mstore\n              keccak256(0x00, 0x40)\n              0x00\n              swap2\n              pop\n              sload\n              swap1\n              0x0100\n              exp\n              swap1\n              div\n              0xff\n              and\n              dup2\n              jump\t// out\n                /* \"Campaign.sol\":2625:2718  function getRequestsCount() public view returns (uint) {... */\n            tag_24:\n                /* \"Campaign.sol\":2674:2678  uint */\n              0x00\n                /* \"Campaign.sol\":2697:2704  request */\n              0x05\n                /* \"Campaign.sol\":2697:2711  request.length */\n              dup1\n              sload\n              swap1\n              pop\n                /* \"Campaign.sol\":2690:2711  return request.length */\n              swap1\n              pop\n                /* \"Campaign.sol\":2625:2718  function getRequestsCount() public view returns (uint) {... */\n              swap1\n              jump\t// out\n                /* \"Campaign.sol\":2356:2616  function getSummary() public view returns (... */\n            tag_29:\n                /* \"Campaign.sol\":2408:2412  uint */\n              0x00\n                /* \"Campaign.sol\":2414:2418  uint */\n              dup1\n                /* \"Campaign.sol\":2420:2424  uint */\n              0x00\n                /* \"Campaign.sol\":2426:2430  uint */\n              dup1\n                /* \"Campaign.sol\":2432:2439  address */\n              0x00\n                /* \"Campaign.sol\":2476:2483  minCont */\n              sload(0x04)\n                /* \"Campaign.sol\":2497:2518  address(this).balance */\n              selfbalance\n                /* \"Campaign.sol\":2532:2539  request */\n              0x05\n                /* \"Campaign.sol\":2532:2546  request.length */\n              dup1\n              sload\n              swap1\n              pop\n                /* \"Campaign.sol\":2560:2574  approversCount */\n              sload(0x03)\n                /* \"Campaign.sol\":2588:2595  manager */\n              0x01\n              0x00\n              swap1\n              sload\n              swap1\n              0x0100\n              exp\n              swap1\n              div\n              0xffffffffffffffffffffffffffffffffffffffff\n              and\n                /* \"Campaign.sol\":2455:2609  return (... */\n              swap5\n              pop\n              swap5\n              pop\n              swap5\n              pop\n              swap5\n              pop\n              swap5\n              pop\n                /* \"Campaign.sol\":2356:2616  function getSummary() public view returns (... */\n              swap1\n              swap2\n              swap3\n              swap4\n              swap5\n              jump\t// out\n                /* \"Campaign.sol\":788:810  address public manager */\n            tag_34:\n              0x01\n              0x00\n              swap1\n              sload\n              swap1\n              0x0100\n              exp\n              swap1\n              div\n              0xffffffffffffffffffffffffffffffffffffffff\n              and\n              dup2\n              jump\t// out\n                /* \"Campaign.sol\":758:782  uint public requestCount */\n            tag_39:\n              sload(0x00)\n              dup2\n              jump\t// out\n                /* \"Campaign.sol\":893:912  uint public minCont */\n            tag_43:\n              sload(0x04)\n              dup2\n              jump\t// out\n                /* \"Campaign.sol\":861:887  uint public approversCount */\n            tag_47:\n              sload(0x03)\n              dup2\n              jump\t// out\n                /* \"Campaign.sol\":1300:1656  function createRequest(string memory description, uint value, address recipient) public restricted {... */\n            tag_53:\n                /* \"Campaign.sol\":2773:2780  manager */\n              0x01\n              0x00\n              swap1\n              sload\n              swap1\n              0x0100\n              exp\n              swap1\n              div\n              0xffffffffffffffffffffffffffffffffffffffff\n              and\n                /* \"Campaign.sol\":2761:2780  msg.sender==manager */\n              0xffffffffffffffffffffffffffffffffffffffff\n              and\n                /* \"Campaign.sol\":2761:2771  msg.sender */\n              caller\n                /* \"Campaign.sol\":2761:2780  msg.sender==manager */\n              0xffffffffffffffffffffffffffffffffffffffff\n              and\n              eq\n                /* \"Campaign.sol\":2753:2818  require(msg.sender==manager, \"Only manager can call this option\") */\n              tag_74\n              jumpi\n              mload(0x40)\n              0x08c379a000000000000000000000000000000000000000000000000000000000\n              dup2\n              mstore\n              0x04\n              add\n              tag_75\n              swap1\n              tag_76\n              jump\t// in\n            tag_75:\n              mload(0x40)\n              dup1\n              swap2\n              sub\n              swap1\n              revert\n            tag_74:\n                /* \"Campaign.sol\":1409:1435  Request storage newRequest */\n              0x00\n                /* \"Campaign.sol\":1438:1445  request */\n              0x05\n                /* \"Campaign.sol\":1438:1452  request.push() */\n              0x01\n              dup2\n              0x01\n              dup2\n              sload\n              add\n              dup1\n              dup3\n              sstore\n              dup1\n              swap2\n              pop\n              pop\n              sub\n              swap1\n              0x00\n              mstore\n              keccak256(0x00, 0x20)\n              swap1\n              0x05\n              mul\n              add\n                /* \"Campaign.sol\":1409:1452  Request storage newRequest = request.push() */\n              swap1\n              pop\n                /* \"Campaign.sol\":1487:1498  description */\n              dup4\n                /* \"Campaign.sol\":1462:1472  newRequest */\n              dup2\n                /* \"Campaign.sol\":1462:1484  newRequest.description */\n              0x00\n              add\n                /* \"Campaign.sol\":1462:1498  newRequest.description = description */\n              swap1\n              dup1\n              mload\n              swap1\n              0x20\n              add\n              swap1\n              tag_79\n              swap3\n              swap2\n              swap1\n              tag_80\n              jump\t// in\n            tag_79:\n              pop\n                /* \"Campaign.sol\":1527:1532  value */\n              dup3\n                /* \"Campaign.sol\":1508:1518  newRequest */\n              dup2\n                /* \"Campaign.sol\":1508:1524  newRequest.value */\n              0x01\n              add\n                /* \"Campaign.sol\":1508:1532  newRequest.value = value */\n              dup2\n              swap1\n              sstore\n              pop\n                /* \"Campaign.sol\":1565:1574  recipient */\n              dup2\n                /* \"Campaign.sol\":1542:1552  newRequest */\n              dup2\n                /* \"Campaign.sol\":1542:1562  newRequest.recipient */\n              0x02\n              add\n              0x00\n                /* \"Campaign.sol\":1542:1574  newRequest.recipient = recipient */\n              0x0100\n              exp\n              dup2\n              sload\n              dup2\n              0xffffffffffffffffffffffffffffffffffffffff\n              mul\n              not\n              and\n              swap1\n              dup4\n              0xffffffffffffffffffffffffffffffffffffffff\n              and\n              mul\n              or\n              swap1\n              sstore\n              pop\n                /* \"Campaign.sol\":1606:1611  false */\n              0x00\n                /* \"Campaign.sol\":1584:1594  newRequest */\n              dup2\n                /* \"Campaign.sol\":1584:1603  newRequest.complete */\n              0x02\n              add\n              0x14\n                /* \"Campaign.sol\":1584:1611  newRequest.complete = false */\n              0x0100\n              exp\n              dup2\n              sload\n              dup2\n              0xff\n              mul\n              not\n              and\n              swap1\n              dup4\n              iszero\n              iszero\n              mul\n              or\n              swap1\n              sstore\n              pop\n                /* \"Campaign.sol\":1648:1649  0 */\n              0x00\n                /* \"Campaign.sol\":1621:1631  newRequest */\n              dup2\n                /* \"Campaign.sol\":1621:1645  newRequest.approvalCount */\n              0x03\n              add\n                /* \"Campaign.sol\":1621:1649  newRequest.approvalCount = 0 */\n              dup2\n              swap1\n              sstore\n              pop\n                /* \"Campaign.sol\":1399:1656  {... */\n              pop\n                /* \"Campaign.sol\":1300:1656  function createRequest(string memory description, uint value, address recipient) public restricted {... */\n              pop\n              pop\n              pop\n              jump\t// out\n                /* \"Campaign.sol\":1979:2350  function finilizeRequest(uint index) public restricted{... */\n            tag_58:\n                /* \"Campaign.sol\":2773:2780  manager */\n              0x01\n              0x00\n              swap1\n              sload\n              swap1\n              0x0100\n              exp\n              swap1\n              div\n              0xffffffffffffffffffffffffffffffffffffffff\n              and\n                /* \"Campaign.sol\":2761:2780  msg.sender==manager */\n              0xffffffffffffffffffffffffffffffffffffffff\n              and\n                /* \"Campaign.sol\":2761:2771  msg.sender */\n              caller\n                /* \"Campaign.sol\":2761:2780  msg.sender==manager */\n              0xffffffffffffffffffffffffffffffffffffffff\n              and\n              eq\n                /* \"Campaign.sol\":2753:2818  require(msg.sender==manager, \"Only manager can call this option\") */\n              tag_82\n              jumpi\n              mload(0x40)\n              0x08c379a000000000000000000000000000000000000000000000000000000000\n              dup2\n              mstore\n              0x04\n              add\n              tag_83\n              swap1\n              tag_76\n              jump\t// in\n            tag_83:\n              mload(0x40)\n              dup1\n              swap2\n              sub\n              swap1\n              revert\n            tag_82:\n                /* \"Campaign.sol\":2076:2081  false */\n              0x00\n                /* \"Campaign.sol\":2051:2081  request[index].complete==false */\n              iszero\n              iszero\n                /* \"Campaign.sol\":2051:2058  request */\n              0x05\n                /* \"Campaign.sol\":2059:2064  index */\n              dup3\n                /* \"Campaign.sol\":2051:2065  request[index] */\n              dup2\n              sload\n              dup2\n              lt\n              tag_85\n              jumpi\n              tag_86\n              tag_87\n              jump\t// in\n            tag_86:\n            tag_85:\n              swap1\n              0x00\n              mstore\n              keccak256(0x00, 0x20)\n              swap1\n              0x05\n              mul\n              add\n                /* \"Campaign.sol\":2051:2074  request[index].complete */\n              0x02\n              add\n              0x14\n              swap1\n              sload\n              swap1\n              0x0100\n              exp\n              swap1\n              div\n              0xff\n              and\n                /* \"Campaign.sol\":2051:2081  request[index].complete==false */\n              iszero\n              iszero\n              eq\n                /* \"Campaign.sol\":2043:2120  require(request[index].complete==false, \"Request has already been finalised\") */\n              tag_89\n              jumpi\n              mload(0x40)\n              0x08c379a000000000000000000000000000000000000000000000000000000000\n              dup2\n              mstore\n              0x04\n              add\n              tag_90\n              swap1\n              tag_91\n              jump\t// in\n            tag_90:\n              mload(0x40)\n              dup1\n              swap2\n              sub\n              swap1\n              revert\n            tag_89:\n                /* \"Campaign.sol\":2182:2183  2 */\n              0x02\n                /* \"Campaign.sol\":2167:2181  approversCount */\n              sload(0x03)\n                /* \"Campaign.sol\":2167:2183  approversCount/2 */\n              tag_92\n              swap2\n              swap1\n              tag_93\n              jump\t// in\n            tag_92:\n                /* \"Campaign.sol\":2138:2145  request */\n              0x05\n                /* \"Campaign.sol\":2146:2151  index */\n              dup3\n                /* \"Campaign.sol\":2138:2152  request[index] */\n              dup2\n              sload\n              dup2\n              lt\n              tag_94\n              jumpi\n              tag_95\n              tag_87\n              jump\t// in\n            tag_95:\n            tag_94:\n              swap1\n              0x00\n              mstore\n              keccak256(0x00, 0x20)\n              swap1\n              0x05\n              mul\n              add\n                /* \"Campaign.sol\":2138:2166  request[index].approvalCount */\n              0x03\n              add\n              sload\n                /* \"Campaign.sol\":2138:2183  request[index].approvalCount>approversCount/2 */\n              gt\n                /* \"Campaign.sol\":2130:2228  require(request[index].approvalCount>approversCount/2, \"Request has not met numbers of approvers\") */\n              tag_97\n              jumpi\n              mload(0x40)\n              0x08c379a000000000000000000000000000000000000000000000000000000000\n              dup2\n              mstore\n              0x04\n              add\n              tag_98\n              swap1\n              tag_99\n              jump\t// in\n            tag_98:\n              mload(0x40)\n              dup1\n              swap2\n              sub\n              swap1\n              revert\n            tag_97:\n                /* \"Campaign.sol\":2247:2254  request */\n              0x05\n                /* \"Campaign.sol\":2255:2260  index */\n              dup2\n                /* \"Campaign.sol\":2247:2261  request[index] */\n              dup2\n              sload\n              dup2\n              lt\n              tag_100\n              jumpi\n              tag_101\n              tag_87\n              jump\t// in\n            tag_101:\n            tag_100:\n              swap1\n              0x00\n              mstore\n              keccak256(0x00, 0x20)\n              swap1\n              0x05\n              mul\n              add\n                /* \"Campaign.sol\":2247:2271  request[index].recipient */\n              0x02\n              add\n              0x00\n              swap1\n              sload\n              swap1\n              0x0100\n              exp\n              swap1\n              div\n              0xffffffffffffffffffffffffffffffffffffffff\n              and\n                /* \"Campaign.sol\":2238:2281  payable (request[index].recipient).transfer */\n              0xffffffffffffffffffffffffffffffffffffffff\n              and\n                /* \"Campaign.sol\":2238:2303  payable (request[index].recipient).transfer(request[index].value) */\n              0x08fc\n                /* \"Campaign.sol\":2282:2289  request */\n              0x05\n                /* \"Campaign.sol\":2290:2295  index */\n              dup4\n                /* \"Campaign.sol\":2282:2296  request[index] */\n              dup2\n              sload\n              dup2\n              lt\n              tag_103\n              jumpi\n              tag_104\n              tag_87\n              jump\t// in\n            tag_104:\n            tag_103:\n              swap1\n              0x00\n              mstore\n              keccak256(0x00, 0x20)\n              swap1\n              0x05\n              mul\n              add\n                /* \"Campaign.sol\":2282:2302  request[index].value */\n              0x01\n              add\n              sload\n                /* \"Campaign.sol\":2238:2303  payable (request[index].recipient).transfer(request[index].value) */\n              swap1\n              dup2\n              iszero\n              mul\n              swap1\n              mload(0x40)\n              0x00\n              mload(0x40)\n              dup1\n              dup4\n              sub\n              dup2\n              dup6\n              dup9\n              dup9\n              call\n              swap4\n              pop\n              pop\n              pop\n              pop\n              iszero\n              dup1\n              iszero\n              tag_107\n              jumpi\n              returndatasize\n              0x00\n              dup1\n              returndatacopy\n              revert(0x00, returndatasize)\n            tag_107:\n              pop\n                /* \"Campaign.sol\":2339:2343  true */\n              0x01\n                /* \"Campaign.sol\":2313:2320  request */\n              0x05\n                /* \"Campaign.sol\":2321:2326  index */\n              dup3\n                /* \"Campaign.sol\":2313:2327  request[index] */\n              dup2\n              sload\n              dup2\n              lt\n              tag_108\n              jumpi\n              tag_109\n              tag_87\n              jump\t// in\n            tag_109:\n            tag_108:\n              swap1\n              0x00\n              mstore\n              keccak256(0x00, 0x20)\n              swap1\n              0x05\n              mul\n              add\n                /* \"Campaign.sol\":2313:2336  request[index].complete */\n              0x02\n              add\n              0x14\n                /* \"Campaign.sol\":2313:2343  request[index].complete = true */\n              0x0100\n              exp\n              dup2\n              sload\n              dup2\n              0xff\n              mul\n              not\n              and\n              swap1\n              dup4\n              iszero\n              iszero\n              mul\n              or\n              swap1\n              sstore\n              pop\n                /* \"Campaign.sol\":1979:2350  function finilizeRequest(uint index) public restricted{... */\n              pop\n              jump\t// out\n                /* \"Campaign.sol\":1091:1294  function contribute() public payable {... */\n            tag_60:\n                /* \"Campaign.sol\":1156:1163  minCont */\n              sload(0x04)\n                /* \"Campaign.sol\":1146:1155  msg.value */\n              callvalue\n                /* \"Campaign.sol\":1146:1163  msg.value>minCont */\n              gt\n                /* \"Campaign.sol\":1138:1225  require(msg.value>minCont, \"Contribution amount should be greater than minimum amount\") */\n              tag_112\n              jumpi\n              mload(0x40)\n              0x08c379a000000000000000000000000000000000000000000000000000000000\n              dup2\n              mstore\n              0x04\n              add\n              tag_113\n              swap1\n              tag_114\n              jump\t// in\n            tag_113:\n              mload(0x40)\n              dup1\n              swap2\n              sub\n              swap1\n              revert\n            tag_112:\n                /* \"Campaign.sol\":1235:1249  approversCount */\n              0x03\n              0x00\n                /* \"Campaign.sol\":1235:1251  approversCount++ */\n              dup2\n              sload\n              dup1\n              swap3\n              swap2\n              swap1\n              tag_115\n              swap1\n              tag_116\n              jump\t// in\n            tag_115:\n              swap2\n              swap1\n              pop\n              sstore\n              pop\n                /* \"Campaign.sol\":1283:1287  true */\n              0x01\n                /* \"Campaign.sol\":1261:1270  approvers */\n              0x02\n                /* \"Campaign.sol\":1261:1282  approvers[msg.sender] */\n              0x00\n                /* \"Campaign.sol\":1271:1281  msg.sender */\n              caller\n                /* \"Campaign.sol\":1261:1282  approvers[msg.sender] */\n              0xffffffffffffffffffffffffffffffffffffffff\n              and\n              0xffffffffffffffffffffffffffffffffffffffff\n              and\n              dup2\n              mstore\n              0x20\n              add\n              swap1\n              dup2\n              mstore\n              0x20\n              add\n              0x00\n              keccak256\n              0x00\n                /* \"Campaign.sol\":1261:1287  approvers[msg.sender]=true */\n              0x0100\n              exp\n              dup2\n              sload\n              dup2\n              0xff\n              mul\n              not\n              and\n              swap1\n              dup4\n              iszero\n              iszero\n              mul\n              or\n              swap1\n              sstore\n              pop\n                /* \"Campaign.sol\":1091:1294  function contribute() public payable {... */\n              jump\t// out\n                /* \"Campaign.sol\":1662:1973  function approveRequest(uint index) public {... */\n            tag_64:\n                /* \"Campaign.sol\":1723:1732  approvers */\n              0x02\n                /* \"Campaign.sol\":1723:1744  approvers[msg.sender] */\n              0x00\n                /* \"Campaign.sol\":1733:1743  msg.sender */\n              caller\n                /* \"Campaign.sol\":1723:1744  approvers[msg.sender] */\n              0xffffffffffffffffffffffffffffffffffffffff\n              and\n              0xffffffffffffffffffffffffffffffffffffffff\n              and\n              dup2\n              mstore\n              0x20\n              add\n              swap1\n              dup2\n              mstore\n              0x20\n              add\n              0x00\n              keccak256\n              0x00\n              swap1\n              sload\n              swap1\n              0x0100\n              exp\n              swap1\n              div\n              0xff\n              and\n                /* \"Campaign.sol\":1715:1773  require(approvers[msg.sender],\"You are not a contributer\") */\n              tag_118\n              jumpi\n              mload(0x40)\n              0x08c379a000000000000000000000000000000000000000000000000000000000\n              dup2\n              mstore\n              0x04\n              add\n              tag_119\n              swap1\n              tag_120\n              jump\t// in\n            tag_119:\n              mload(0x40)\n              dup1\n              swap2\n              sub\n              swap1\n              revert\n            tag_118:\n                /* \"Campaign.sol\":1828:1833  false */\n              0x00\n                /* \"Campaign.sol\":1791:1833  request[index].approval[msg.sender]==false */\n              iszero\n              iszero\n                /* \"Campaign.sol\":1791:1798  request */\n              0x05\n                /* \"Campaign.sol\":1799:1804  index */\n              dup3\n                /* \"Campaign.sol\":1791:1805  request[index] */\n              dup2\n              sload\n              dup2\n              lt\n              tag_121\n              jumpi\n              tag_122\n              tag_87\n              jump\t// in\n            tag_122:\n            tag_121:\n              swap1\n              0x00\n              mstore\n              keccak256(0x00, 0x20)\n              swap1\n              0x05\n              mul\n              add\n                /* \"Campaign.sol\":1791:1814  request[index].approval */\n              0x04\n              add\n                /* \"Campaign.sol\":1791:1826  request[index].approval[msg.sender] */\n              0x00\n                /* \"Campaign.sol\":1815:1825  msg.sender */\n              caller\n                /* \"Campaign.sol\":1791:1826  request[index].approval[msg.sender] */\n              0xffffffffffffffffffffffffffffffffffffffff\n              and\n              0xffffffffffffffffffffffffffffffffffffffff\n              and\n              dup2\n              mstore\n              0x20\n              add\n              swap1\n              dup2\n              mstore\n              0x20\n              add\n              0x00\n              keccak256\n              0x00\n              swap1\n              sload\n              swap1\n              0x0100\n              exp\n              swap1\n              div\n              0xff\n              and\n                /* \"Campaign.sol\":1791:1833  request[index].approval[msg.sender]==false */\n              iszero\n              iszero\n              eq\n                /* \"Campaign.sol\":1783:1876  require(request[index].approval[msg.sender]==false, \"You have already approved this request\") */\n              tag_124\n              jumpi\n              mload(0x40)\n              0x08c379a000000000000000000000000000000000000000000000000000000000\n              dup2\n              mstore\n              0x04\n              add\n              tag_125\n              swap1\n              tag_126\n              jump\t// in\n            tag_125:\n              mload(0x40)\n              dup1\n              swap2\n              sub\n              swap1\n              revert\n            tag_124:\n                /* \"Campaign.sol\":1886:1893  request */\n              0x05\n                /* \"Campaign.sol\":1894:1899  index */\n              dup2\n                /* \"Campaign.sol\":1886:1900  request[index] */\n              dup2\n              sload\n              dup2\n              lt\n              tag_127\n              jumpi\n              tag_128\n              tag_87\n              jump\t// in\n            tag_128:\n            tag_127:\n              swap1\n              0x00\n              mstore\n              keccak256(0x00, 0x20)\n              swap1\n              0x05\n              mul\n              add\n                /* \"Campaign.sol\":1886:1914  request[index].approvalCount */\n              0x03\n              add\n              0x00\n                /* \"Campaign.sol\":1886:1916  request[index].approvalCount++ */\n              dup2\n              sload\n              dup1\n              swap3\n              swap2\n              swap1\n              tag_130\n              swap1\n              tag_116\n              jump\t// in\n            tag_130:\n              swap2\n              swap1\n              pop\n              sstore\n              pop\n                /* \"Campaign.sol\":1962:1966  true */\n              0x01\n                /* \"Campaign.sol\":1926:1933  request */\n              0x05\n                /* \"Campaign.sol\":1934:1939  index */\n              dup3\n                /* \"Campaign.sol\":1926:1940  request[index] */\n              dup2\n              sload\n              dup2\n              lt\n              tag_131\n              jumpi\n              tag_132\n              tag_87\n              jump\t// in\n            tag_132:\n            tag_131:\n              swap1\n              0x00\n              mstore\n              keccak256(0x00, 0x20)\n              swap1\n              0x05\n              mul\n              add\n                /* \"Campaign.sol\":1926:1949  request[index].approval */\n              0x04\n              add\n                /* \"Campaign.sol\":1926:1961  request[index].approval[msg.sender] */\n              0x00\n                /* \"Campaign.sol\":1950:1960  msg.sender */\n              caller\n                /* \"Campaign.sol\":1926:1961  request[index].approval[msg.sender] */\n              0xffffffffffffffffffffffffffffffffffffffff\n              and\n              0xffffffffffffffffffffffffffffffffffffffff\n              and\n              dup2\n              mstore\n              0x20\n              add\n              swap1\n              dup2\n              mstore\n              0x20\n              add\n              0x00\n              keccak256\n              0x00\n                /* \"Campaign.sol\":1926:1966  request[index].approval[msg.sender]=true */\n              0x0100\n              exp\n              dup2\n              sload\n              dup2\n              0xff\n              mul\n              not\n              and\n              swap1\n              dup4\n              iszero\n              iszero\n              mul\n              or\n              swap1\n              sstore\n              pop\n                /* \"Campaign.sol\":1662:1973  function approveRequest(uint index) public {... */\n              pop\n              jump\t// out\n                /* \"Campaign.sol\":963:987  Request[] public request */\n            tag_68:\n              0x05\n              dup2\n              dup2\n              sload\n              dup2\n              lt\n              tag_134\n              jumpi\n              0x00\n              dup1\n              revert\n            tag_134:\n              swap1\n              0x00\n              mstore\n              keccak256(0x00, 0x20)\n              swap1\n              0x05\n              mul\n              add\n              0x00\n              swap2\n              pop\n              swap1\n              pop\n              dup1\n              0x00\n              add\n              dup1\n              sload\n              tag_136\n              swap1\n              tag_137\n              jump\t// in\n            tag_136:\n              dup1\n              0x1f\n              add\n              0x20\n              dup1\n              swap2\n              div\n              mul\n              0x20\n              add\n              mload(0x40)\n              swap1\n              dup2\n              add\n              0x40\n              mstore\n              dup1\n              swap3\n              swap2\n              swap1\n              dup2\n              dup2\n              mstore\n              0x20\n              add\n              dup3\n              dup1\n              sload\n              tag_138\n              swap1\n              tag_137\n              jump\t// in\n            tag_138:\n              dup1\n              iszero\n              tag_139\n              jumpi\n              dup1\n              0x1f\n              lt\n              tag_140\n              jumpi\n              0x0100\n              dup1\n              dup4\n              sload\n              div\n              mul\n              dup4\n              mstore\n              swap2\n              0x20\n              add\n              swap2\n              jump(tag_139)\n            tag_140:\n              dup3\n              add\n              swap2\n              swap1\n              0x00\n              mstore\n              keccak256(0x00, 0x20)\n              swap1\n            tag_141:\n              dup2\n              sload\n              dup2\n              mstore\n              swap1\n              0x01\n              add\n              swap1\n              0x20\n              add\n              dup1\n              dup4\n              gt\n              tag_141\n              jumpi\n              dup3\n              swap1\n              sub\n              0x1f\n              and\n              dup3\n              add\n              swap2\n            tag_139:\n              pop\n              pop\n              pop\n              pop\n              pop\n              swap1\n              dup1\n              0x01\n              add\n              sload\n              swap1\n              dup1\n              0x02\n              add\n              0x00\n              swap1\n              sload\n              swap1\n              0x0100\n              exp\n              swap1\n              div\n              0xffffffffffffffffffffffffffffffffffffffff\n              and\n              swap1\n              dup1\n              0x02\n              add\n              0x14\n              swap1\n              sload\n              swap1\n              0x0100\n              exp\n              swap1\n              div\n              0xff\n              and\n              swap1\n              dup1\n              0x03\n              add\n              sload\n              swap1\n              pop\n              dup6\n              jump\t// out\n            tag_80:\n              dup3\n              dup1\n              sload\n              tag_142\n              swap1\n              tag_137\n              jump\t// in\n            tag_142:\n              swap1\n              0x00\n              mstore\n              keccak256(0x00, 0x20)\n              swap1\n              0x1f\n              add\n              0x20\n              swap1\n              div\n              dup2\n              add\n              swap3\n              dup3\n              tag_144\n              jumpi\n              0x00\n              dup6\n              sstore\n              jump(tag_143)\n            tag_144:\n              dup3\n              0x1f\n              lt\n              tag_145\n              jumpi\n              dup1\n              mload\n              not(0xff)\n              and\n              dup4\n              dup1\n              add\n              or\n              dup6\n              sstore\n              jump(tag_143)\n            tag_145:\n              dup3\n              dup1\n              add\n              0x01\n              add\n              dup6\n              sstore\n              dup3\n              iszero\n              tag_143\n              jumpi\n              swap2\n              dup3\n              add\n            tag_146:\n              dup3\n              dup2\n              gt\n              iszero\n              tag_147\n              jumpi\n              dup3\n              mload\n              dup3\n              sstore\n              swap2\n              0x20\n              add\n              swap2\n              swap1\n              0x01\n              add\n              swap1\n              jump(tag_146)\n            tag_147:\n            tag_143:\n              pop\n              swap1\n              pop\n              tag_148\n              swap2\n              swap1\n              tag_149\n              jump\t// in\n            tag_148:\n              pop\n              swap1\n              jump\t// out\n            tag_149:\n            tag_150:\n              dup1\n              dup3\n              gt\n              iszero\n              tag_151\n              jumpi\n              0x00\n              dup2\n              0x00\n              swap1\n              sstore\n              pop\n              0x01\n              add\n              jump(tag_150)\n            tag_151:\n              pop\n              swap1\n              jump\t// out\n                /* \"#utility.yul\":7:82   */\n            tag_152:\n                /* \"#utility.yul\":40:46   */\n              0x00\n                /* \"#utility.yul\":73:75   */\n              0x40\n                /* \"#utility.yul\":67:76   */\n              mload\n                /* \"#utility.yul\":57:76   */\n              swap1\n              pop\n                /* \"#utility.yul\":7:82   */\n              swap1\n              jump\t// out\n                /* \"#utility.yul\":88:205   */\n            tag_153:\n                /* \"#utility.yul\":197:198   */\n              0x00\n                /* \"#utility.yul\":194:195   */\n              dup1\n                /* \"#utility.yul\":187:199   */\n              revert\n                /* \"#utility.yul\":211:328   */\n            tag_154:\n                /* \"#utility.yul\":320:321   */\n              0x00\n                /* \"#utility.yul\":317:318   */\n              dup1\n                /* \"#utility.yul\":310:322   */\n              revert\n                /* \"#utility.yul\":334:460   */\n            tag_155:\n                /* \"#utility.yul\":371:378   */\n              0x00\n                /* \"#utility.yul\":411:453   */\n              0xffffffffffffffffffffffffffffffffffffffff\n                /* \"#utility.yul\":404:409   */\n              dup3\n                /* \"#utility.yul\":400:454   */\n              and\n                /* \"#utility.yul\":389:454   */\n              swap1\n              pop\n                /* \"#utility.yul\":334:460   */\n              swap2\n              swap1\n              pop\n              jump\t// out\n                /* \"#utility.yul\":466:562   */\n            tag_156:\n                /* \"#utility.yul\":503:510   */\n              0x00\n                /* \"#utility.yul\":532:556   */\n              tag_201\n                /* \"#utility.yul\":550:555   */\n              dup3\n                /* \"#utility.yul\":532:556   */\n              tag_155\n              jump\t// in\n            tag_201:\n                /* \"#utility.yul\":521:556   */\n              swap1\n              pop\n                /* \"#utility.yul\":466:562   */\n              swap2\n              swap1\n              pop\n              jump\t// out\n                /* \"#utility.yul\":568:690   */\n            tag_157:\n                /* \"#utility.yul\":641:665   */\n              tag_203\n                /* \"#utility.yul\":659:664   */\n              dup2\n                /* \"#utility.yul\":641:665   */\n              tag_156\n              jump\t// in\n            tag_203:\n                /* \"#utility.yul\":634:639   */\n              dup2\n                /* \"#utility.yul\":631:666   */\n              eq\n                /* \"#utility.yul\":621:684   */\n              tag_204\n              jumpi\n                /* \"#utility.yul\":680:681   */\n              0x00\n                /* \"#utility.yul\":677:678   */\n              dup1\n                /* \"#utility.yul\":670:682   */\n              revert\n                /* \"#utility.yul\":621:684   */\n            tag_204:\n                /* \"#utility.yul\":568:690   */\n              pop\n              jump\t// out\n                /* \"#utility.yul\":696:835   */\n            tag_158:\n                /* \"#utility.yul\":742:747   */\n              0x00\n                /* \"#utility.yul\":780:786   */\n              dup2\n                /* \"#utility.yul\":767:787   */\n              calldataload\n                /* \"#utility.yul\":758:787   */\n              swap1\n              pop\n                /* \"#utility.yul\":796:829   */\n              tag_206\n                /* \"#utility.yul\":823:828   */\n              dup2\n                /* \"#utility.yul\":796:829   */\n              tag_157\n              jump\t// in\n            tag_206:\n                /* \"#utility.yul\":696:835   */\n              swap3\n              swap2\n              pop\n              pop\n              jump\t// out\n                /* \"#utility.yul\":841:1170   */\n            tag_18:\n                /* \"#utility.yul\":900:906   */\n              0x00\n                /* \"#utility.yul\":949:951   */\n              0x20\n                /* \"#utility.yul\":937:946   */\n              dup3\n                /* \"#utility.yul\":928:935   */\n              dup5\n                /* \"#utility.yul\":924:947   */\n              sub\n                /* \"#utility.yul\":920:952   */\n              slt\n                /* \"#utility.yul\":917:1036   */\n              iszero\n              tag_208\n              jumpi\n                /* \"#utility.yul\":955:1034   */\n              tag_209\n              tag_153\n              jump\t// in\n            tag_209:\n                /* \"#utility.yul\":917:1036   */\n            tag_208:\n                /* \"#utility.yul\":1075:1076   */\n              0x00\n                /* \"#utility.yul\":1100:1153   */\n              tag_210\n                /* \"#utility.yul\":1145:1152   */\n              dup5\n                /* \"#utility.yul\":1136:1142   */\n              dup3\n                /* \"#utility.yul\":1125:1134   */\n              dup6\n                /* \"#utility.yul\":1121:1143   */\n              add\n                /* \"#utility.yul\":1100:1153   */\n              tag_158\n              jump\t// in\n            tag_210:\n                /* \"#utility.yul\":1090:1153   */\n              swap2\n              pop\n                /* \"#utility.yul\":1046:1163   */\n              pop\n                /* \"#utility.yul\":841:1170   */\n              swap3\n              swap2\n              pop\n              pop\n              jump\t// out\n                /* \"#utility.yul\":1176:1266   */\n            tag_159:\n                /* \"#utility.yul\":1210:1217   */\n              0x00\n                /* \"#utility.yul\":1253:1258   */\n              dup2\n                /* \"#utility.yul\":1246:1259   */\n              iszero\n                /* \"#utility.yul\":1239:1260   */\n              iszero\n                /* \"#utility.yul\":1228:1260   */\n              swap1\n              pop\n                /* \"#utility.yul\":1176:1266   */\n              swap2\n              swap1\n              pop\n              jump\t// out\n                /* \"#utility.yul\":1272:1381   */\n            tag_160:\n                /* \"#utility.yul\":1353:1374   */\n              tag_213\n                /* \"#utility.yul\":1368:1373   */\n              dup2\n                /* \"#utility.yul\":1353:1374   */\n              tag_159\n              jump\t// in\n            tag_213:\n                /* \"#utility.yul\":1348:1351   */\n              dup3\n                /* \"#utility.yul\":1341:1375   */\n              mstore\n                /* \"#utility.yul\":1272:1381   */\n              pop\n              pop\n              jump\t// out\n                /* \"#utility.yul\":1387:1597   */\n            tag_21:\n                /* \"#utility.yul\":1474:1478   */\n              0x00\n                /* \"#utility.yul\":1512:1514   */\n              0x20\n                /* \"#utility.yul\":1501:1510   */\n              dup3\n                /* \"#utility.yul\":1497:1515   */\n              add\n                /* \"#utility.yul\":1489:1515   */\n              swap1\n              pop\n                /* \"#utility.yul\":1525:1590   */\n              tag_215\n                /* \"#utility.yul\":1587:1588   */\n              0x00\n                /* \"#utility.yul\":1576:1585   */\n              dup4\n                /* \"#utility.yul\":1572:1589   */\n              add\n                /* \"#utility.yul\":1563:1569   */\n              dup5\n                /* \"#utility.yul\":1525:1590   */\n              tag_160\n              jump\t// in\n            tag_215:\n                /* \"#utility.yul\":1387:1597   */\n              swap3\n              swap2\n              pop\n              pop\n              jump\t// out\n                /* \"#utility.yul\":1603:1680   */\n            tag_161:\n                /* \"#utility.yul\":1640:1647   */\n              0x00\n                /* \"#utility.yul\":1669:1674   */\n              dup2\n                /* \"#utility.yul\":1658:1674   */\n              swap1\n              pop\n                /* \"#utility.yul\":1603:1680   */\n              swap2\n              swap1\n              pop\n              jump\t// out\n                /* \"#utility.yul\":1686:1804   */\n            tag_162:\n                /* \"#utility.yul\":1773:1797   */\n              tag_218\n                /* \"#utility.yul\":1791:1796   */\n              dup2\n                /* \"#utility.yul\":1773:1797   */\n              tag_161\n              jump\t// in\n            tag_218:\n                /* \"#utility.yul\":1768:1771   */\n              dup3\n                /* \"#utility.yul\":1761:1798   */\n              mstore\n                /* \"#utility.yul\":1686:1804   */\n              pop\n              pop\n              jump\t// out\n                /* \"#utility.yul\":1810:2032   */\n            tag_26:\n                /* \"#utility.yul\":1903:1907   */\n              0x00\n                /* \"#utility.yul\":1941:1943   */\n              0x20\n                /* \"#utility.yul\":1930:1939   */\n              dup3\n                /* \"#utility.yul\":1926:1944   */\n              add\n                /* \"#utility.yul\":1918:1944   */\n              swap1\n              pop\n                /* \"#utility.yul\":1954:2025   */\n              tag_220\n                /* \"#utility.yul\":2022:2023   */\n              0x00\n                /* \"#utility.yul\":2011:2020   */\n              dup4\n                /* \"#utility.yul\":2007:2024   */\n              add\n                /* \"#utility.yul\":1998:2004   */\n              dup5\n                /* \"#utility.yul\":1954:2025   */\n              tag_162\n              jump\t// in\n            tag_220:\n                /* \"#utility.yul\":1810:2032   */\n              swap3\n              swap2\n              pop\n              pop\n              jump\t// out\n                /* \"#utility.yul\":2038:2156   */\n            tag_163:\n                /* \"#utility.yul\":2125:2149   */\n              tag_222\n                /* \"#utility.yul\":2143:2148   */\n              dup2\n                /* \"#utility.yul\":2125:2149   */\n              tag_156\n              jump\t// in\n            tag_222:\n                /* \"#utility.yul\":2120:2123   */\n              dup3\n                /* \"#utility.yul\":2113:2150   */\n              mstore\n                /* \"#utility.yul\":2038:2156   */\n              pop\n              pop\n              jump\t// out\n                /* \"#utility.yul\":2162:2826   */\n            tag_31:\n                /* \"#utility.yul\":2367:2371   */\n              0x00\n                /* \"#utility.yul\":2405:2408   */\n              0xa0\n                /* \"#utility.yul\":2394:2403   */\n              dup3\n                /* \"#utility.yul\":2390:2409   */\n              add\n                /* \"#utility.yul\":2382:2409   */\n              swap1\n              pop\n                /* \"#utility.yul\":2419:2490   */\n              tag_224\n                /* \"#utility.yul\":2487:2488   */\n              0x00\n                /* \"#utility.yul\":2476:2485   */\n              dup4\n                /* \"#utility.yul\":2472:2489   */\n              add\n                /* \"#utility.yul\":2463:2469   */\n              dup9\n                /* \"#utility.yul\":2419:2490   */\n              tag_162\n              jump\t// in\n            tag_224:\n                /* \"#utility.yul\":2500:2572   */\n              tag_225\n                /* \"#utility.yul\":2568:2570   */\n              0x20\n                /* \"#utility.yul\":2557:2566   */\n              dup4\n                /* \"#utility.yul\":2553:2571   */\n              add\n                /* \"#utility.yul\":2544:2550   */\n              dup8\n                /* \"#utility.yul\":2500:2572   */\n              tag_162\n              jump\t// in\n            tag_225:\n                /* \"#utility.yul\":2582:2654   */\n              tag_226\n                /* \"#utility.yul\":2650:2652   */\n              0x40\n                /* \"#utility.yul\":2639:2648   */\n              dup4\n                /* \"#utility.yul\":2635:2653   */\n              add\n                /* \"#utility.yul\":2626:2632   */\n              dup7\n                /* \"#utility.yul\":2582:2654   */\n              tag_162\n              jump\t// in\n            tag_226:\n                /* \"#utility.yul\":2664:2736   */\n              tag_227\n                /* \"#utility.yul\":2732:2734   */\n              0x60\n                /* \"#utility.yul\":2721:2730   */\n              dup4\n                /* \"#utility.yul\":2717:2735   */\n              add\n                /* \"#utility.yul\":2708:2714   */\n              dup6\n                /* \"#utility.yul\":2664:2736   */\n              tag_162\n              jump\t// in\n            tag_227:\n                /* \"#utility.yul\":2746:2819   */\n              tag_228\n                /* \"#utility.yul\":2814:2817   */\n              0x80\n                /* \"#utility.yul\":2803:2812   */\n              dup4\n                /* \"#utility.yul\":2799:2818   */\n              add\n                /* \"#utility.yul\":2790:2796   */\n              dup5\n                /* \"#utility.yul\":2746:2819   */\n              tag_163\n              jump\t// in\n            tag_228:\n                /* \"#utility.yul\":2162:2826   */\n              swap7\n              swap6\n              pop\n              pop\n              pop\n              pop\n              pop\n              pop\n              jump\t// out\n                /* \"#utility.yul\":2832:3054   */\n            tag_36:\n                /* \"#utility.yul\":2925:2929   */\n              0x00\n                /* \"#utility.yul\":2963:2965   */\n              0x20\n                /* \"#utility.yul\":2952:2961   */\n              dup3\n                /* \"#utility.yul\":2948:2966   */\n              add\n                /* \"#utility.yul\":2940:2966   */\n              swap1\n              pop\n                /* \"#utility.yul\":2976:3047   */\n              tag_230\n                /* \"#utility.yul\":3044:3045   */\n              0x00\n                /* \"#utility.yul\":3033:3042   */\n              dup4\n                /* \"#utility.yul\":3029:3046   */\n              add\n                /* \"#utility.yul\":3020:3026   */\n              dup5\n                /* \"#utility.yul\":2976:3047   */\n              tag_163\n              jump\t// in\n            tag_230:\n                /* \"#utility.yul\":2832:3054   */\n              swap3\n              swap2\n              pop\n              pop\n              jump\t// out\n                /* \"#utility.yul\":3060:3177   */\n            tag_164:\n                /* \"#utility.yul\":3169:3170   */\n              0x00\n                /* \"#utility.yul\":3166:3167   */\n              dup1\n                /* \"#utility.yul\":3159:3171   */\n              revert\n                /* \"#utility.yul\":3183:3300   */\n            tag_165:\n                /* \"#utility.yul\":3292:3293   */\n              0x00\n                /* \"#utility.yul\":3289:3290   */\n              dup1\n                /* \"#utility.yul\":3282:3294   */\n              revert\n                /* \"#utility.yul\":3306:3408   */\n            tag_166:\n                /* \"#utility.yul\":3347:3353   */\n              0x00\n                /* \"#utility.yul\":3398:3400   */\n              0x1f\n                /* \"#utility.yul\":3394:3401   */\n              not\n                /* \"#utility.yul\":3389:3391   */\n              0x1f\n                /* \"#utility.yul\":3382:3387   */\n              dup4\n                /* \"#utility.yul\":3378:3392   */\n              add\n                /* \"#utility.yul\":3374:3402   */\n              and\n                /* \"#utility.yul\":3364:3402   */\n              swap1\n              pop\n                /* \"#utility.yul\":3306:3408   */\n              swap2\n              swap1\n              pop\n              jump\t// out\n                /* \"#utility.yul\":3414:3594   */\n            tag_167:\n                /* \"#utility.yul\":3462:3539   */\n              0x4e487b7100000000000000000000000000000000000000000000000000000000\n                /* \"#utility.yul\":3459:3460   */\n              0x00\n                /* \"#utility.yul\":3452:3540   */\n              mstore\n                /* \"#utility.yul\":3559:3563   */\n              0x41\n                /* \"#utility.yul\":3556:3557   */\n              0x04\n                /* \"#utility.yul\":3549:3564   */\n              mstore\n                /* \"#utility.yul\":3583:3587   */\n              0x24\n                /* \"#utility.yul\":3580:3581   */\n              0x00\n                /* \"#utility.yul\":3573:3588   */\n              revert\n                /* \"#utility.yul\":3600:3881   */\n            tag_168:\n                /* \"#utility.yul\":3683:3710   */\n              tag_236\n                /* \"#utility.yul\":3705:3709   */\n              dup3\n                /* \"#utility.yul\":3683:3710   */\n              tag_166\n              jump\t// in\n            tag_236:\n                /* \"#utility.yul\":3675:3681   */\n              dup2\n                /* \"#utility.yul\":3671:3711   */\n              add\n                /* \"#utility.yul\":3813:3819   */\n              dup2\n                /* \"#utility.yul\":3801:3811   */\n              dup2\n                /* \"#utility.yul\":3798:3820   */\n              lt\n                /* \"#utility.yul\":3777:3795   */\n              0xffffffffffffffff\n                /* \"#utility.yul\":3765:3775   */\n              dup3\n                /* \"#utility.yul\":3762:3796   */\n              gt\n                /* \"#utility.yul\":3759:3821   */\n              or\n                /* \"#utility.yul\":3756:3844   */\n              iszero\n              tag_237\n              jumpi\n                /* \"#utility.yul\":3824:3842   */\n              tag_238\n              tag_167\n              jump\t// in\n            tag_238:\n                /* \"#utility.yul\":3756:3844   */\n            tag_237:\n                /* \"#utility.yul\":3864:3874   */\n              dup1\n                /* \"#utility.yul\":3860:3862   */\n              0x40\n                /* \"#utility.yul\":3853:3875   */\n              mstore\n                /* \"#utility.yul\":3643:3881   */\n              pop\n                /* \"#utility.yul\":3600:3881   */\n              pop\n              pop\n              jump\t// out\n                /* \"#utility.yul\":3887:4016   */\n            tag_169:\n                /* \"#utility.yul\":3921:3927   */\n              0x00\n                /* \"#utility.yul\":3948:3968   */\n              tag_240\n              tag_152\n              jump\t// in\n            tag_240:\n                /* \"#utility.yul\":3938:3968   */\n              swap1\n              pop\n                /* \"#utility.yul\":3977:4010   */\n              tag_241\n                /* \"#utility.yul\":4005:4009   */\n              dup3\n                /* \"#utility.yul\":3997:4003   */\n              dup3\n                /* \"#utility.yul\":3977:4010   */\n              tag_168\n              jump\t// in\n            tag_241:\n                /* \"#utility.yul\":3887:4016   */\n              swap2\n              swap1\n              pop\n              jump\t// out\n                /* \"#utility.yul\":4022:4330   */\n            tag_170:\n                /* \"#utility.yul\":4084:4088   */\n              0x00\n                /* \"#utility.yul\":4174:4192   */\n              0xffffffffffffffff\n                /* \"#utility.yul\":4166:4172   */\n              dup3\n                /* \"#utility.yul\":4163:4193   */\n              gt\n                /* \"#utility.yul\":4160:4216   */\n              iszero\n              tag_243\n              jumpi\n                /* \"#utility.yul\":4196:4214   */\n              tag_244\n              tag_167\n              jump\t// in\n            tag_244:\n                /* \"#utility.yul\":4160:4216   */\n            tag_243:\n                /* \"#utility.yul\":4234:4263   */\n              tag_245\n                /* \"#utility.yul\":4256:4262   */\n              dup3\n                /* \"#utility.yul\":4234:4263   */\n              tag_166\n              jump\t// in\n            tag_245:\n                /* \"#utility.yul\":4226:4263   */\n              swap1\n              pop\n                /* \"#utility.yul\":4318:4322   */\n              0x20\n                /* \"#utility.yul\":4312:4316   */\n              dup2\n                /* \"#utility.yul\":4308:4323   */\n              add\n                /* \"#utility.yul\":4300:4323   */\n              swap1\n              pop\n                /* \"#utility.yul\":4022:4330   */\n              swap2\n              swap1\n              pop\n              jump\t// out\n                /* \"#utility.yul\":4336:4490   */\n            tag_171:\n                /* \"#utility.yul\":4420:4426   */\n              dup3\n                /* \"#utility.yul\":4415:4418   */\n              dup2\n                /* \"#utility.yul\":4410:4413   */\n              dup4\n                /* \"#utility.yul\":4397:4427   */\n              calldatacopy\n                /* \"#utility.yul\":4482:4483   */\n              0x00\n                /* \"#utility.yul\":4473:4479   */\n              dup4\n                /* \"#utility.yul\":4468:4471   */\n              dup4\n                /* \"#utility.yul\":4464:4480   */\n              add\n                /* \"#utility.yul\":4457:4484   */\n              mstore\n                /* \"#utility.yul\":4336:4490   */\n              pop\n              pop\n              pop\n              jump\t// out\n                /* \"#utility.yul\":4496:4908   */\n            tag_172:\n                /* \"#utility.yul\":4574:4579   */\n              0x00\n                /* \"#utility.yul\":4599:4665   */\n              tag_248\n                /* \"#utility.yul\":4615:4664   */\n              tag_249\n                /* \"#utility.yul\":4657:4663   */\n              dup5\n                /* \"#utility.yul\":4615:4664   */\n              tag_170\n              jump\t// in\n            tag_249:\n                /* \"#utility.yul\":4599:4665   */\n              tag_169\n              jump\t// in\n            tag_248:\n                /* \"#utility.yul\":4590:4665   */\n              swap1\n              pop\n                /* \"#utility.yul\":4688:4694   */\n              dup3\n                /* \"#utility.yul\":4681:4686   */\n              dup2\n                /* \"#utility.yul\":4674:4695   */\n              mstore\n                /* \"#utility.yul\":4726:4730   */\n              0x20\n                /* \"#utility.yul\":4719:4724   */\n              dup2\n                /* \"#utility.yul\":4715:4731   */\n              add\n                /* \"#utility.yul\":4764:4767   */\n              dup5\n                /* \"#utility.yul\":4755:4761   */\n              dup5\n                /* \"#utility.yul\":4750:4753   */\n              dup5\n                /* \"#utility.yul\":4746:4762   */\n              add\n                /* \"#utility.yul\":4743:4768   */\n              gt\n                /* \"#utility.yul\":4740:4852   */\n              iszero\n              tag_250\n              jumpi\n                /* \"#utility.yul\":4771:4850   */\n              tag_251\n              tag_165\n              jump\t// in\n            tag_251:\n                /* \"#utility.yul\":4740:4852   */\n            tag_250:\n                /* \"#utility.yul\":4861:4902   */\n              tag_252\n                /* \"#utility.yul\":4895:4901   */\n              dup5\n                /* \"#utility.yul\":4890:4893   */\n              dup3\n                /* \"#utility.yul\":4885:4888   */\n              dup6\n                /* \"#utility.yul\":4861:4902   */\n              tag_171\n              jump\t// in\n            tag_252:\n                /* \"#utility.yul\":4580:4908   */\n              pop\n                /* \"#utility.yul\":4496:4908   */\n              swap4\n              swap3\n              pop\n              pop\n              pop\n              jump\t// out\n                /* \"#utility.yul\":4928:5268   */\n            tag_173:\n                /* \"#utility.yul\":4984:4989   */\n              0x00\n                /* \"#utility.yul\":5033:5036   */\n              dup3\n                /* \"#utility.yul\":5026:5030   */\n              0x1f\n                /* \"#utility.yul\":5018:5024   */\n              dup4\n                /* \"#utility.yul\":5014:5031   */\n              add\n                /* \"#utility.yul\":5010:5037   */\n              slt\n                /* \"#utility.yul\":5000:5122   */\n              tag_254\n              jumpi\n                /* \"#utility.yul\":5041:5120   */\n              tag_255\n              tag_164\n              jump\t// in\n            tag_255:\n                /* \"#utility.yul\":5000:5122   */\n            tag_254:\n                /* \"#utility.yul\":5158:5164   */\n              dup2\n                /* \"#utility.yul\":5145:5165   */\n              calldataload\n                /* \"#utility.yul\":5183:5262   */\n              tag_256\n                /* \"#utility.yul\":5258:5261   */\n              dup5\n                /* \"#utility.yul\":5250:5256   */\n              dup3\n                /* \"#utility.yul\":5243:5247   */\n              0x20\n                /* \"#utility.yul\":5235:5241   */\n              dup7\n                /* \"#utility.yul\":5231:5248   */\n              add\n                /* \"#utility.yul\":5183:5262   */\n              tag_172\n              jump\t// in\n            tag_256:\n                /* \"#utility.yul\":5174:5262   */\n              swap2\n              pop\n                /* \"#utility.yul\":4990:5268   */\n              pop\n                /* \"#utility.yul\":4928:5268   */\n              swap3\n              swap2\n              pop\n              pop\n              jump\t// out\n                /* \"#utility.yul\":5274:5396   */\n            tag_174:\n                /* \"#utility.yul\":5347:5371   */\n              tag_258\n                /* \"#utility.yul\":5365:5370   */\n              dup2\n                /* \"#utility.yul\":5347:5371   */\n              tag_161\n              jump\t// in\n            tag_258:\n                /* \"#utility.yul\":5340:5345   */\n              dup2\n                /* \"#utility.yul\":5337:5372   */\n              eq\n                /* \"#utility.yul\":5327:5390   */\n              tag_259\n              jumpi\n                /* \"#utility.yul\":5386:5387   */\n              0x00\n                /* \"#utility.yul\":5383:5384   */\n              dup1\n                /* \"#utility.yul\":5376:5388   */\n              revert\n                /* \"#utility.yul\":5327:5390   */\n            tag_259:\n                /* \"#utility.yul\":5274:5396   */\n              pop\n              jump\t// out\n                /* \"#utility.yul\":5402:5541   */\n            tag_175:\n                /* \"#utility.yul\":5448:5453   */\n              0x00\n                /* \"#utility.yul\":5486:5492   */\n              dup2\n                /* \"#utility.yul\":5473:5493   */\n              calldataload\n                /* \"#utility.yul\":5464:5493   */\n              swap1\n              pop\n                /* \"#utility.yul\":5502:5535   */\n              tag_261\n                /* \"#utility.yul\":5529:5534   */\n              dup2\n                /* \"#utility.yul\":5502:5535   */\n              tag_174\n              jump\t// in\n            tag_261:\n                /* \"#utility.yul\":5402:5541   */\n              swap3\n              swap2\n              pop\n              pop\n              jump\t// out\n                /* \"#utility.yul\":5547:6346   */\n            tag_52:\n                /* \"#utility.yul\":5634:5640   */\n              0x00\n                /* \"#utility.yul\":5642:5648   */\n              dup1\n                /* \"#utility.yul\":5650:5656   */\n              0x00\n                /* \"#utility.yul\":5699:5701   */\n              0x60\n                /* \"#utility.yul\":5687:5696   */\n              dup5\n                /* \"#utility.yul\":5678:5685   */\n              dup7\n                /* \"#utility.yul\":5674:5697   */\n              sub\n                /* \"#utility.yul\":5670:5702   */\n              slt\n                /* \"#utility.yul\":5667:5786   */\n              iszero\n              tag_263\n              jumpi\n                /* \"#utility.yul\":5705:5784   */\n              tag_264\n              tag_153\n              jump\t// in\n            tag_264:\n                /* \"#utility.yul\":5667:5786   */\n            tag_263:\n                /* \"#utility.yul\":5853:5854   */\n              0x00\n                /* \"#utility.yul\":5842:5851   */\n              dup5\n                /* \"#utility.yul\":5838:5855   */\n              add\n                /* \"#utility.yul\":5825:5856   */\n              calldataload\n                /* \"#utility.yul\":5883:5901   */\n              0xffffffffffffffff\n                /* \"#utility.yul\":5875:5881   */\n              dup2\n                /* \"#utility.yul\":5872:5902   */\n              gt\n                /* \"#utility.yul\":5869:5986   */\n              iszero\n              tag_265\n              jumpi\n                /* \"#utility.yul\":5905:5984   */\n              tag_266\n              tag_154\n              jump\t// in\n            tag_266:\n                /* \"#utility.yul\":5869:5986   */\n            tag_265:\n                /* \"#utility.yul\":6010:6073   */\n              tag_267\n                /* \"#utility.yul\":6065:6072   */\n              dup7\n                /* \"#utility.yul\":6056:6062   */\n              dup3\n                /* \"#utility.yul\":6045:6054   */\n              dup8\n                /* \"#utility.yul\":6041:6063   */\n              add\n                /* \"#utility.yul\":6010:6073   */\n              tag_173\n              jump\t// in\n            tag_267:\n                /* \"#utility.yul\":6000:6073   */\n              swap4\n              pop\n                /* \"#utility.yul\":5796:6083   */\n              pop\n                /* \"#utility.yul\":6122:6124   */\n              0x20\n                /* \"#utility.yul\":6148:6201   */\n              tag_268\n                /* \"#utility.yul\":6193:6200   */\n              dup7\n                /* \"#utility.yul\":6184:6190   */\n              dup3\n                /* \"#utility.yul\":6173:6182   */\n              dup8\n                /* \"#utility.yul\":6169:6191   */\n              add\n                /* \"#utility.yul\":6148:6201   */\n              tag_175\n              jump\t// in\n            tag_268:\n                /* \"#utility.yul\":6138:6201   */\n              swap3\n              pop\n                /* \"#utility.yul\":6093:6211   */\n              pop\n                /* \"#utility.yul\":6250:6252   */\n              0x40\n                /* \"#utility.yul\":6276:6329   */\n              tag_269\n                /* \"#utility.yul\":6321:6328   */\n              dup7\n                /* \"#utility.yul\":6312:6318   */\n              dup3\n                /* \"#utility.yul\":6301:6310   */\n              dup8\n                /* \"#utility.yul\":6297:6319   */\n              add\n                /* \"#utility.yul\":6276:6329   */\n              tag_158\n              jump\t// in\n            tag_269:\n                /* \"#utility.yul\":6266:6329   */\n              swap2\n              pop\n                /* \"#utility.yul\":6221:6339   */\n              pop\n                /* \"#utility.yul\":5547:6346   */\n              swap3\n              pop\n              swap3\n              pop\n              swap3\n              jump\t// out\n                /* \"#utility.yul\":6352:6681   */\n            tag_57:\n                /* \"#utility.yul\":6411:6417   */\n              0x00\n                /* \"#utility.yul\":6460:6462   */\n              0x20\n                /* \"#utility.yul\":6448:6457   */\n              dup3\n                /* \"#utility.yul\":6439:6446   */\n              dup5\n                /* \"#utility.yul\":6435:6458   */\n              sub\n                /* \"#utility.yul\":6431:6463   */\n              slt\n                /* \"#utility.yul\":6428:6547   */\n              iszero\n              tag_271\n              jumpi\n                /* \"#utility.yul\":6466:6545   */\n              tag_272\n              tag_153\n              jump\t// in\n            tag_272:\n                /* \"#utility.yul\":6428:6547   */\n            tag_271:\n                /* \"#utility.yul\":6586:6587   */\n              0x00\n                /* \"#utility.yul\":6611:6664   */\n              tag_273\n                /* \"#utility.yul\":6656:6663   */\n              dup5\n                /* \"#utility.yul\":6647:6653   */\n              dup3\n                /* \"#utility.yul\":6636:6645   */\n              dup6\n                /* \"#utility.yul\":6632:6654   */\n              add\n                /* \"#utility.yul\":6611:6664   */\n              tag_175\n              jump\t// in\n            tag_273:\n                /* \"#utility.yul\":6601:6664   */\n              swap2\n              pop\n                /* \"#utility.yul\":6557:6674   */\n              pop\n                /* \"#utility.yul\":6352:6681   */\n              swap3\n              swap2\n              pop\n              pop\n              jump\t// out\n                /* \"#utility.yul\":6687:6786   */\n            tag_176:\n                /* \"#utility.yul\":6739:6745   */\n              0x00\n                /* \"#utility.yul\":6773:6778   */\n              dup2\n                /* \"#utility.yul\":6767:6779   */\n              mload\n                /* \"#utility.yul\":6757:6779   */\n              swap1\n              pop\n                /* \"#utility.yul\":6687:6786   */\n              swap2\n              swap1\n              pop\n              jump\t// out\n                /* \"#utility.yul\":6792:6961   */\n            tag_177:\n                /* \"#utility.yul\":6876:6887   */\n              0x00\n                /* \"#utility.yul\":6910:6916   */\n              dup3\n                /* \"#utility.yul\":6905:6908   */\n              dup3\n                /* \"#utility.yul\":6898:6917   */\n              mstore\n                /* \"#utility.yul\":6950:6954   */\n              0x20\n                /* \"#utility.yul\":6945:6948   */\n              dup3\n                /* \"#utility.yul\":6941:6955   */\n              add\n                /* \"#utility.yul\":6926:6955   */\n              swap1\n              pop\n                /* \"#utility.yul\":6792:6961   */\n              swap3\n              swap2\n              pop\n              pop\n              jump\t// out\n                /* \"#utility.yul\":6967:7274   */\n            tag_178:\n                /* \"#utility.yul\":7035:7036   */\n              0x00\n                /* \"#utility.yul\":7045:7158   */\n            tag_277:\n                /* \"#utility.yul\":7059:7065   */\n              dup4\n                /* \"#utility.yul\":7056:7057   */\n              dup2\n                /* \"#utility.yul\":7053:7066   */\n              lt\n                /* \"#utility.yul\":7045:7158   */\n              iszero\n              tag_279\n              jumpi\n                /* \"#utility.yul\":7144:7145   */\n              dup1\n                /* \"#utility.yul\":7139:7142   */\n              dup3\n                /* \"#utility.yul\":7135:7146   */\n              add\n                /* \"#utility.yul\":7129:7147   */\n              mload\n                /* \"#utility.yul\":7125:7126   */\n              dup2\n                /* \"#utility.yul\":7120:7123   */\n              dup5\n                /* \"#utility.yul\":7116:7127   */\n              add\n                /* \"#utility.yul\":7109:7148   */\n              mstore\n                /* \"#utility.yul\":7081:7083   */\n              0x20\n                /* \"#utility.yul\":7078:7079   */\n              dup2\n                /* \"#utility.yul\":7074:7084   */\n              add\n                /* \"#utility.yul\":7069:7084   */\n              swap1\n              pop\n                /* \"#utility.yul\":7045:7158   */\n              jump(tag_277)\n            tag_279:\n                /* \"#utility.yul\":7176:7182   */\n              dup4\n                /* \"#utility.yul\":7173:7174   */\n              dup2\n                /* \"#utility.yul\":7170:7183   */\n              gt\n                /* \"#utility.yul\":7167:7268   */\n              iszero\n              tag_280\n              jumpi\n                /* \"#utility.yul\":7256:7257   */\n              0x00\n                /* \"#utility.yul\":7247:7253   */\n              dup5\n                /* \"#utility.yul\":7242:7245   */\n              dup5\n                /* \"#utility.yul\":7238:7254   */\n              add\n                /* \"#utility.yul\":7231:7258   */\n              mstore\n                /* \"#utility.yul\":7167:7268   */\n            tag_280:\n                /* \"#utility.yul\":7016:7274   */\n              pop\n                /* \"#utility.yul\":6967:7274   */\n              pop\n              pop\n              pop\n              jump\t// out\n                /* \"#utility.yul\":7280:7644   */\n            tag_179:\n                /* \"#utility.yul\":7368:7371   */\n              0x00\n                /* \"#utility.yul\":7396:7435   */\n              tag_282\n                /* \"#utility.yul\":7429:7434   */\n              dup3\n                /* \"#utility.yul\":7396:7435   */\n              tag_176\n              jump\t// in\n            tag_282:\n                /* \"#utility.yul\":7451:7522   */\n              tag_283\n                /* \"#utility.yul\":7515:7521   */\n              dup2\n                /* \"#utility.yul\":7510:7513   */\n              dup6\n                /* \"#utility.yul\":7451:7522   */\n              tag_177\n              jump\t// in\n            tag_283:\n                /* \"#utility.yul\":7444:7522   */\n              swap4\n              pop\n                /* \"#utility.yul\":7531:7583   */\n              tag_284\n                /* \"#utility.yul\":7576:7582   */\n              dup2\n                /* \"#utility.yul\":7571:7574   */\n              dup6\n                /* \"#utility.yul\":7564:7568   */\n              0x20\n                /* \"#utility.yul\":7557:7562   */\n              dup7\n                /* \"#utility.yul\":7553:7569   */\n              add\n                /* \"#utility.yul\":7531:7583   */\n              tag_178\n              jump\t// in\n            tag_284:\n                /* \"#utility.yul\":7608:7637   */\n              tag_285\n                /* \"#utility.yul\":7630:7636   */\n              dup2\n                /* \"#utility.yul\":7608:7637   */\n              tag_166\n              jump\t// in\n            tag_285:\n                /* \"#utility.yul\":7603:7606   */\n              dup5\n                /* \"#utility.yul\":7599:7638   */\n              add\n                /* \"#utility.yul\":7592:7638   */\n              swap2\n              pop\n                /* \"#utility.yul\":7372:7644   */\n              pop\n                /* \"#utility.yul\":7280:7644   */\n              swap3\n              swap2\n              pop\n              pop\n              jump\t// out\n                /* \"#utility.yul\":7650:8393   */\n            tag_70:\n                /* \"#utility.yul\":7869:7873   */\n              0x00\n                /* \"#utility.yul\":7907:7910   */\n              0xa0\n                /* \"#utility.yul\":7896:7905   */\n              dup3\n                /* \"#utility.yul\":7892:7911   */\n              add\n                /* \"#utility.yul\":7884:7911   */\n              swap1\n              pop\n                /* \"#utility.yul\":7957:7966   */\n              dup2\n                /* \"#utility.yul\":7951:7955   */\n              dup2\n                /* \"#utility.yul\":7947:7967   */\n              sub\n                /* \"#utility.yul\":7943:7944   */\n              0x00\n                /* \"#utility.yul\":7932:7941   */\n              dup4\n                /* \"#utility.yul\":7928:7945   */\n              add\n                /* \"#utility.yul\":7921:7968   */\n              mstore\n                /* \"#utility.yul\":7985:8063   */\n              tag_287\n                /* \"#utility.yul\":8058:8062   */\n              dup2\n                /* \"#utility.yul\":8049:8055   */\n              dup9\n                /* \"#utility.yul\":7985:8063   */\n              tag_179\n              jump\t// in\n            tag_287:\n                /* \"#utility.yul\":7977:8063   */\n              swap1\n              pop\n                /* \"#utility.yul\":8073:8145   */\n              tag_288\n                /* \"#utility.yul\":8141:8143   */\n              0x20\n                /* \"#utility.yul\":8130:8139   */\n              dup4\n                /* \"#utility.yul\":8126:8144   */\n              add\n                /* \"#utility.yul\":8117:8123   */\n              dup8\n                /* \"#utility.yul\":8073:8145   */\n              tag_162\n              jump\t// in\n            tag_288:\n                /* \"#utility.yul\":8155:8227   */\n              tag_289\n                /* \"#utility.yul\":8223:8225   */\n              0x40\n                /* \"#utility.yul\":8212:8221   */\n              dup4\n                /* \"#utility.yul\":8208:8226   */\n              add\n                /* \"#utility.yul\":8199:8205   */\n              dup7\n                /* \"#utility.yul\":8155:8227   */\n              tag_163\n              jump\t// in\n            tag_289:\n                /* \"#utility.yul\":8237:8303   */\n              tag_290\n                /* \"#utility.yul\":8299:8301   */\n              0x60\n                /* \"#utility.yul\":8288:8297   */\n              dup4\n                /* \"#utility.yul\":8284:8302   */\n              add\n                /* \"#utility.yul\":8275:8281   */\n              dup6\n                /* \"#utility.yul\":8237:8303   */\n              tag_160\n              jump\t// in\n            tag_290:\n                /* \"#utility.yul\":8313:8386   */\n              tag_291\n                /* \"#utility.yul\":8381:8384   */\n              0x80\n                /* \"#utility.yul\":8370:8379   */\n              dup4\n                /* \"#utility.yul\":8366:8385   */\n              add\n                /* \"#utility.yul\":8357:8363   */\n              dup5\n                /* \"#utility.yul\":8313:8386   */\n              tag_162\n              jump\t// in\n            tag_291:\n                /* \"#utility.yul\":7650:8393   */\n              swap7\n              swap6\n              pop\n              pop\n              pop\n              pop\n              pop\n              pop\n              jump\t// out\n                /* \"#utility.yul\":8399:8619   */\n            tag_180:\n                /* \"#utility.yul\":8539:8573   */\n              0x4f6e6c79206d616e616765722063616e2063616c6c2074686973206f7074696f\n                /* \"#utility.yul\":8535:8536   */\n              0x00\n                /* \"#utility.yul\":8527:8533   */\n              dup3\n                /* \"#utility.yul\":8523:8537   */\n              add\n                /* \"#utility.yul\":8516:8574   */\n              mstore\n                /* \"#utility.yul\":8608:8611   */\n              0x6e00000000000000000000000000000000000000000000000000000000000000\n                /* \"#utility.yul\":8603:8605   */\n              0x20\n                /* \"#utility.yul\":8595:8601   */\n              dup3\n                /* \"#utility.yul\":8591:8606   */\n              add\n                /* \"#utility.yul\":8584:8612   */\n              mstore\n                /* \"#utility.yul\":8399:8619   */\n              pop\n              jump\t// out\n                /* \"#utility.yul\":8625:8991   */\n            tag_181:\n                /* \"#utility.yul\":8767:8770   */\n              0x00\n                /* \"#utility.yul\":8788:8855   */\n              tag_294\n                /* \"#utility.yul\":8852:8854   */\n              0x21\n                /* \"#utility.yul\":8847:8850   */\n              dup4\n                /* \"#utility.yul\":8788:8855   */\n              tag_177\n              jump\t// in\n            tag_294:\n                /* \"#utility.yul\":8781:8855   */\n              swap2\n              pop\n                /* \"#utility.yul\":8864:8957   */\n              tag_295\n                /* \"#utility.yul\":8953:8956   */\n              dup3\n                /* \"#utility.yul\":8864:8957   */\n              tag_180\n              jump\t// in\n            tag_295:\n                /* \"#utility.yul\":8982:8984   */\n              0x40\n                /* \"#utility.yul\":8977:8980   */\n              dup3\n                /* \"#utility.yul\":8973:8985   */\n              add\n                /* \"#utility.yul\":8966:8985   */\n              swap1\n              pop\n                /* \"#utility.yul\":8625:8991   */\n              swap2\n              swap1\n              pop\n              jump\t// out\n                /* \"#utility.yul\":8997:9416   */\n            tag_76:\n                /* \"#utility.yul\":9163:9167   */\n              0x00\n                /* \"#utility.yul\":9201:9203   */\n              0x20\n                /* \"#utility.yul\":9190:9199   */\n              dup3\n                /* \"#utility.yul\":9186:9204   */\n              add\n                /* \"#utility.yul\":9178:9204   */\n              swap1\n              pop\n                /* \"#utility.yul\":9250:9259   */\n              dup2\n                /* \"#utility.yul\":9244:9248   */\n              dup2\n                /* \"#utility.yul\":9240:9260   */\n              sub\n                /* \"#utility.yul\":9236:9237   */\n              0x00\n                /* \"#utility.yul\":9225:9234   */\n              dup4\n                /* \"#utility.yul\":9221:9238   */\n              add\n                /* \"#utility.yul\":9214:9261   */\n              mstore\n                /* \"#utility.yul\":9278:9409   */\n              tag_297\n                /* \"#utility.yul\":9404:9408   */\n              dup2\n                /* \"#utility.yul\":9278:9409   */\n              tag_181\n              jump\t// in\n            tag_297:\n                /* \"#utility.yul\":9270:9409   */\n              swap1\n              pop\n                /* \"#utility.yul\":8997:9416   */\n              swap2\n              swap1\n              pop\n              jump\t// out\n                /* \"#utility.yul\":9422:9602   */\n            tag_87:\n                /* \"#utility.yul\":9470:9547   */\n              0x4e487b7100000000000000000000000000000000000000000000000000000000\n                /* \"#utility.yul\":9467:9468   */\n              0x00\n                /* \"#utility.yul\":9460:9548   */\n              mstore\n                /* \"#utility.yul\":9567:9571   */\n              0x32\n                /* \"#utility.yul\":9564:9565   */\n              0x04\n                /* \"#utility.yul\":9557:9572   */\n              mstore\n                /* \"#utility.yul\":9591:9595   */\n              0x24\n                /* \"#utility.yul\":9588:9589   */\n              0x00\n                /* \"#utility.yul\":9581:9596   */\n              revert\n                /* \"#utility.yul\":9608:9829   */\n            tag_182:\n                /* \"#utility.yul\":9748:9782   */\n              0x526571756573742068617320616c7265616479206265656e2066696e616c6973\n                /* \"#utility.yul\":9744:9745   */\n              0x00\n                /* \"#utility.yul\":9736:9742   */\n              dup3\n                /* \"#utility.yul\":9732:9746   */\n              add\n                /* \"#utility.yul\":9725:9783   */\n              mstore\n                /* \"#utility.yul\":9817:9821   */\n              0x6564000000000000000000000000000000000000000000000000000000000000\n                /* \"#utility.yul\":9812:9814   */\n              0x20\n                /* \"#utility.yul\":9804:9810   */\n              dup3\n                /* \"#utility.yul\":9800:9815   */\n              add\n                /* \"#utility.yul\":9793:9822   */\n              mstore\n                /* \"#utility.yul\":9608:9829   */\n              pop\n              jump\t// out\n                /* \"#utility.yul\":9835:10201   */\n            tag_183:\n                /* \"#utility.yul\":9977:9980   */\n              0x00\n                /* \"#utility.yul\":9998:10065   */\n              tag_301\n                /* \"#utility.yul\":10062:10064   */\n              0x22\n                /* \"#utility.yul\":10057:10060   */\n              dup4\n                /* \"#utility.yul\":9998:10065   */\n              tag_177\n              jump\t// in\n            tag_301:\n                /* \"#utility.yul\":9991:10065   */\n              swap2\n              pop\n                /* \"#utility.yul\":10074:10167   */\n              tag_302\n                /* \"#utility.yul\":10163:10166   */\n              dup3\n                /* \"#utility.yul\":10074:10167   */\n              tag_182\n              jump\t// in\n            tag_302:\n                /* \"#utility.yul\":10192:10194   */\n              0x40\n                /* \"#utility.yul\":10187:10190   */\n              dup3\n                /* \"#utility.yul\":10183:10195   */\n              add\n                /* \"#utility.yul\":10176:10195   */\n              swap1\n              pop\n                /* \"#utility.yul\":9835:10201   */\n              swap2\n              swap1\n              pop\n              jump\t// out\n                /* \"#utility.yul\":10207:10626   */\n            tag_91:\n                /* \"#utility.yul\":10373:10377   */\n              0x00\n                /* \"#utility.yul\":10411:10413   */\n              0x20\n                /* \"#utility.yul\":10400:10409   */\n              dup3\n                /* \"#utility.yul\":10396:10414   */\n              add\n                /* \"#utility.yul\":10388:10414   */\n              swap1\n              pop\n                /* \"#utility.yul\":10460:10469   */\n              dup2\n                /* \"#utility.yul\":10454:10458   */\n              dup2\n                /* \"#utility.yul\":10450:10470   */\n              sub\n                /* \"#utility.yul\":10446:10447   */\n              0x00\n                /* \"#utility.yul\":10435:10444   */\n              dup4\n                /* \"#utility.yul\":10431:10448   */\n              add\n                /* \"#utility.yul\":10424:10471   */\n              mstore\n                /* \"#utility.yul\":10488:10619   */\n              tag_304\n                /* \"#utility.yul\":10614:10618   */\n              dup2\n                /* \"#utility.yul\":10488:10619   */\n              tag_183\n              jump\t// in\n            tag_304:\n                /* \"#utility.yul\":10480:10619   */\n              swap1\n              pop\n                /* \"#utility.yul\":10207:10626   */\n              swap2\n              swap1\n              pop\n              jump\t// out\n                /* \"#utility.yul\":10632:10812   */\n            tag_184:\n                /* \"#utility.yul\":10680:10757   */\n              0x4e487b7100000000000000000000000000000000000000000000000000000000\n                /* \"#utility.yul\":10677:10678   */\n              0x00\n                /* \"#utility.yul\":10670:10758   */\n              mstore\n                /* \"#utility.yul\":10777:10781   */\n              0x12\n                /* \"#utility.yul\":10774:10775   */\n              0x04\n                /* \"#utility.yul\":10767:10782   */\n              mstore\n                /* \"#utility.yul\":10801:10805   */\n              0x24\n                /* \"#utility.yul\":10798:10799   */\n              0x00\n                /* \"#utility.yul\":10791:10806   */\n              revert\n                /* \"#utility.yul\":10818:10998   */\n            tag_185:\n                /* \"#utility.yul\":10866:10943   */\n              0x4e487b7100000000000000000000000000000000000000000000000000000000\n                /* \"#utility.yul\":10863:10864   */\n              0x00\n                /* \"#utility.yul\":10856:10944   */\n              mstore\n                /* \"#utility.yul\":10963:10967   */\n              0x11\n                /* \"#utility.yul\":10960:10961   */\n              0x04\n                /* \"#utility.yul\":10953:10968   */\n              mstore\n                /* \"#utility.yul\":10987:10991   */\n              0x24\n                /* \"#utility.yul\":10984:10985   */\n              0x00\n                /* \"#utility.yul\":10977:10992   */\n              revert\n                /* \"#utility.yul\":11004:11189   */\n            tag_93:\n                /* \"#utility.yul\":11044:11045   */\n              0x00\n                /* \"#utility.yul\":11061:11081   */\n              tag_308\n                /* \"#utility.yul\":11079:11080   */\n              dup3\n                /* \"#utility.yul\":11061:11081   */\n              tag_161\n              jump\t// in\n            tag_308:\n                /* \"#utility.yul\":11056:11081   */\n              swap2\n              pop\n                /* \"#utility.yul\":11095:11115   */\n              tag_309\n                /* \"#utility.yul\":11113:11114   */\n              dup4\n                /* \"#utility.yul\":11095:11115   */\n              tag_161\n              jump\t// in\n            tag_309:\n                /* \"#utility.yul\":11090:11115   */\n              swap3\n              pop\n                /* \"#utility.yul\":11134:11135   */\n              dup3\n                /* \"#utility.yul\":11124:11159   */\n              tag_310\n              jumpi\n                /* \"#utility.yul\":11139:11157   */\n              tag_311\n              tag_184\n              jump\t// in\n            tag_311:\n                /* \"#utility.yul\":11124:11159   */\n            tag_310:\n                /* \"#utility.yul\":11181:11182   */\n              dup3\n                /* \"#utility.yul\":11178:11179   */\n              dup3\n                /* \"#utility.yul\":11174:11183   */\n              div\n                /* \"#utility.yul\":11169:11183   */\n              swap1\n              pop\n                /* \"#utility.yul\":11004:11189   */\n              swap3\n              swap2\n              pop\n              pop\n              jump\t// out\n                /* \"#utility.yul\":11195:11422   */\n            tag_186:\n                /* \"#utility.yul\":11335:11369   */\n              0x5265717565737420686173206e6f74206d6574206e756d62657273206f662061\n                /* \"#utility.yul\":11331:11332   */\n              0x00\n                /* \"#utility.yul\":11323:11329   */\n              dup3\n                /* \"#utility.yul\":11319:11333   */\n              add\n                /* \"#utility.yul\":11312:11370   */\n              mstore\n                /* \"#utility.yul\":11404:11414   */\n              0x7070726f76657273000000000000000000000000000000000000000000000000\n                /* \"#utility.yul\":11399:11401   */\n              0x20\n                /* \"#utility.yul\":11391:11397   */\n              dup3\n                /* \"#utility.yul\":11387:11402   */\n              add\n                /* \"#utility.yul\":11380:11415   */\n              mstore\n                /* \"#utility.yul\":11195:11422   */\n              pop\n              jump\t// out\n                /* \"#utility.yul\":11428:11794   */\n            tag_187:\n                /* \"#utility.yul\":11570:11573   */\n              0x00\n                /* \"#utility.yul\":11591:11658   */\n              tag_314\n                /* \"#utility.yul\":11655:11657   */\n              0x28\n                /* \"#utility.yul\":11650:11653   */\n              dup4\n                /* \"#utility.yul\":11591:11658   */\n              tag_177\n              jump\t// in\n            tag_314:\n                /* \"#utility.yul\":11584:11658   */\n              swap2\n              pop\n                /* \"#utility.yul\":11667:11760   */\n              tag_315\n                /* \"#utility.yul\":11756:11759   */\n              dup3\n                /* \"#utility.yul\":11667:11760   */\n              tag_186\n              jump\t// in\n            tag_315:\n                /* \"#utility.yul\":11785:11787   */\n              0x40\n                /* \"#utility.yul\":11780:11783   */\n              dup3\n                /* \"#utility.yul\":11776:11788   */\n              add\n                /* \"#utility.yul\":11769:11788   */\n              swap1\n              pop\n                /* \"#utility.yul\":11428:11794   */\n              swap2\n              swap1\n              pop\n              jump\t// out\n                /* \"#utility.yul\":11800:12219   */\n            tag_99:\n                /* \"#utility.yul\":11966:11970   */\n              0x00\n                /* \"#utility.yul\":12004:12006   */\n              0x20\n                /* \"#utility.yul\":11993:12002   */\n              dup3\n                /* \"#utility.yul\":11989:12007   */\n              add\n                /* \"#utility.yul\":11981:12007   */\n              swap1\n              pop\n                /* \"#utility.yul\":12053:12062   */\n              dup2\n                /* \"#utility.yul\":12047:12051   */\n              dup2\n                /* \"#utility.yul\":12043:12063   */\n              sub\n                /* \"#utility.yul\":12039:12040   */\n              0x00\n                /* \"#utility.yul\":12028:12037   */\n              dup4\n                /* \"#utility.yul\":12024:12041   */\n              add\n                /* \"#utility.yul\":12017:12064   */\n              mstore\n                /* \"#utility.yul\":12081:12212   */\n              tag_317\n                /* \"#utility.yul\":12207:12211   */\n              dup2\n                /* \"#utility.yul\":12081:12212   */\n              tag_187\n              jump\t// in\n            tag_317:\n                /* \"#utility.yul\":12073:12212   */\n              swap1\n              pop\n                /* \"#utility.yul\":11800:12219   */\n              swap2\n              swap1\n              pop\n              jump\t// out\n                /* \"#utility.yul\":12225:12469   */\n            tag_188:\n                /* \"#utility.yul\":12365:12399   */\n              0x436f6e747269627574696f6e20616d6f756e742073686f756c64206265206772\n                /* \"#utility.yul\":12361:12362   */\n              0x00\n                /* \"#utility.yul\":12353:12359   */\n              dup3\n                /* \"#utility.yul\":12349:12363   */\n              add\n                /* \"#utility.yul\":12342:12400   */\n              mstore\n                /* \"#utility.yul\":12434:12461   */\n              0x6561746572207468616e206d696e696d756d20616d6f756e7400000000000000\n                /* \"#utility.yul\":12429:12431   */\n              0x20\n                /* \"#utility.yul\":12421:12427   */\n              dup3\n                /* \"#utility.yul\":12417:12432   */\n              add\n                /* \"#utility.yul\":12410:12462   */\n              mstore\n                /* \"#utility.yul\":12225:12469   */\n              pop\n              jump\t// out\n                /* \"#utility.yul\":12475:12841   */\n            tag_189:\n                /* \"#utility.yul\":12617:12620   */\n              0x00\n                /* \"#utility.yul\":12638:12705   */\n              tag_320\n                /* \"#utility.yul\":12702:12704   */\n              0x39\n                /* \"#utility.yul\":12697:12700   */\n              dup4\n                /* \"#utility.yul\":12638:12705   */\n              tag_177\n              jump\t// in\n            tag_320:\n                /* \"#utility.yul\":12631:12705   */\n              swap2\n              pop\n                /* \"#utility.yul\":12714:12807   */\n              tag_321\n                /* \"#utility.yul\":12803:12806   */\n              dup3\n                /* \"#utility.yul\":12714:12807   */\n              tag_188\n              jump\t// in\n            tag_321:\n                /* \"#utility.yul\":12832:12834   */\n              0x40\n                /* \"#utility.yul\":12827:12830   */\n              dup3\n                /* \"#utility.yul\":12823:12835   */\n              add\n                /* \"#utility.yul\":12816:12835   */\n              swap1\n              pop\n                /* \"#utility.yul\":12475:12841   */\n              swap2\n              swap1\n              pop\n              jump\t// out\n                /* \"#utility.yul\":12847:13266   */\n            tag_114:\n                /* \"#utility.yul\":13013:13017   */\n              0x00\n                /* \"#utility.yul\":13051:13053   */\n              0x20\n                /* \"#utility.yul\":13040:13049   */\n              dup3\n                /* \"#utility.yul\":13036:13054   */\n              add\n                /* \"#utility.yul\":13028:13054   */\n              swap1\n              pop\n                /* \"#utility.yul\":13100:13109   */\n              dup2\n                /* \"#utility.yul\":13094:13098   */\n              dup2\n                /* \"#utility.yul\":13090:13110   */\n              sub\n                /* \"#utility.yul\":13086:13087   */\n              0x00\n                /* \"#utility.yul\":13075:13084   */\n              dup4\n                /* \"#utility.yul\":13071:13088   */\n              add\n                /* \"#utility.yul\":13064:13111   */\n              mstore\n                /* \"#utility.yul\":13128:13259   */\n              tag_323\n                /* \"#utility.yul\":13254:13258   */\n              dup2\n                /* \"#utility.yul\":13128:13259   */\n              tag_189\n              jump\t// in\n            tag_323:\n                /* \"#utility.yul\":13120:13259   */\n              swap1\n              pop\n                /* \"#utility.yul\":12847:13266   */\n              swap2\n              swap1\n              pop\n              jump\t// out\n                /* \"#utility.yul\":13272:13505   */\n            tag_116:\n                /* \"#utility.yul\":13311:13314   */\n              0x00\n                /* \"#utility.yul\":13334:13358   */\n              tag_325\n                /* \"#utility.yul\":13352:13357   */\n              dup3\n                /* \"#utility.yul\":13334:13358   */\n              tag_161\n              jump\t// in\n            tag_325:\n                /* \"#utility.yul\":13325:13358   */\n              swap2\n              pop\n                /* \"#utility.yul\":13380:13446   */\n              0xffffffffffffffffffffffffffffffffffffffffffffffffffffffffffffffff\n                /* \"#utility.yul\":13373:13378   */\n              dup3\n                /* \"#utility.yul\":13370:13447   */\n              eq\n                /* \"#utility.yul\":13367:13470   */\n              iszero\n              tag_326\n              jumpi\n                /* \"#utility.yul\":13450:13468   */\n              tag_327\n              tag_185\n              jump\t// in\n            tag_327:\n                /* \"#utility.yul\":13367:13470   */\n            tag_326:\n                /* \"#utility.yul\":13497:13498   */\n              0x01\n                /* \"#utility.yul\":13490:13495   */\n              dup3\n                /* \"#utility.yul\":13486:13499   */\n              add\n                /* \"#utility.yul\":13479:13499   */\n              swap1\n              pop\n                /* \"#utility.yul\":13272:13505   */\n              swap2\n              swap1\n              pop\n              jump\t// out\n                /* \"#utility.yul\":13511:13686   */\n            tag_190:\n                /* \"#utility.yul\":13651:13678   */\n              0x596f7520617265206e6f74206120636f6e747269627574657200000000000000\n                /* \"#utility.yul\":13647:13648   */\n              0x00\n                /* \"#utility.yul\":13639:13645   */\n              dup3\n                /* \"#utility.yul\":13635:13649   */\n              add\n                /* \"#utility.yul\":13628:13679   */\n              mstore\n                /* \"#utility.yul\":13511:13686   */\n              pop\n              jump\t// out\n                /* \"#utility.yul\":13692:14058   */\n            tag_191:\n                /* \"#utility.yul\":13834:13837   */\n              0x00\n                /* \"#utility.yul\":13855:13922   */\n              tag_330\n                /* \"#utility.yul\":13919:13921   */\n              0x19\n                /* \"#utility.yul\":13914:13917   */\n              dup4\n                /* \"#utility.yul\":13855:13922   */\n              tag_177\n              jump\t// in\n            tag_330:\n                /* \"#utility.yul\":13848:13922   */\n              swap2\n              pop\n                /* \"#utility.yul\":13931:14024   */\n              tag_331\n                /* \"#utility.yul\":14020:14023   */\n              dup3\n                /* \"#utility.yul\":13931:14024   */\n              tag_190\n              jump\t// in\n            tag_331:\n                /* \"#utility.yul\":14049:14051   */\n              0x20\n                /* \"#utility.yul\":14044:14047   */\n              dup3\n                /* \"#utility.yul\":14040:14052   */\n              add\n                /* \"#utility.yul\":14033:14052   */\n              swap1\n              pop\n                /* \"#utility.yul\":13692:14058   */\n              swap2\n              swap1\n              pop\n              jump\t// out\n                /* \"#utility.yul\":14064:14483   */\n            tag_120:\n                /* \"#utility.yul\":14230:14234   */\n              0x00\n                /* \"#utility.yul\":14268:14270   */\n              0x20\n                /* \"#utility.yul\":14257:14266   */\n              dup3\n                /* \"#utility.yul\":14253:14271   */\n              add\n                /* \"#utility.yul\":14245:14271   */\n              swap1\n              pop\n                /* \"#utility.yul\":14317:14326   */\n              dup2\n                /* \"#utility.yul\":14311:14315   */\n              dup2\n                /* \"#utility.yul\":14307:14327   */\n              sub\n                /* \"#utility.yul\":14303:14304   */\n              0x00\n                /* \"#utility.yul\":14292:14301   */\n              dup4\n                /* \"#utility.yul\":14288:14305   */\n              add\n                /* \"#utility.yul\":14281:14328   */\n              mstore\n                /* \"#utility.yul\":14345:14476   */\n              tag_333\n                /* \"#utility.yul\":14471:14475   */\n              dup2\n                /* \"#utility.yul\":14345:14476   */\n              tag_191\n              jump\t// in\n            tag_333:\n                /* \"#utility.yul\":14337:14476   */\n              swap1\n              pop\n                /* \"#utility.yul\":14064:14483   */\n              swap2\n              swap1\n              pop\n              jump\t// out\n                /* \"#utility.yul\":14489:14714   */\n            tag_192:\n                /* \"#utility.yul\":14629:14663   */\n              0x596f75206861766520616c726561647920617070726f76656420746869732072\n                /* \"#utility.yul\":14625:14626   */\n              0x00\n                /* \"#utility.yul\":14617:14623   */\n              dup3\n                /* \"#utility.yul\":14613:14627   */\n              add\n                /* \"#utility.yul\":14606:14664   */\n              mstore\n                /* \"#utility.yul\":14698:14706   */\n              0x6571756573740000000000000000000000000000000000000000000000000000\n                /* \"#utility.yul\":14693:14695   */\n              0x20\n                /* \"#utility.yul\":14685:14691   */\n              dup3\n                /* \"#utility.yul\":14681:14696   */\n              add\n                /* \"#utility.yul\":14674:14707   */\n              mstore\n                /* \"#utility.yul\":14489:14714   */\n              pop\n              jump\t// out\n                /* \"#utility.yul\":14720:15086   */\n            tag_193:\n                /* \"#utility.yul\":14862:14865   */\n              0x00\n                /* \"#utility.yul\":14883:14950   */\n              tag_336\n                /* \"#utility.yul\":14947:14949   */\n              0x26\n                /* \"#utility.yul\":14942:14945   */\n              dup4\n                /* \"#utility.yul\":14883:14950   */\n              tag_177\n              jump\t// in\n            tag_336:\n                /* \"#utility.yul\":14876:14950   */\n              swap2\n              pop\n                /* \"#utility.yul\":14959:15052   */\n              tag_337\n                /* \"#utility.yul\":15048:15051   */\n              dup3\n                /* \"#utility.yul\":14959:15052   */\n              tag_192\n              jump\t// in\n            tag_337:\n                /* \"#utility.yul\":15077:15079   */\n              0x40\n                /* \"#utility.yul\":15072:15075   */\n              dup3\n                /* \"#utility.yul\":15068:15080   */\n              add\n                /* \"#utility.yul\":15061:15080   */\n              swap1\n              pop\n                /* \"#utility.yul\":14720:15086   */\n              swap2\n              swap1\n              pop\n              jump\t// out\n                /* \"#utility.yul\":15092:15511   */\n            tag_126:\n                /* \"#utility.yul\":15258:15262   */\n              0x00\n                /* \"#utility.yul\":15296:15298   */\n              0x20\n                /* \"#utility.yul\":15285:15294   */\n              dup3\n                /* \"#utility.yul\":15281:15299   */\n              add\n                /* \"#utility.yul\":15273:15299   */\n              swap1\n              pop\n                /* \"#utility.yul\":15345:15354   */\n              dup2\n                /* \"#utility.yul\":15339:15343   */\n              dup2\n                /* \"#utility.yul\":15335:15355   */\n              sub\n                /* \"#utility.yul\":15331:15332   */\n              0x00\n                /* \"#utility.yul\":15320:15329   */\n              dup4\n                /* \"#utility.yul\":15316:15333   */\n              add\n                /* \"#utility.yul\":15309:15356   */\n              mstore\n                /* \"#utility.yul\":15373:15504   */\n              tag_339\n                /* \"#utility.yul\":15499:15503   */\n              dup2\n                /* \"#utility.yul\":15373:15504   */\n              tag_193\n              jump\t// in\n            tag_339:\n                /* \"#utility.yul\":15365:15504   */\n              swap1\n              pop\n                /* \"#utility.yul\":15092:15511   */\n              swap2\n              swap1\n              pop\n              jump\t// out\n                /* \"#utility.yul\":15517:15697   */\n            tag_194:\n                /* \"#utility.yul\":15565:15642   */\n              0x4e487b7100000000000000000000000000000000000000000000000000000000\n                /* \"#utility.yul\":15562:15563   */\n              0x00\n                /* \"#utility.yul\":15555:15643   */\n              mstore\n                /* \"#utility.yul\":15662:15666   */\n              0x22\n                /* \"#utility.yul\":15659:15660   */\n              0x04\n                /* \"#utility.yul\":15652:15667   */\n              mstore\n                /* \"#utility.yul\":15686:15690   */\n              0x24\n                /* \"#utility.yul\":15683:15684   */\n              0x00\n                /* \"#utility.yul\":15676:15691   */\n              revert\n                /* \"#utility.yul\":15703:16023   */\n            tag_137:\n                /* \"#utility.yul\":15747:15753   */\n              0x00\n                /* \"#utility.yul\":15784:15785   */\n              0x02\n                /* \"#utility.yul\":15778:15782   */\n              dup3\n                /* \"#utility.yul\":15774:15786   */\n              div\n                /* \"#utility.yul\":15764:15786   */\n              swap1\n              pop\n                /* \"#utility.yul\":15831:15832   */\n              0x01\n                /* \"#utility.yul\":15825:15829   */\n              dup3\n                /* \"#utility.yul\":15821:15833   */\n              and\n                /* \"#utility.yul\":15852:15870   */\n              dup1\n                /* \"#utility.yul\":15842:15923   */\n              tag_342\n              jumpi\n                /* \"#utility.yul\":15908:15912   */\n              0x7f\n                /* \"#utility.yul\":15900:15906   */\n              dup3\n                /* \"#utility.yul\":15896:15913   */\n              and\n                /* \"#utility.yul\":15886:15913   */\n              swap2\n              pop\n                /* \"#utility.yul\":15842:15923   */\n            tag_342:\n                /* \"#utility.yul\":15970:15972   */\n              0x20\n                /* \"#utility.yul\":15962:15968   */\n              dup3\n                /* \"#utility.yul\":15959:15973   */\n              lt\n                /* \"#utility.yul\":15939:15957   */\n              dup2\n                /* \"#utility.yul\":15936:15974   */\n              eq\n                /* \"#utility.yul\":15933:16017   */\n              iszero\n              tag_343\n              jumpi\n                /* \"#utility.yul\":15989:16007   */\n              tag_344\n              tag_194\n              jump\t// in\n            tag_344:\n                /* \"#utility.yul\":15933:16017   */\n            tag_343:\n                /* \"#utility.yul\":15754:16023   */\n              pop\n                /* \"#utility.yul\":15703:16023   */\n              swap2\n              swap1\n              pop\n              jump\t// out\n\n            auxdata: 0xa26469706673582212200dd3c92027aaf768b8f5e2b0b5e1b35fdab508a2b97991630645ac6e77010ec864736f6c63430008090033\n        }\n    }\n\n    auxdata: 0xa2646970667358221220ddf14ee222a811f5aeca4319dbc419612b3352c04a7a665733128c2e5caac3ff64736f6c63430008090033\n}\n",
    "bytecode": {
      "linkReferences": {},
      "object": "608060405234801561001057600080fd5b506121bf806100206000396000f3fe60806040523480156200001157600080fd5b5060043610620000525760003560e01c80631e285caa146200005757806330d91045146200008d578063a97c479614620000c3578063f102a67c14620000e6575b600080fd5b6200007560048036038101906200006f919062000563565b62000106565b604051620000849190620005da565b60405180910390f35b620000ab6004803603810190620000a5919062000563565b62000146565b604051620000ba91906200069b565b60405180910390f35b620000cd620001fb565b604051620000dd929190620008af565b60405180910390f35b620001046004803603810190620000fe919062000a3b565b62000371565b005b600081815481106200011757600080fd5b906000526020600020016000915054906101000a900473ffffffffffffffffffffffffffffffffffffffff1681565b600181815481106200015757600080fd5b906000526020600020016000915090508054620001749062000ad0565b80601f0160208091040260200160405190810160405280929190818152602001828054620001a29062000ad0565b8015620001f35780601f10620001c757610100808354040283529160200191620001f3565b820191906000526020600020905b815481529060010190602001808311620001d557829003601f168201915b505050505081565b60608060006001818054806020026020016040519081016040528092919081815260200182805480156200028557602002820191906000526020600020905b8160009054906101000a900473ffffffffffffffffffffffffffffffffffffffff1673ffffffffffffffffffffffffffffffffffffffff16815260200190600101908083116200023a575b5050505050915080805480602002602001604051908101604052809291908181526020016000905b8282101562000363578382906000526020600020018054620002cf9062000ad0565b80601f0160208091040260200160405190810160405280929190818152602001828054620002fd9062000ad0565b80156200034e5780601f1062000322576101008083540402835291602001916200034e565b820191906000526020600020905b8154815290600101906020018083116200033057829003601f168201915b505050505081526020019060010190620002ad565b505050509050915091509091565b60008133604051620003839062000456565b6200039092919062000b17565b604051809103906000f080158015620003ad573d6000803e3d6000fd5b5090506000819080600181540180825580915050600190039060005260206000200160009091909190916101000a81548173ffffffffffffffffffffffffffffffffffffffff021916908373ffffffffffffffffffffffffffffffffffffffff1602179055506001839080600181540180825580915050600190039060005260206000200160009091909190915090805190602001906200045092919062000464565b50505050565b6116458062000b4583390190565b828054620004729062000ad0565b90600052602060002090601f016020900481019282620004965760008555620004e2565b82601f10620004b157805160ff1916838001178555620004e2565b82800160010185558215620004e2579182015b82811115620004e1578251825591602001919060010190620004c4565b5b509050620004f19190620004f5565b5090565b5b8082111562000510576000816000905550600101620004f6565b5090565b6000604051905090565b600080fd5b600080fd5b6000819050919050565b6200053d8162000528565b81146200054957600080fd5b50565b6000813590506200055d8162000532565b92915050565b6000602082840312156200057c576200057b6200051e565b5b60006200058c848285016200054c565b91505092915050565b600073ffffffffffffffffffffffffffffffffffffffff82169050919050565b6000620005c28262000595565b9050919050565b620005d481620005b5565b82525050565b6000602082019050620005f16000830184620005c9565b92915050565b600081519050919050565b600082825260208201905092915050565b60005b838110156200063357808201518184015260208101905062000616565b8381111562000643576000848401525b50505050565b6000601f19601f8301169050919050565b60006200066782620005f7565b62000673818562000602565b93506200068581856020860162000613565b620006908162000649565b840191505092915050565b60006020820190508181036000830152620006b781846200065a565b905092915050565b600081519050919050565b600082825260208201905092915050565b6000819050602082019050919050565b620006f681620005b5565b82525050565b60006200070a8383620006eb565b60208301905092915050565b6000602082019050919050565b60006200073082620006bf565b6200073c8185620006ca565b93506200074983620006db565b8060005b8381101562000780578151620007648882620006fc565b9750620007718362000716565b9250506001810190506200074d565b5085935050505092915050565b600081519050919050565b600082825260208201905092915050565b6000819050602082019050919050565b600082825260208201905092915050565b6000620007d782620005f7565b620007e38185620007b9565b9350620007f581856020860162000613565b620008008162000649565b840191505092915050565b6000620008198383620007ca565b905092915050565b6000602082019050919050565b60006200083b826200078d565b62000847818562000798565b9350836020820285016200085b85620007a9565b8060005b858110156200089d57848403895281516200087b85826200080b565b9450620008888362000821565b925060208a019950506001810190506200085f565b50829750879550505050505092915050565b60006040820190508181036000830152620008cb818562000723565b90508181036020830152620008e181846200082e565b90509392505050565b600080fd5b600080fd5b7f4e487b7100000000000000000000000000000000000000000000000000000000600052604160045260246000fd5b6200092e8262000649565b810181811067ffffffffffffffff8211171562000950576200094f620008f4565b5b80604052505050565b60006200096562000514565b905062000973828262000923565b919050565b600067ffffffffffffffff821115620009965762000995620008f4565b5b620009a18262000649565b9050602081019050919050565b82818337600083830152505050565b6000620009d4620009ce8462000978565b62000959565b905082815260208101848484011115620009f357620009f2620008ef565b5b62000a00848285620009ae565b509392505050565b600082601f83011262000a205762000a1f620008ea565b5b813562000a32848260208601620009bd565b91505092915050565b6000806040838503121562000a555762000a546200051e565b5b600083013567ffffffffffffffff81111562000a765762000a7562000523565b5b62000a848582860162000a08565b925050602062000a97858286016200054c565b9150509250929050565b7f4e487b7100000000000000000000000000000000000000000000000000000000600052602260045260246000fd5b6000600282049050600182168062000ae957607f821691505b6020821081141562000b005762000aff62000aa1565b5b50919050565b62000b118162000528565b82525050565b600060408201905062000b2e600083018562000b06565b62000b3d6020830184620005c9565b939250505056fe60806040523480156200001157600080fd5b50604051620016453803806200164583398181016040528101906200003791906200012c565b80600160006101000a81548173ffffffffffffffffffffffffffffffffffffffff021916908373ffffffffffffffffffffffffffffffffffffffff16021790555081600481905550505062000173565b600080fd5b6000819050919050565b620000a1816200008c565b8114620000ad57600080fd5b50565b600081519050620000c18162000096565b92915050565b600073ffffffffffffffffffffffffffffffffffffffff82169050919050565b6000620000f482620000c7565b9050919050565b6200010681620000e7565b81146200011257600080fd5b50565b6000815190506200012681620000fb565b92915050565b6000806040838503121562000146576200014562000087565b5b60006200015685828601620000b0565b9250506020620001698582860162000115565b9150509250929050565b6114c280620001836000396000f3fe6080604052600436106100a75760003560e01c806382fde0931161006457806382fde093146101c45780638a9cfd55146101ef578063a9e818f514610218578063d7bb99ba14610241578063d7d1bbdb1461024b578063d845a4b314610274576100a7565b80630a144391146100ac5780633410452a146100e95780634051ddac14610114578063481c6a75146101435780635badbe4c1461016e578063728d545f14610199575b600080fd5b3480156100b857600080fd5b506100d360048036038101906100ce9190610bda565b6102b5565b6040516100e09190610c22565b60405180910390f35b3480156100f557600080fd5b506100fe6102d5565b60405161010b9190610c56565b60405180910390f35b34801561012057600080fd5b506101296102e2565b60405161013a959493929190610c80565b60405180910390f35b34801561014f57600080fd5b5061015861032b565b6040516101659190610cd3565b60405180910390f35b34801561017a57600080fd5b50610183610351565b6040516101909190610c56565b60405180910390f35b3480156101a557600080fd5b506101ae610357565b6040516101bb9190610c56565b60405180910390f35b3480156101d057600080fd5b506101d961035d565b6040516101e69190610c56565b60405180910390f35b3480156101fb57600080fd5b5061021660048036038101906102119190610e60565b610363565b005b34801561022457600080fd5b5061023f600480360381019061023a9190610ecf565b6104a9565b005b610249610719565b005b34801561025757600080fd5b50610272600480360381019061026d9190610ecf565b6107cf565b005b34801561028057600080fd5b5061029b60048036038101906102969190610ecf565b6109ca565b6040516102ac959493929190610f84565b60405180910390f35b60026020528060005260406000206000915054906101000a900460ff1681565b6000600580549050905090565b600080600080600060045447600580549050600354600160009054906101000a900473ffffffffffffffffffffffffffffffffffffffff16945094509450945094509091929394565b600160009054906101000a900473ffffffffffffffffffffffffffffffffffffffff1681565b60005481565b60045481565b60035481565b600160009054906101000a900473ffffffffffffffffffffffffffffffffffffffff1673ffffffffffffffffffffffffffffffffffffffff163373ffffffffffffffffffffffffffffffffffffffff16146103f3576040517f08c379a00000000000000000000000000000000000000000000000000000000081526004016103ea90611050565b60405180910390fd5b6000600560018160018154018082558091505003906000526020600020906005020190508381600001908051906020019061042f929190610ac5565b50828160010181905550818160020160006101000a81548173ffffffffffffffffffffffffffffffffffffffff021916908373ffffffffffffffffffffffffffffffffffffffff16021790555060008160020160146101000a81548160ff0219169083151502179055506000816003018190555050505050565b600160009054906101000a900473ffffffffffffffffffffffffffffffffffffffff1673ffffffffffffffffffffffffffffffffffffffff163373ffffffffffffffffffffffffffffffffffffffff1614610539576040517f08c379a000000000000000000000000000000000000000000000000000000000815260040161053090611050565b60405180910390fd5b600015156005828154811061055157610550611070565b5b906000526020600020906005020160020160149054906101000a900460ff161515146105b2576040517f08c379a00000000000000000000000000000000000000000000000000000000081526004016105a990611111565b60405180910390fd5b60026003546105c1919061118f565b600582815481106105d5576105d4611070565b5b90600052602060002090600502016003015411610627576040517f08c379a000000000000000000000000000000000000000000000000000000000815260040161061e90611232565b60405180910390fd5b6005818154811061063b5761063a611070565b5b906000526020600020906005020160020160009054906101000a900473ffffffffffffffffffffffffffffffffffffffff1673ffffffffffffffffffffffffffffffffffffffff166108fc6005838154811061069a57610699611070565b5b9060005260206000209060050201600101549081150290604051600060405180830381858888f193505050501580156106d7573d6000803e3d6000fd5b506001600582815481106106ee576106ed611070565b5b906000526020600020906005020160020160146101000a81548160ff02191690831515021790555050565b600454341161075d576040517f08c379a0000000000000000000000000000000000000000000000000000000008152600401610754906112c4565b60405180910390fd5b60036000815480929190610770906112e4565b91905055506001600260003373ffffffffffffffffffffffffffffffffffffffff1673ffffffffffffffffffffffffffffffffffffffff16815260200190815260200160002060006101000a81548160ff021916908315150217905550565b600260003373ffffffffffffffffffffffffffffffffffffffff1673ffffffffffffffffffffffffffffffffffffffff16815260200190815260200160002060009054906101000a900460ff1661085b576040517f08c379a000000000000000000000000000000000000000000000000000000000815260040161085290611379565b60405180910390fd5b600015156005828154811061087357610872611070565b5b906000526020600020906005020160040160003373ffffffffffffffffffffffffffffffffffffffff1673ffffffffffffffffffffffffffffffffffffffff16815260200190815260200160002060009054906101000a900460ff16151514610911576040517f08c379a00000000000000000000000000000000000000000000000000000000081526004016109089061140b565b60405180910390fd5b6005818154811061092557610924611070565b5b90600052602060002090600502016003016000815480929190610947906112e4565b919050555060016005828154811061096257610961611070565b5b906000526020600020906005020160040160003373ffffffffffffffffffffffffffffffffffffffff1673ffffffffffffffffffffffffffffffffffffffff16815260200190815260200160002060006101000a81548160ff02191690831515021790555050565b600581815481106109da57600080fd5b90600052602060002090600502016000915090508060000180546109fd9061145a565b80601f0160208091040260200160405190810160405280929190818152602001828054610a299061145a565b8015610a765780601f10610a4b57610100808354040283529160200191610a76565b820191906000526020600020905b815481529060010190602001808311610a5957829003601f168201915b5050505050908060010154908060020160009054906101000a900473ffffffffffffffffffffffffffffffffffffffff16908060020160149054906101000a900460ff16908060030154905085565b828054610ad19061145a565b90600052602060002090601f016020900481019282610af35760008555610b3a565b82601f10610b0c57805160ff1916838001178555610b3a565b82800160010185558215610b3a579182015b82811115610b39578251825591602001919060010190610b1e565b5b509050610b479190610b4b565b5090565b5b80821115610b64576000816000905550600101610b4c565b5090565b6000604051905090565b600080fd5b600080fd5b600073ffffffffffffffffffffffffffffffffffffffff82169050919050565b6000610ba782610b7c565b9050919050565b610bb781610b9c565b8114610bc257600080fd5b50565b600081359050610bd481610bae565b92915050565b600060208284031215610bf057610bef610b72565b5b6000610bfe84828501610bc5565b91505092915050565b60008115159050919050565b610c1c81610c07565b82525050565b6000602082019050610c376000830184610c13565b92915050565b6000819050919050565b610c5081610c3d565b82525050565b6000602082019050610c6b6000830184610c47565b92915050565b610c7a81610b9c565b82525050565b600060a082019050610c956000830188610c47565b610ca26020830187610c47565b610caf6040830186610c47565b610cbc6060830185610c47565b610cc96080830184610c71565b9695505050505050565b6000602082019050610ce86000830184610c71565b92915050565b600080fd5b600080fd5b6000601f19601f8301169050919050565b7f4e487b7100000000000000000000000000000000000000000000000000000000600052604160045260246000fd5b610d4182610cf8565b810181811067ffffffffffffffff82111715610d6057610d5f610d09565b5b80604052505050565b6000610d73610b68565b9050610d7f8282610d38565b919050565b600067ffffffffffffffff821115610d9f57610d9e610d09565b5b610da882610cf8565b9050602081019050919050565b82818337600083830152505050565b6000610dd7610dd284610d84565b610d69565b905082815260208101848484011115610df357610df2610cf3565b5b610dfe848285610db5565b509392505050565b600082601f830112610e1b57610e1a610cee565b5b8135610e2b848260208601610dc4565b91505092915050565b610e3d81610c3d565b8114610e4857600080fd5b50565b600081359050610e5a81610e34565b92915050565b600080600060608486031215610e7957610e78610b72565b5b600084013567ffffffffffffffff811115610e9757610e96610b77565b5b610ea386828701610e06565b9350506020610eb486828701610e4b565b9250506040610ec586828701610bc5565b9150509250925092565b600060208284031215610ee557610ee4610b72565b5b6000610ef384828501610e4b565b91505092915050565b600081519050919050565b600082825260208201905092915050565b60005b83811015610f36578082015181840152602081019050610f1b565b83811115610f45576000848401525b50505050565b6000610f5682610efc565b610f608185610f07565b9350610f70818560208601610f18565b610f7981610cf8565b840191505092915050565b600060a0820190508181036000830152610f9e8188610f4b565b9050610fad6020830187610c47565b610fba6040830186610c71565b610fc76060830185610c13565b610fd46080830184610c47565b9695505050505050565b7f4f6e6c79206d616e616765722063616e2063616c6c2074686973206f7074696f60008201527f6e00000000000000000000000000000000000000000000000000000000000000602082015250565b600061103a602183610f07565b915061104582610fde565b604082019050919050565b600060208201905081810360008301526110698161102d565b9050919050565b7f4e487b7100000000000000000000000000000000000000000000000000000000600052603260045260246000fd5b7f526571756573742068617320616c7265616479206265656e2066696e616c697360008201527f6564000000000000000000000000000000000000000000000000000000000000602082015250565b60006110fb602283610f07565b91506111068261109f565b604082019050919050565b6000602082019050818103600083015261112a816110ee565b9050919050565b7f4e487b7100000000000000000000000000000000000000000000000000000000600052601260045260246000fd5b7f4e487b7100000000000000000000000000000000000000000000000000000000600052601160045260246000fd5b600061119a82610c3d565b91506111a583610c3d565b9250826111b5576111b4611131565b5b828204905092915050565b7f5265717565737420686173206e6f74206d6574206e756d62657273206f66206160008201527f7070726f76657273000000000000000000000000000000000000000000000000602082015250565b600061121c602883610f07565b9150611227826111c0565b604082019050919050565b6000602082019050818103600083015261124b8161120f565b9050919050565b7f436f6e747269627574696f6e20616d6f756e742073686f756c6420626520677260008201527f6561746572207468616e206d696e696d756d20616d6f756e7400000000000000602082015250565b60006112ae603983610f07565b91506112b982611252565b604082019050919050565b600060208201905081810360008301526112dd816112a1565b9050919050565b60006112ef82610c3d565b91507fffffffffffffffffffffffffffffffffffffffffffffffffffffffffffffffff82141561132257611321611160565b5b600182019050919050565b7f596f7520617265206e6f74206120636f6e747269627574657200000000000000600082015250565b6000611363601983610f07565b915061136e8261132d565b602082019050919050565b6000602082019050818103600083015261139281611356565b9050919050565b7f596f75206861766520616c726561647920617070726f7665642074686973207260008201527f6571756573740000000000000000000000000000000000000000000000000000602082015250565b60006113f5602683610f07565b915061140082611399565b604082019050919050565b60006020820190508181036000830152611424816113e8565b9050919050565b7f4e487b7100000000000000000000000000000000000000000000000000000000600052602260045260246000fd5b6000600282049050600182168061147257607f821691505b602082108114156114865761148561142b565b5b5091905056fea26469706673582212200dd3c92027aaf768b8f5e2b0b5e1b35fdab508a2b97991630645ac6e77010ec864736f6c63430008090033a2646970667358221220ddf14ee222a811f5aeca4319dbc419612b3352c04a7a665733128c2e5caac3ff64736f6c63430008090033",
      "opcodes": "PUSH1 0x80 PUSH1 0x40 MSTORE CALLVALUE DUP1 ISZERO PUSH2 0x10 JUMPI PUSH1 0x0 DUP1 REVERT JUMPDEST POP PUSH2 0x21BF DUP1 PUSH2 0x20 PUSH1 0x0 CODECOPY PUSH1 0x0 RETURN INVALID PUSH1 0x80 PUSH1 0x40 MSTORE CALLVALUE DUP1 ISZERO PUSH3 0x11 JUMPI PUSH1 0x0 DUP1 REVERT JUMPDEST POP PUSH1 0x4 CALLDATASIZE LT PUSH3 0x52 JUMPI PUSH1 0x0 CALLDATALOAD PUSH1 0xE0 SHR DUP1 PUSH4 0x1E285CAA EQ PUSH3 0x57 JUMPI DUP1 PUSH4 0x30D91045 EQ PUSH3 0x8D JUMPI DUP1 PUSH4 0xA97C4796 EQ PUSH3 0xC3 JUMPI DUP1 PUSH4 0xF102A67C EQ PUSH3 0xE6 JUMPI JUMPDEST PUSH1 0x0 DUP1 REVERT JUMPDEST PUSH3 0x75 PUSH1 0x4 DUP1 CALLDATASIZE SUB DUP2 ADD SWAP1 PUSH3 0x6F SWAP2 SWAP1 PUSH3 0x563 JUMP JUMPDEST PUSH3 0x106 JUMP JUMPDEST PUSH1 0x40 MLOAD PUSH3 0x84 SWAP2 SWAP1 PUSH3 0x5DA JUMP JUMPDEST PUSH1 0x40 MLOAD DUP1 SWAP2 SUB SWAP1 RETURN JUMPDEST PUSH3 0xAB PUSH1 0x4 DUP1 CALLDATASIZE SUB DUP2 ADD SWAP1 PUSH3 0xA5 SWAP2 SWAP1 PUSH3 0x563 JUMP JUMPDEST PUSH3 0x146 JUMP JUMPDEST PUSH1 0x40 MLOAD PUSH3 0xBA SWAP2 SWAP1 PUSH3 0x69B JUMP JUMPDEST PUSH1 0x40 MLOAD DUP1 SWAP2 SUB SWAP1 RETURN JUMPDEST PUSH3 0xCD PUSH3 0x1FB JUMP JUMPDEST PUSH1 0x40 MLOAD PUSH3 0xDD SWAP3 SWAP2 SWAP1 PUSH3 0x8AF JUMP JUMPDEST PUSH1 0x40 MLOAD DUP1 SWAP2 SUB SWAP1 RETURN JUMPDEST PUSH3 0x104 PUSH1 0x4 DUP1 CALLDATASIZE SUB DUP2 ADD SWAP1 PUSH3 0xFE SWAP2 SWAP1 PUSH3 0xA3B JUMP JUMPDEST PUSH3 0x371 JUMP JUMPDEST STOP JUMPDEST PUSH1 0x0 DUP2 DUP2 SLOAD DUP2 LT PUSH3 0x117 JUMPI PUSH1 0x0 DUP1 REVERT JUMPDEST SWAP1 PUSH1 0x0 MSTORE PUSH1 0x20 PUSH1 0x0 KECCAK256 ADD PUSH1 0x0 SWAP2 POP SLOAD SWAP1 PUSH2 0x100 EXP SWAP1 DIV PUSH20 0xFFFFFFFFFFFFFFFFFFFFFFFFFFFFFFFFFFFFFFFF AND DUP2 JUMP JUMPDEST PUSH1 0x1 DUP2 DUP2 SLOAD DUP2 LT PUSH3 0x157 JUMPI PUSH1 0x0 DUP1 REVERT JUMPDEST SWAP1 PUSH1 0x0 MSTORE PUSH1 0x20 PUSH1 0x0 KECCAK256 ADD PUSH1 0x0 SWAP2 POP SWAP1 POP DUP1 SLOAD PUSH3 0x174 SWAP1 PUSH3 0xAD0 JUMP JUMPDEST DUP1 PUSH1 0x1F ADD PUSH1 0x20 DUP1 SWAP2 DIV MUL PUSH1 0x20 ADD PUSH1 0x40 MLOAD SWAP1 DUP2 ADD PUSH1 0x40 MSTORE DUP1 SWAP3 SWAP2 SWAP1 DUP2 DUP2 MSTORE PUSH1 0x20 ADD DUP3 DUP1 SLOAD PUSH3 0x1A2 SWAP1 PUSH3 0xAD0 JUMP JUMPDEST DUP1 ISZERO PUSH3 0x1F3 JUMPI DUP1 PUSH1 0x1F LT PUSH3 0x1C7 JUMPI PUSH2 0x100 DUP1 DUP4 SLOAD DIV MUL DUP4 MSTORE SWAP2 PUSH1 0x20 ADD SWAP2 PUSH3 0x1F3 JUMP JUMPDEST DUP3 ADD SWAP2 SWAP1 PUSH1 0x0 MSTORE PUSH1 0x20 PUSH1 0x0 KECCAK256 SWAP1 JUMPDEST DUP2 SLOAD DUP2 MSTORE SWAP1 PUSH1 0x1 ADD SWAP1 PUSH1 0x20 ADD DUP1 DUP4 GT PUSH3 0x1D5 JUMPI DUP3 SWAP1 SUB PUSH1 0x1F AND DUP3 ADD SWAP2 JUMPDEST POP POP POP POP POP DUP2 JUMP JUMPDEST PUSH1 0x60 DUP1 PUSH1 0x0 PUSH1 0x1 DUP2 DUP1 SLOAD DUP1 PUSH1 0x20 MUL PUSH1 0x20 ADD PUSH1 0x40 MLOAD SWAP1 DUP2 ADD PUSH1 0x40 MSTORE DUP1 SWAP3 SWAP2 SWAP1 DUP2 DUP2 MSTORE PUSH1 0x20 ADD DUP3 DUP1 SLOAD DUP1 ISZERO PUSH3 0x285 JUMPI PUSH1 0x20 MUL DUP3 ADD SWAP2 SWAP1 PUSH1 0x0 MSTORE PUSH1 0x20 PUSH1 0x0 KECCAK256 SWAP1 JUMPDEST DUP2 PUSH1 0x0 SWAP1 SLOAD SWAP1 PUSH2 0x100 EXP SWAP1 DIV PUSH20 0xFFFFFFFFFFFFFFFFFFFFFFFFFFFFFFFFFFFFFFFF AND PUSH20 0xFFFFFFFFFFFFFFFFFFFFFFFFFFFFFFFFFFFFFFFF AND DUP2 MSTORE PUSH1 0x20 ADD SWAP1 PUSH1 0x1 ADD SWAP1 DUP1 DUP4 GT PUSH3 0x23A JUMPI JUMPDEST POP POP POP POP POP SWAP2 POP DUP1 DUP1 SLOAD DUP1 PUSH1 0x20 MUL PUSH1 0x20 ADD PUSH1 0x40 MLOAD SWAP1 DUP2 ADD PUSH1 0x40 MSTORE DUP1 SWAP3 SWAP2 SWAP1 DUP2 DUP2 MSTORE PUSH1 0x20 ADD PUSH1 0x0 SWAP1 JUMPDEST DUP3 DUP3 LT ISZERO PUSH3 0x363 JUMPI DUP4 DUP3 SWAP1 PUSH1 0x0 MSTORE PUSH1 0x20 PUSH1 0x0 KECCAK256 ADD DUP1 SLOAD PUSH3 0x2CF SWAP1 PUSH3 0xAD0 JUMP JUMPDEST DUP1 PUSH1 0x1F ADD PUSH1 0x20 DUP1 SWAP2 DIV MUL PUSH1 0x20 ADD PUSH1 0x40 MLOAD SWAP1 DUP2 ADD PUSH1 0x40 MSTORE DUP1 SWAP3 SWAP2 SWAP1 DUP2 DUP2 MSTORE PUSH1 0x20 ADD DUP3 DUP1 SLOAD PUSH3 0x2FD SWAP1 PUSH3 0xAD0 JUMP JUMPDEST DUP1 ISZERO PUSH3 0x34E JUMPI DUP1 PUSH1 0x1F LT PUSH3 0x322 JUMPI PUSH2 0x100 DUP1 DUP4 SLOAD DIV MUL DUP4 MSTORE SWAP2 PUSH1 0x20 ADD SWAP2 PUSH3 0x34E JUMP JUMPDEST DUP3 ADD SWAP2 SWAP1 PUSH1 0x0 MSTORE PUSH1 0x20 PUSH1 0x0 KECCAK256 SWAP1 JUMPDEST DUP2 SLOAD DUP2 MSTORE SWAP1 PUSH1 0x1 ADD SWAP1 PUSH1 0x20 ADD DUP1 DUP4 GT PUSH3 0x330 JUMPI DUP3 SWAP1 SUB PUSH1 0x1F AND DUP3 ADD SWAP2 JUMPDEST POP POP POP POP POP DUP2 MSTORE PUSH1 0x20 ADD SWAP1 PUSH1 0x1 ADD SWAP1 PUSH3 0x2AD JUMP JUMPDEST POP POP POP POP SWAP1 POP SWAP2 POP SWAP2 POP SWAP1 SWAP2 JUMP JUMPDEST PUSH1 0x0 DUP2 CALLER PUSH1 0x40 MLOAD PUSH3 0x383 SWAP1 PUSH3 0x456 JUMP JUMPDEST PUSH3 0x390 SWAP3 SWAP2 SWAP1 PUSH3 0xB17 JUMP JUMPDEST PUSH1 0x40 MLOAD DUP1 SWAP2 SUB SWAP1 PUSH1 0x0 CREATE DUP1 ISZERO DUP1 ISZERO PUSH3 0x3AD JUMPI RETURNDATASIZE PUSH1 0x0 DUP1 RETURNDATACOPY RETURNDATASIZE PUSH1 0x0 REVERT JUMPDEST POP SWAP1 POP PUSH1 0x0 DUP2 SWAP1 DUP1 PUSH1 0x1 DUP2 SLOAD ADD DUP1 DUP3 SSTORE DUP1 SWAP2 POP POP PUSH1 0x1 SWAP1 SUB SWAP1 PUSH1 0x0 MSTORE PUSH1 0x20 PUSH1 0x0 KECCAK256 ADD PUSH1 0x0 SWAP1 SWAP2 SWAP1 SWAP2 SWAP1 SWAP2 PUSH2 0x100 EXP DUP2 SLOAD DUP2 PUSH20 0xFFFFFFFFFFFFFFFFFFFFFFFFFFFFFFFFFFFFFFFF MUL NOT AND SWAP1 DUP4 PUSH20 0xFFFFFFFFFFFFFFFFFFFFFFFFFFFFFFFFFFFFFFFF AND MUL OR SWAP1 SSTORE POP PUSH1 0x1 DUP4 SWAP1 DUP1 PUSH1 0x1 DUP2 SLOAD ADD DUP1 DUP3 SSTORE DUP1 SWAP2 POP POP PUSH1 0x1 SWAP1 SUB SWAP1 PUSH1 0x0 MSTORE PUSH1 0x20 PUSH1 0x0 KECCAK256 ADD PUSH1 0x0 SWAP1 SWAP2 SWAP1 SWAP2 SWAP1 SWAP2 POP SWAP1 DUP1 MLOAD SWAP1 PUSH1 0x20 ADD SWAP1 PUSH3 0x450 SWAP3 SWAP2 SWAP1 PUSH3 0x464 JUMP JUMPDEST POP POP POP POP JUMP JUMPDEST PUSH2 0x1645 DUP1 PUSH3 0xB45 DUP4 CODECOPY ADD SWAP1 JUMP JUMPDEST DUP3 DUP1 SLOAD PUSH3 0x472 SWAP1 PUSH3 0xAD0 JUMP JUMPDEST SWAP1 PUSH1 0x0 MSTORE PUSH1 0x20 PUSH1 0x0 KECCAK256 SWAP1 PUSH1 0x1F ADD PUSH1 0x20 SWAP1 DIV DUP2 ADD SWAP3 DUP3 PUSH3 0x496 JUMPI PUSH1 0x0 DUP6 SSTORE PUSH3 0x4E2 JUMP JUMPDEST DUP3 PUSH1 0x1F LT PUSH3 0x4B1 JUMPI DUP1 MLOAD PUSH1 0xFF NOT AND DUP4 DUP1 ADD OR DUP6 SSTORE PUSH3 0x4E2 JUMP JUMPDEST DUP3 DUP1 ADD PUSH1 0x1 ADD DUP6 SSTORE DUP3 ISZERO PUSH3 0x4E2 JUMPI SWAP2 DUP3 ADD JUMPDEST DUP3 DUP2 GT ISZERO PUSH3 0x4E1 JUMPI DUP3 MLOAD DUP3 SSTORE SWAP2 PUSH1 0x20 ADD SWAP2 SWAP1 PUSH1 0x1 ADD SWAP1 PUSH3 0x4C4 JUMP JUMPDEST JUMPDEST POP SWAP1 POP PUSH3 0x4F1 SWAP2 SWAP1 PUSH3 0x4F5 JUMP JUMPDEST POP SWAP1 JUMP JUMPDEST JUMPDEST DUP1 DUP3 GT ISZERO PUSH3 0x510 JUMPI PUSH1 0x0 DUP2 PUSH1 0x0 SWAP1 SSTORE POP PUSH1 0x1 ADD PUSH3 0x4F6 JUMP JUMPDEST POP SWAP1 JUMP JUMPDEST PUSH1 0x0 PUSH1 0x40 MLOAD SWAP1 POP SWAP1 JUMP JUMPDEST PUSH1 0x0 DUP1 REVERT JUMPDEST PUSH1 0x0 DUP1 REVERT JUMPDEST PUSH1 0x0 DUP2 SWAP1 POP SWAP2 SWAP1 POP JUMP JUMPDEST PUSH3 0x53D DUP2 PUSH3 0x528 JUMP JUMPDEST DUP2 EQ PUSH3 0x549 JUMPI PUSH1 0x0 DUP1 REVERT JUMPDEST POP JUMP JUMPDEST PUSH1 0x0 DUP2 CALLDATALOAD SWAP1 POP PUSH3 0x55D DUP2 PUSH3 0x532 JUMP JUMPDEST SWAP3 SWAP2 POP POP JUMP JUMPDEST PUSH1 0x0 PUSH1 0x20 DUP3 DUP5 SUB SLT ISZERO PUSH3 0x57C JUMPI PUSH3 0x57B PUSH3 0x51E JUMP JUMPDEST JUMPDEST PUSH1 0x0 PUSH3 0x58C DUP5 DUP3 DUP6 ADD PUSH3 0x54C JUMP JUMPDEST SWAP2 POP POP SWAP3 SWAP2 POP POP JUMP JUMPDEST PUSH1 0x0 PUSH20 0xFFFFFFFFFFFFFFFFFFFFFFFFFFFFFFFFFFFFFFFF DUP3 AND SWAP1 POP SWAP2 SWAP1 POP JUMP JUMPDEST PUSH1 0x0 PUSH3 0x5C2 DUP3 PUSH3 0x595 JUMP JUMPDEST SWAP1 POP SWAP2 SWAP1 POP JUMP JUMPDEST PUSH3 0x5D4 DUP2 PUSH3 0x5B5 JUMP JUMPDEST DUP3 MSTORE POP POP JUMP JUMPDEST PUSH1 0x0 PUSH1 0x20 DUP3 ADD SWAP1 POP PUSH3 0x5F1 PUSH1 0x0 DUP4 ADD DUP5 PUSH3 0x5C9 JUMP JUMPDEST SWAP3 SWAP2 POP POP JUMP JUMPDEST PUSH1 0x0 DUP2 MLOAD SWAP1 POP SWAP2 SWAP1 POP JUMP JUMPDEST PUSH1 0x0 DUP3 DUP3 MSTORE PUSH1 0x20 DUP3 ADD SWAP1 POP SWAP3 SWAP2 POP POP JUMP JUMPDEST PUSH1 0x0 JUMPDEST DUP4 DUP2 LT ISZERO PUSH3 0x633 JUMPI DUP1 DUP3 ADD MLOAD DUP2 DUP5 ADD MSTORE PUSH1 0x20 DUP2 ADD SWAP1 POP PUSH3 0x616 JUMP JUMPDEST DUP4 DUP2 GT ISZERO PUSH3 0x643 JUMPI PUSH1 0x0 DUP5 DUP5 ADD MSTORE JUMPDEST POP POP POP POP JUMP JUMPDEST PUSH1 0x0 PUSH1 0x1F NOT PUSH1 0x1F DUP4 ADD AND SWAP1 POP SWAP2 SWAP1 POP JUMP JUMPDEST PUSH1 0x0 PUSH3 0x667 DUP3 PUSH3 0x5F7 JUMP JUMPDEST PUSH3 0x673 DUP2 DUP6 PUSH3 0x602 JUMP JUMPDEST SWAP4 POP PUSH3 0x685 DUP2 DUP6 PUSH1 0x20 DUP7 ADD PUSH3 0x613 JUMP JUMPDEST PUSH3 0x690 DUP2 PUSH3 0x649 JUMP JUMPDEST DUP5 ADD SWAP2 POP POP SWAP3 SWAP2 POP POP JUMP JUMPDEST PUSH1 0x0 PUSH1 0x20 DUP3 ADD SWAP1 POP DUP2 DUP2 SUB PUSH1 0x0 DUP4 ADD MSTORE PUSH3 0x6B7 DUP2 DUP5 PUSH3 0x65A JUMP JUMPDEST SWAP1 POP SWAP3 SWAP2 POP POP JUMP JUMPDEST PUSH1 0x0 DUP2 MLOAD SWAP1 POP SWAP2 SWAP1 POP JUMP JUMPDEST PUSH1 0x0 DUP3 DUP3 MSTORE PUSH1 0x20 DUP3 ADD SWAP1 POP SWAP3 SWAP2 POP POP JUMP JUMPDEST PUSH1 0x0 DUP2 SWAP1 POP PUSH1 0x20 DUP3 ADD SWAP1 POP SWAP2 SWAP1 POP JUMP JUMPDEST PUSH3 0x6F6 DUP2 PUSH3 0x5B5 JUMP JUMPDEST DUP3 MSTORE POP POP JUMP JUMPDEST PUSH1 0x0 PUSH3 0x70A DUP4 DUP4 PUSH3 0x6EB JUMP JUMPDEST PUSH1 0x20 DUP4 ADD SWAP1 POP SWAP3 SWAP2 POP POP JUMP JUMPDEST PUSH1 0x0 PUSH1 0x20 DUP3 ADD SWAP1 POP SWAP2 SWAP1 POP JUMP JUMPDEST PUSH1 0x0 PUSH3 0x730 DUP3 PUSH3 0x6BF JUMP JUMPDEST PUSH3 0x73C DUP2 DUP6 PUSH3 0x6CA JUMP JUMPDEST SWAP4 POP PUSH3 0x749 DUP4 PUSH3 0x6DB JUMP JUMPDEST DUP1 PUSH1 0x0 JUMPDEST DUP4 DUP2 LT ISZERO PUSH3 0x780 JUMPI DUP2 MLOAD PUSH3 0x764 DUP9 DUP3 PUSH3 0x6FC JUMP JUMPDEST SWAP8 POP PUSH3 0x771 DUP4 PUSH3 0x716 JUMP JUMPDEST SWAP3 POP POP PUSH1 0x1 DUP2 ADD SWAP1 POP PUSH3 0x74D JUMP JUMPDEST POP DUP6 SWAP4 POP POP POP POP SWAP3 SWAP2 POP POP JUMP JUMPDEST PUSH1 0x0 DUP2 MLOAD SWAP1 POP SWAP2 SWAP1 POP JUMP JUMPDEST PUSH1 0x0 DUP3 DUP3 MSTORE PUSH1 0x20 DUP3 ADD SWAP1 POP SWAP3 SWAP2 POP POP JUMP JUMPDEST PUSH1 0x0 DUP2 SWAP1 POP PUSH1 0x20 DUP3 ADD SWAP1 POP SWAP2 SWAP1 POP JUMP JUMPDEST PUSH1 0x0 DUP3 DUP3 MSTORE PUSH1 0x20 DUP3 ADD SWAP1 POP SWAP3 SWAP2 POP POP JUMP JUMPDEST PUSH1 0x0 PUSH3 0x7D7 DUP3 PUSH3 0x5F7 JUMP JUMPDEST PUSH3 0x7E3 DUP2 DUP6 PUSH3 0x7B9 JUMP JUMPDEST SWAP4 POP PUSH3 0x7F5 DUP2 DUP6 PUSH1 0x20 DUP7 ADD PUSH3 0x613 JUMP JUMPDEST PUSH3 0x800 DUP2 PUSH3 0x649 JUMP JUMPDEST DUP5 ADD SWAP2 POP POP SWAP3 SWAP2 POP POP JUMP JUMPDEST PUSH1 0x0 PUSH3 0x819 DUP4 DUP4 PUSH3 0x7CA JUMP JUMPDEST SWAP1 POP SWAP3 SWAP2 POP POP JUMP JUMPDEST PUSH1 0x0 PUSH1 0x20 DUP3 ADD SWAP1 POP SWAP2 SWAP1 POP JUMP JUMPDEST PUSH1 0x0 PUSH3 0x83B DUP3 PUSH3 0x78D JUMP JUMPDEST PUSH3 0x847 DUP2 DUP6 PUSH3 0x798 JUMP JUMPDEST SWAP4 POP DUP4 PUSH1 0x20 DUP3 MUL DUP6 ADD PUSH3 0x85B DUP6 PUSH3 0x7A9 JUMP JUMPDEST DUP1 PUSH1 0x0 JUMPDEST DUP6 DUP2 LT ISZERO PUSH3 0x89D JUMPI DUP5 DUP5 SUB DUP10 MSTORE DUP2 MLOAD PUSH3 0x87B DUP6 DUP3 PUSH3 0x80B JUMP JUMPDEST SWAP5 POP PUSH3 0x888 DUP4 PUSH3 0x821 JUMP JUMPDEST SWAP3 POP PUSH1 0x20 DUP11 ADD SWAP10 POP POP PUSH1 0x1 DUP2 ADD SWAP1 POP PUSH3 0x85F JUMP JUMPDEST POP DUP3 SWAP8 POP DUP8 SWAP6 POP POP POP POP POP POP SWAP3 SWAP2 POP POP JUMP JUMPDEST PUSH1 0x0 PUSH1 0x40 DUP3 ADD SWAP1 POP DUP2 DUP2 SUB PUSH1 0x0 DUP4 ADD MSTORE PUSH3 0x8CB DUP2 DUP6 PUSH3 0x723 JUMP JUMPDEST SWAP1 POP DUP2 DUP2 SUB PUSH1 0x20 DUP4 ADD MSTORE PUSH3 0x8E1 DUP2 DUP5 PUSH3 0x82E JUMP JUMPDEST SWAP1 POP SWAP4 SWAP3 POP POP POP JUMP JUMPDEST PUSH1 0x0 DUP1 REVERT JUMPDEST PUSH1 0x0 DUP1 REVERT JUMPDEST PUSH32 0x4E487B7100000000000000000000000000000000000000000000000000000000 PUSH1 0x0 MSTORE PUSH1 0x41 PUSH1 0x4 MSTORE PUSH1 0x24 PUSH1 0x0 REVERT JUMPDEST PUSH3 0x92E DUP3 PUSH3 0x649 JUMP JUMPDEST DUP2 ADD DUP2 DUP2 LT PUSH8 0xFFFFFFFFFFFFFFFF DUP3 GT OR ISZERO PUSH3 0x950 JUMPI PUSH3 0x94F PUSH3 0x8F4 JUMP JUMPDEST JUMPDEST DUP1 PUSH1 0x40 MSTORE POP POP POP JUMP JUMPDEST PUSH1 0x0 PUSH3 0x965 PUSH3 0x514 JUMP JUMPDEST SWAP1 POP PUSH3 0x973 DUP3 DUP3 PUSH3 0x923 JUMP JUMPDEST SWAP2 SWAP1 POP JUMP JUMPDEST PUSH1 0x0 PUSH8 0xFFFFFFFFFFFFFFFF DUP3 GT ISZERO PUSH3 0x996 JUMPI PUSH3 0x995 PUSH3 0x8F4 JUMP JUMPDEST JUMPDEST PUSH3 0x9A1 DUP3 PUSH3 0x649 JUMP JUMPDEST SWAP1 POP PUSH1 0x20 DUP2 ADD SWAP1 POP SWAP2 SWAP1 POP JUMP JUMPDEST DUP3 DUP2 DUP4 CALLDATACOPY PUSH1 0x0 DUP4 DUP4 ADD MSTORE POP POP POP JUMP JUMPDEST PUSH1 0x0 PUSH3 0x9D4 PUSH3 0x9CE DUP5 PUSH3 0x978 JUMP JUMPDEST PUSH3 0x959 JUMP JUMPDEST SWAP1 POP DUP3 DUP2 MSTORE PUSH1 0x20 DUP2 ADD DUP5 DUP5 DUP5 ADD GT ISZERO PUSH3 0x9F3 JUMPI PUSH3 0x9F2 PUSH3 0x8EF JUMP JUMPDEST JUMPDEST PUSH3 0xA00 DUP5 DUP3 DUP6 PUSH3 0x9AE JUMP JUMPDEST POP SWAP4 SWAP3 POP POP POP JUMP JUMPDEST PUSH1 0x0 DUP3 PUSH1 0x1F DUP4 ADD SLT PUSH3 0xA20 JUMPI PUSH3 0xA1F PUSH3 0x8EA JUMP JUMPDEST JUMPDEST DUP2 CALLDATALOAD PUSH3 0xA32 DUP5 DUP3 PUSH1 0x20 DUP7 ADD PUSH3 0x9BD JUMP JUMPDEST SWAP2 POP POP SWAP3 SWAP2 POP POP JUMP JUMPDEST PUSH1 0x0 DUP1 PUSH1 0x40 DUP4 DUP6 SUB SLT ISZERO PUSH3 0xA55 JUMPI PUSH3 0xA54 PUSH3 0x51E JUMP JUMPDEST JUMPDEST PUSH1 0x0 DUP4 ADD CALLDATALOAD PUSH8 0xFFFFFFFFFFFFFFFF DUP2 GT ISZERO PUSH3 0xA76 JUMPI PUSH3 0xA75 PUSH3 0x523 JUMP JUMPDEST JUMPDEST PUSH3 0xA84 DUP6 DUP3 DUP7 ADD PUSH3 0xA08 JUMP JUMPDEST SWAP3 POP POP PUSH1 0x20 PUSH3 0xA97 DUP6 DUP3 DUP7 ADD PUSH3 0x54C JUMP JUMPDEST SWAP2 POP POP SWAP3 POP SWAP3 SWAP1 POP JUMP JUMPDEST PUSH32 0x4E487B7100000000000000000000000000000000000000000000000000000000 PUSH1 0x0 MSTORE PUSH1 0x22 PUSH1 0x4 MSTORE PUSH1 0x24 PUSH1 0x0 REVERT JUMPDEST PUSH1 0x0 PUSH1 0x2 DUP3 DIV SWAP1 POP PUSH1 0x1 DUP3 AND DUP1 PUSH3 0xAE9 JUMPI PUSH1 0x7F DUP3 AND SWAP2 POP JUMPDEST PUSH1 0x20 DUP3 LT DUP2 EQ ISZERO PUSH3 0xB00 JUMPI PUSH3 0xAFF PUSH3 0xAA1 JUMP JUMPDEST JUMPDEST POP SWAP2 SWAP1 POP JUMP JUMPDEST PUSH3 0xB11 DUP2 PUSH3 0x528 JUMP JUMPDEST DUP3 MSTORE POP POP JUMP JUMPDEST PUSH1 0x0 PUSH1 0x40 DUP3 ADD SWAP1 POP PUSH3 0xB2E PUSH1 0x0 DUP4 ADD DUP6 PUSH3 0xB06 JUMP JUMPDEST PUSH3 0xB3D PUSH1 0x20 DUP4 ADD DUP5 PUSH3 0x5C9 JUMP JUMPDEST SWAP4 SWAP3 POP POP POP JUMP INVALID PUSH1 0x80 PUSH1 0x40 MSTORE CALLVALUE DUP1 ISZERO PUSH3 0x11 JUMPI PUSH1 0x0 DUP1 REVERT JUMPDEST POP PUSH1 0x40 MLOAD PUSH3 0x1645 CODESIZE SUB DUP1 PUSH3 0x1645 DUP4 CODECOPY DUP2 DUP2 ADD PUSH1 0x40 MSTORE DUP2 ADD SWAP1 PUSH3 0x37 SWAP2 SWAP1 PUSH3 0x12C JUMP JUMPDEST DUP1 PUSH1 0x1 PUSH1 0x0 PUSH2 0x100 EXP DUP2 SLOAD DUP2 PUSH20 0xFFFFFFFFFFFFFFFFFFFFFFFFFFFFFFFFFFFFFFFF MUL NOT AND SWAP1 DUP4 PUSH20 0xFFFFFFFFFFFFFFFFFFFFFFFFFFFFFFFFFFFFFFFF AND MUL OR SWAP1 SSTORE POP DUP2 PUSH1 0x4 DUP2 SWAP1 SSTORE POP POP POP PUSH3 0x173 JUMP JUMPDEST PUSH1 0x0 DUP1 REVERT JUMPDEST PUSH1 0x0 DUP2 SWAP1 POP SWAP2 SWAP1 POP JUMP JUMPDEST PUSH3 0xA1 DUP2 PUSH3 0x8C JUMP JUMPDEST DUP2 EQ PUSH3 0xAD JUMPI PUSH1 0x0 DUP1 REVERT JUMPDEST POP JUMP JUMPDEST PUSH1 0x0 DUP2 MLOAD SWAP1 POP PUSH3 0xC1 DUP2 PUSH3 0x96 JUMP JUMPDEST SWAP3 SWAP2 POP POP JUMP JUMPDEST PUSH1 0x0 PUSH20 0xFFFFFFFFFFFFFFFFFFFFFFFFFFFFFFFFFFFFFFFF DUP3 AND SWAP1 POP SWAP2 SWAP1 POP JUMP JUMPDEST PUSH1 0x0 PUSH3 0xF4 DUP3 PUSH3 0xC7 JUMP JUMPDEST SWAP1 POP SWAP2 SWAP1 POP JUMP JUMPDEST PUSH3 0x106 DUP2 PUSH3 0xE7 JUMP JUMPDEST DUP2 EQ PUSH3 0x112 JUMPI PUSH1 0x0 DUP1 REVERT JUMPDEST POP JUMP JUMPDEST PUSH1 0x0 DUP2 MLOAD SWAP1 POP PUSH3 0x126 DUP2 PUSH3 0xFB JUMP JUMPDEST SWAP3 SWAP2 POP POP JUMP JUMPDEST PUSH1 0x0 DUP1 PUSH1 0x40 DUP4 DUP6 SUB SLT ISZERO PUSH3 0x146 JUMPI PUSH3 0x145 PUSH3 0x87 JUMP JUMPDEST JUMPDEST PUSH1 0x0 PUSH3 0x156 DUP6 DUP3 DUP7 ADD PUSH3 0xB0 JUMP JUMPDEST SWAP3 POP POP PUSH1 0x20 PUSH3 0x169 DUP6 DUP3 DUP7 ADD PUSH3 0x115 JUMP JUMPDEST SWAP2 POP POP SWAP3 POP SWAP3 SWAP1 POP JUMP JUMPDEST PUSH2 0x14C2 DUP1 PUSH3 0x183 PUSH1 0x0 CODECOPY PUSH1 0x0 RETURN INVALID PUSH1 0x80 PUSH1 0x40 MSTORE PUSH1 0x4 CALLDATASIZE LT PUSH2 0xA7 JUMPI PUSH1 0x0 CALLDATALOAD PUSH1 0xE0 SHR DUP1 PUSH4 0x82FDE093 GT PUSH2 0x64 JUMPI DUP1 PUSH4 0x82FDE093 EQ PUSH2 0x1C4 JUMPI DUP1 PUSH4 0x8A9CFD55 EQ PUSH2 0x1EF JUMPI DUP1 PUSH4 0xA9E818F5 EQ PUSH2 0x218 JUMPI DUP1 PUSH4 0xD7BB99BA EQ PUSH2 0x241 JUMPI DUP1 PUSH4 0xD7D1BBDB EQ PUSH2 0x24B JUMPI DUP1 PUSH4 0xD845A4B3 EQ PUSH2 0x274 JUMPI PUSH2 0xA7 JUMP JUMPDEST DUP1 PUSH4 0xA144391 EQ PUSH2 0xAC JUMPI DUP1 PUSH4 0x3410452A EQ PUSH2 0xE9 JUMPI DUP1 PUSH4 0x4051DDAC EQ PUSH2 0x114 JUMPI DUP1 PUSH4 0x481C6A75 EQ PUSH2 0x143 JUMPI DUP1 PUSH4 0x5BADBE4C EQ PUSH2 0x16E JUMPI DUP1 PUSH4 0x728D545F EQ PUSH2 0x199 JUMPI JUMPDEST PUSH1 0x0 DUP1 REVERT JUMPDEST CALLVALUE DUP1 ISZERO PUSH2 0xB8 JUMPI PUSH1 0x0 DUP1 REVERT JUMPDEST POP PUSH2 0xD3 PUSH1 0x4 DUP1 CALLDATASIZE SUB DUP2 ADD SWAP1 PUSH2 0xCE SWAP2 SWAP1 PUSH2 0xBDA JUMP JUMPDEST PUSH2 0x2B5 JUMP JUMPDEST PUSH1 0x40 MLOAD PUSH2 0xE0 SWAP2 SWAP1 PUSH2 0xC22 JUMP JUMPDEST PUSH1 0x40 MLOAD DUP1 SWAP2 SUB SWAP1 RETURN JUMPDEST CALLVALUE DUP1 ISZERO PUSH2 0xF5 JUMPI PUSH1 0x0 DUP1 REVERT JUMPDEST POP PUSH2 0xFE PUSH2 0x2D5 JUMP JUMPDEST PUSH1 0x40 MLOAD PUSH2 0x10B SWAP2 SWAP1 PUSH2 0xC56 JUMP JUMPDEST PUSH1 0x40 MLOAD DUP1 SWAP2 SUB SWAP1 RETURN JUMPDEST CALLVALUE DUP1 ISZERO PUSH2 0x120 JUMPI PUSH1 0x0 DUP1 REVERT JUMPDEST POP PUSH2 0x129 PUSH2 0x2E2 JUMP JUMPDEST PUSH1 0x40 MLOAD PUSH2 0x13A SWAP6 SWAP5 SWAP4 SWAP3 SWAP2 SWAP1 PUSH2 0xC80 JUMP JUMPDEST PUSH1 0x40 MLOAD DUP1 SWAP2 SUB SWAP1 RETURN JUMPDEST CALLVALUE DUP1 ISZERO PUSH2 0x14F JUMPI PUSH1 0x0 DUP1 REVERT JUMPDEST POP PUSH2 0x158 PUSH2 0x32B JUMP JUMPDEST PUSH1 0x40 MLOAD PUSH2 0x165 SWAP2 SWAP1 PUSH2 0xCD3 JUMP JUMPDEST PUSH1 0x40 MLOAD DUP1 SWAP2 SUB SWAP1 RETURN JUMPDEST CALLVALUE DUP1 ISZERO PUSH2 0x17A JUMPI PUSH1 0x0 DUP1 REVERT JUMPDEST POP PUSH2 0x183 PUSH2 0x351 JUMP JUMPDEST PUSH1 0x40 MLOAD PUSH2 0x190 SWAP2 SWAP1 PUSH2 0xC56 JUMP JUMPDEST PUSH1 0x40 MLOAD DUP1 SWAP2 SUB SWAP1 RETURN JUMPDEST CALLVALUE DUP1 ISZERO PUSH2 0x1A5 JUMPI PUSH1 0x0 DUP1 REVERT JUMPDEST POP PUSH2 0x1AE PUSH2 0x357 JUMP JUMPDEST PUSH1 0x40 MLOAD PUSH2 0x1BB SWAP2 SWAP1 PUSH2 0xC56 JUMP JUMPDEST PUSH1 0x40 MLOAD DUP1 SWAP2 SUB SWAP1 RETURN JUMPDEST CALLVALUE DUP1 ISZERO PUSH2 0x1D0 JUMPI PUSH1 0x0 DUP1 REVERT JUMPDEST POP PUSH2 0x1D9 PUSH2 0x35D JUMP JUMPDEST PUSH1 0x40 MLOAD PUSH2 0x1E6 SWAP2 SWAP1 PUSH2 0xC56 JUMP JUMPDEST PUSH1 0x40 MLOAD DUP1 SWAP2 SUB SWAP1 RETURN JUMPDEST CALLVALUE DUP1 ISZERO PUSH2 0x1FB JUMPI PUSH1 0x0 DUP1 REVERT JUMPDEST POP PUSH2 0x216 PUSH1 0x4 DUP1 CALLDATASIZE SUB DUP2 ADD SWAP1 PUSH2 0x211 SWAP2 SWAP1 PUSH2 0xE60 JUMP JUMPDEST PUSH2 0x363 JUMP JUMPDEST STOP JUMPDEST CALLVALUE DUP1 ISZERO PUSH2 0x224 JUMPI PUSH1 0x0 DUP1 REVERT JUMPDEST POP PUSH2 0x23F PUSH1 0x4 DUP1 CALLDATASIZE SUB DUP2 ADD SWAP1 PUSH2 0x23A SWAP2 SWAP1 PUSH2 0xECF JUMP JUMPDEST PUSH2 0x4A9 JUMP JUMPDEST STOP JUMPDEST PUSH2 0x249 PUSH2 0x719 JUMP JUMPDEST STOP JUMPDEST CALLVALUE DUP1 ISZERO PUSH2 0x257 JUMPI PUSH1 0x0 DUP1 REVERT JUMPDEST POP PUSH2 0x272 PUSH1 0x4 DUP1 CALLDATASIZE SUB DUP2 ADD SWAP1 PUSH2 0x26D SWAP2 SWAP1 PUSH2 0xECF JUMP JUMPDEST PUSH2 0x7CF JUMP JUMPDEST STOP JUMPDEST CALLVALUE DUP1 ISZERO PUSH2 0x280 JUMPI PUSH1 0x0 DUP1 REVERT JUMPDEST POP PUSH2 0x29B PUSH1 0x4 DUP1 CALLDATASIZE SUB DUP2 ADD SWAP1 PUSH2 0x296 SWAP2 SWAP1 PUSH2 0xECF JUMP JUMPDEST PUSH2 0x9CA JUMP JUMPDEST PUSH1 0x40 MLOAD PUSH2 0x2AC SWAP6 SWAP5 SWAP4 SWAP3 SWAP2 SWAP1 PUSH2 0xF84 JUMP JUMPDEST PUSH1 0x40 MLOAD DUP1 SWAP2 SUB SWAP1 RETURN JUMPDEST PUSH1 0x2 PUSH1 0x20 MSTORE DUP1 PUSH1 0x0 MSTORE PUSH1 0x40 PUSH1 0x0 KECCAK256 PUSH1 0x0 SWAP2 POP SLOAD SWAP1 PUSH2 0x100 EXP SWAP1 DIV PUSH1 0xFF AND DUP2 JUMP JUMPDEST PUSH1 0x0 PUSH1 0x5 DUP1 SLOAD SWAP1 POP SWAP1 POP SWAP1 JUMP JUMPDEST PUSH1 0x0 DUP1 PUSH1 0x0 DUP1 PUSH1 0x0 PUSH1 0x4 SLOAD SELFBALANCE PUSH1 0x5 DUP1 SLOAD SWAP1 POP PUSH1 0x3 SLOAD PUSH1 0x1 PUSH1 0x0 SWAP1 SLOAD SWAP1 PUSH2 0x100 EXP SWAP1 DIV PUSH20 0xFFFFFFFFFFFFFFFFFFFFFFFFFFFFFFFFFFFFFFFF AND SWAP5 POP SWAP5 POP SWAP5 POP SWAP5 POP SWAP5 POP SWAP1 SWAP2 SWAP3 SWAP4 SWAP5 JUMP JUMPDEST PUSH1 0x1 PUSH1 0x0 SWAP1 SLOAD SWAP1 PUSH2 0x100 EXP SWAP1 DIV PUSH20 0xFFFFFFFFFFFFFFFFFFFFFFFFFFFFFFFFFFFFFFFF AND DUP2 JUMP JUMPDEST PUSH1 0x0 SLOAD DUP2 JUMP JUMPDEST PUSH1 0x4 SLOAD DUP2 JUMP JUMPDEST PUSH1 0x3 SLOAD DUP2 JUMP JUMPDEST PUSH1 0x1 PUSH1 0x0 SWAP1 SLOAD SWAP1 PUSH2 0x100 EXP SWAP1 DIV PUSH20 0xFFFFFFFFFFFFFFFFFFFFFFFFFFFFFFFFFFFFFFFF AND PUSH20 0xFFFFFFFFFFFFFFFFFFFFFFFFFFFFFFFFFFFFFFFF AND CALLER PUSH20 0xFFFFFFFFFFFFFFFFFFFFFFFFFFFFFFFFFFFFFFFF AND EQ PUSH2 0x3F3 JUMPI PUSH1 0x40 MLOAD PUSH32 0x8C379A000000000000000000000000000000000000000000000000000000000 DUP2 MSTORE PUSH1 0x4 ADD PUSH2 0x3EA SWAP1 PUSH2 0x1050 JUMP JUMPDEST PUSH1 0x40 MLOAD DUP1 SWAP2 SUB SWAP1 REVERT JUMPDEST PUSH1 0x0 PUSH1 0x5 PUSH1 0x1 DUP2 PUSH1 0x1 DUP2 SLOAD ADD DUP1 DUP3 SSTORE DUP1 SWAP2 POP POP SUB SWAP1 PUSH1 0x0 MSTORE PUSH1 0x20 PUSH1 0x0 KECCAK256 SWAP1 PUSH1 0x5 MUL ADD SWAP1 POP DUP4 DUP2 PUSH1 0x0 ADD SWAP1 DUP1 MLOAD SWAP1 PUSH1 0x20 ADD SWAP1 PUSH2 0x42F SWAP3 SWAP2 SWAP1 PUSH2 0xAC5 JUMP JUMPDEST POP DUP3 DUP2 PUSH1 0x1 ADD DUP2 SWAP1 SSTORE POP DUP2 DUP2 PUSH1 0x2 ADD PUSH1 0x0 PUSH2 0x100 EXP DUP2 SLOAD DUP2 PUSH20 0xFFFFFFFFFFFFFFFFFFFFFFFFFFFFFFFFFFFFFFFF MUL NOT AND SWAP1 DUP4 PUSH20 0xFFFFFFFFFFFFFFFFFFFFFFFFFFFFFFFFFFFFFFFF AND MUL OR SWAP1 SSTORE POP PUSH1 0x0 DUP2 PUSH1 0x2 ADD PUSH1 0x14 PUSH2 0x100 EXP DUP2 SLOAD DUP2 PUSH1 0xFF MUL NOT AND SWAP1 DUP4 ISZERO ISZERO MUL OR SWAP1 SSTORE POP PUSH1 0x0 DUP2 PUSH1 0x3 ADD DUP2 SWAP1 SSTORE POP POP POP POP POP JUMP JUMPDEST PUSH1 0x1 PUSH1 0x0 SWAP1 SLOAD SWAP1 PUSH2 0x100 EXP SWAP1 DIV PUSH20 0xFFFFFFFFFFFFFFFFFFFFFFFFFFFFFFFFFFFFFFFF AND PUSH20 0xFFFFFFFFFFFFFFFFFFFFFFFFFFFFFFFFFFFFFFFF AND CALLER PUSH20 0xFFFFFFFFFFFFFFFFFFFFFFFFFFFFFFFFFFFFFFFF AND EQ PUSH2 0x539 JUMPI PUSH1 0x40 MLOAD PUSH32 0x8C379A000000000000000000000000000000000000000000000000000000000 DUP2 MSTORE PUSH1 0x4 ADD PUSH2 0x530 SWAP1 PUSH2 0x1050 JUMP JUMPDEST PUSH1 0x40 MLOAD DUP1 SWAP2 SUB SWAP1 REVERT JUMPDEST PUSH1 0x0 ISZERO ISZERO PUSH1 0x5 DUP3 DUP2 SLOAD DUP2 LT PUSH2 0x551 JUMPI PUSH2 0x550 PUSH2 0x1070 JUMP JUMPDEST JUMPDEST SWAP1 PUSH1 0x0 MSTORE PUSH1 0x20 PUSH1 0x0 KECCAK256 SWAP1 PUSH1 0x5 MUL ADD PUSH1 0x2 ADD PUSH1 0x14 SWAP1 SLOAD SWAP1 PUSH2 0x100 EXP SWAP1 DIV PUSH1 0xFF AND ISZERO ISZERO EQ PUSH2 0x5B2 JUMPI PUSH1 0x40 MLOAD PUSH32 0x8C379A000000000000000000000000000000000000000000000000000000000 DUP2 MSTORE PUSH1 0x4 ADD PUSH2 0x5A9 SWAP1 PUSH2 0x1111 JUMP JUMPDEST PUSH1 0x40 MLOAD DUP1 SWAP2 SUB SWAP1 REVERT JUMPDEST PUSH1 0x2 PUSH1 0x3 SLOAD PUSH2 0x5C1 SWAP2 SWAP1 PUSH2 0x118F JUMP JUMPDEST PUSH1 0x5 DUP3 DUP2 SLOAD DUP2 LT PUSH2 0x5D5 JUMPI PUSH2 0x5D4 PUSH2 0x1070 JUMP JUMPDEST JUMPDEST SWAP1 PUSH1 0x0 MSTORE PUSH1 0x20 PUSH1 0x0 KECCAK256 SWAP1 PUSH1 0x5 MUL ADD PUSH1 0x3 ADD SLOAD GT PUSH2 0x627 JUMPI PUSH1 0x40 MLOAD PUSH32 0x8C379A000000000000000000000000000000000000000000000000000000000 DUP2 MSTORE PUSH1 0x4 ADD PUSH2 0x61E SWAP1 PUSH2 0x1232 JUMP JUMPDEST PUSH1 0x40 MLOAD DUP1 SWAP2 SUB SWAP1 REVERT JUMPDEST PUSH1 0x5 DUP2 DUP2 SLOAD DUP2 LT PUSH2 0x63B JUMPI PUSH2 0x63A PUSH2 0x1070 JUMP JUMPDEST JUMPDEST SWAP1 PUSH1 0x0 MSTORE PUSH1 0x20 PUSH1 0x0 KECCAK256 SWAP1 PUSH1 0x5 MUL ADD PUSH1 0x2 ADD PUSH1 0x0 SWAP1 SLOAD SWAP1 PUSH2 0x100 EXP SWAP1 DIV PUSH20 0xFFFFFFFFFFFFFFFFFFFFFFFFFFFFFFFFFFFFFFFF AND PUSH20 0xFFFFFFFFFFFFFFFFFFFFFFFFFFFFFFFFFFFFFFFF AND PUSH2 0x8FC PUSH1 0x5 DUP4 DUP2 SLOAD DUP2 LT PUSH2 0x69A JUMPI PUSH2 0x699 PUSH2 0x1070 JUMP JUMPDEST JUMPDEST SWAP1 PUSH1 0x0 MSTORE PUSH1 0x20 PUSH1 0x0 KECCAK256 SWAP1 PUSH1 0x5 MUL ADD PUSH1 0x1 ADD SLOAD SWAP1 DUP2 ISZERO MUL SWAP1 PUSH1 0x40 MLOAD PUSH1 0x0 PUSH1 0x40 MLOAD DUP1 DUP4 SUB DUP2 DUP6 DUP9 DUP9 CALL SWAP4 POP POP POP POP ISZERO DUP1 ISZERO PUSH2 0x6D7 JUMPI RETURNDATASIZE PUSH1 0x0 DUP1 RETURNDATACOPY RETURNDATASIZE PUSH1 0x0 REVERT JUMPDEST POP PUSH1 0x1 PUSH1 0x5 DUP3 DUP2 SLOAD DUP2 LT PUSH2 0x6EE JUMPI PUSH2 0x6ED PUSH2 0x1070 JUMP JUMPDEST JUMPDEST SWAP1 PUSH1 0x0 MSTORE PUSH1 0x20 PUSH1 0x0 KECCAK256 SWAP1 PUSH1 0x5 MUL ADD PUSH1 0x2 ADD PUSH1 0x14 PUSH2 0x100 EXP DUP2 SLOAD DUP2 PUSH1 0xFF MUL NOT AND SWAP1 DUP4 ISZERO ISZERO MUL OR SWAP1 SSTORE POP POP JUMP JUMPDEST PUSH1 0x4 SLOAD CALLVALUE GT PUSH2 0x75D JUMPI PUSH1 0x40 MLOAD PUSH32 0x8C379A000000000000000000000000000000000000000000000000000000000 DUP2 MSTORE PUSH1 0x4 ADD PUSH2 0x754 SWAP1 PUSH2 0x12C4 JUMP JUMPDEST PUSH1 0x40 MLOAD DUP1 SWAP2 SUB SWAP1 REVERT JUMPDEST PUSH1 0x3 PUSH1 0x0 DUP2 SLOAD DUP1 SWAP3 SWAP2 SWAP1 PUSH2 0x770 SWAP1 PUSH2 0x12E4 JUMP JUMPDEST SWAP2 SWAP1 POP SSTORE POP PUSH1 0x1 PUSH1 0x2 PUSH1 0x0 CALLER PUSH20 0xFFFFFFFFFFFFFFFFFFFFFFFFFFFFFFFFFFFFFFFF AND PUSH20 0xFFFFFFFFFFFFFFFFFFFFFFFFFFFFFFFFFFFFFFFF AND DUP2 MSTORE PUSH1 0x20 ADD SWAP1 DUP2 MSTORE PUSH1 0x20 ADD PUSH1 0x0 KECCAK256 PUSH1 0x0 PUSH2 0x100 EXP DUP2 SLOAD DUP2 PUSH1 0xFF MUL NOT AND SWAP1 DUP4 ISZERO ISZERO MUL OR SWAP1 SSTORE POP JUMP JUMPDEST PUSH1 0x2 PUSH1 0x0 CALLER PUSH20 0xFFFFFFFFFFFFFFFFFFFFFFFFFFFFFFFFFFFFFFFF AND PUSH20 0xFFFFFFFFFFFFFFFFFFFFFFFFFFFFFFFFFFFFFFFF AND DUP2 MSTORE PUSH1 0x20 ADD SWAP1 DUP2 MSTORE PUSH1 0x20 ADD PUSH1 0x0 KECCAK256 PUSH1 0x0 SWAP1 SLOAD SWAP1 PUSH2 0x100 EXP SWAP1 DIV PUSH1 0xFF AND PUSH2 0x85B JUMPI PUSH1 0x40 MLOAD PUSH32 0x8C379A000000000000000000000000000000000000000000000000000000000 DUP2 MSTORE PUSH1 0x4 ADD PUSH2 0x852 SWAP1 PUSH2 0x1379 JUMP JUMPDEST PUSH1 0x40 MLOAD DUP1 SWAP2 SUB SWAP1 REVERT JUMPDEST PUSH1 0x0 ISZERO ISZERO PUSH1 0x5 DUP3 DUP2 SLOAD DUP2 LT PUSH2 0x873 JUMPI PUSH2 0x872 PUSH2 0x1070 JUMP JUMPDEST JUMPDEST SWAP1 PUSH1 0x0 MSTORE PUSH1 0x20 PUSH1 0x0 KECCAK256 SWAP1 PUSH1 0x5 MUL ADD PUSH1 0x4 ADD PUSH1 0x0 CALLER PUSH20 0xFFFFFFFFFFFFFFFFFFFFFFFFFFFFFFFFFFFFFFFF AND PUSH20 0xFFFFFFFFFFFFFFFFFFFFFFFFFFFFFFFFFFFFFFFF AND DUP2 MSTORE PUSH1 0x20 ADD SWAP1 DUP2 MSTORE PUSH1 0x20 ADD PUSH1 0x0 KECCAK256 PUSH1 0x0 SWAP1 SLOAD SWAP1 PUSH2 0x100 EXP SWAP1 DIV PUSH1 0xFF AND ISZERO ISZERO EQ PUSH2 0x911 JUMPI PUSH1 0x40 MLOAD PUSH32 0x8C379A000000000000000000000000000000000000000000000000000000000 DUP2 MSTORE PUSH1 0x4 ADD PUSH2 0x908 SWAP1 PUSH2 0x140B JUMP JUMPDEST PUSH1 0x40 MLOAD DUP1 SWAP2 SUB SWAP1 REVERT JUMPDEST PUSH1 0x5 DUP2 DUP2 SLOAD DUP2 LT PUSH2 0x925 JUMPI PUSH2 0x924 PUSH2 0x1070 JUMP JUMPDEST JUMPDEST SWAP1 PUSH1 0x0 MSTORE PUSH1 0x20 PUSH1 0x0 KECCAK256 SWAP1 PUSH1 0x5 MUL ADD PUSH1 0x3 ADD PUSH1 0x0 DUP2 SLOAD DUP1 SWAP3 SWAP2 SWAP1 PUSH2 0x947 SWAP1 PUSH2 0x12E4 JUMP JUMPDEST SWAP2 SWAP1 POP SSTORE POP PUSH1 0x1 PUSH1 0x5 DUP3 DUP2 SLOAD DUP2 LT PUSH2 0x962 JUMPI PUSH2 0x961 PUSH2 0x1070 JUMP JUMPDEST JUMPDEST SWAP1 PUSH1 0x0 MSTORE PUSH1 0x20 PUSH1 0x0 KECCAK256 SWAP1 PUSH1 0x5 MUL ADD PUSH1 0x4 ADD PUSH1 0x0 CALLER PUSH20 0xFFFFFFFFFFFFFFFFFFFFFFFFFFFFFFFFFFFFFFFF AND PUSH20 0xFFFFFFFFFFFFFFFFFFFFFFFFFFFFFFFFFFFFFFFF AND DUP2 MSTORE PUSH1 0x20 ADD SWAP1 DUP2 MSTORE PUSH1 0x20 ADD PUSH1 0x0 KECCAK256 PUSH1 0x0 PUSH2 0x100 EXP DUP2 SLOAD DUP2 PUSH1 0xFF MUL NOT AND SWAP1 DUP4 ISZERO ISZERO MUL OR SWAP1 SSTORE POP POP JUMP JUMPDEST PUSH1 0x5 DUP2 DUP2 SLOAD DUP2 LT PUSH2 0x9DA JUMPI PUSH1 0x0 DUP1 REVERT JUMPDEST SWAP1 PUSH1 0x0 MSTORE PUSH1 0x20 PUSH1 0x0 KECCAK256 SWAP1 PUSH1 0x5 MUL ADD PUSH1 0x0 SWAP2 POP SWAP1 POP DUP1 PUSH1 0x0 ADD DUP1 SLOAD PUSH2 0x9FD SWAP1 PUSH2 0x145A JUMP JUMPDEST DUP1 PUSH1 0x1F ADD PUSH1 0x20 DUP1 SWAP2 DIV MUL PUSH1 0x20 ADD PUSH1 0x40 MLOAD SWAP1 DUP2 ADD PUSH1 0x40 MSTORE DUP1 SWAP3 SWAP2 SWAP1 DUP2 DUP2 MSTORE PUSH1 0x20 ADD DUP3 DUP1 SLOAD PUSH2 0xA29 SWAP1 PUSH2 0x145A JUMP JUMPDEST DUP1 ISZERO PUSH2 0xA76 JUMPI DUP1 PUSH1 0x1F LT PUSH2 0xA4B JUMPI PUSH2 0x100 DUP1 DUP4 SLOAD DIV MUL DUP4 MSTORE SWAP2 PUSH1 0x20 ADD SWAP2 PUSH2 0xA76 JUMP JUMPDEST DUP3 ADD SWAP2 SWAP1 PUSH1 0x0 MSTORE PUSH1 0x20 PUSH1 0x0 KECCAK256 SWAP1 JUMPDEST DUP2 SLOAD DUP2 MSTORE SWAP1 PUSH1 0x1 ADD SWAP1 PUSH1 0x20 ADD DUP1 DUP4 GT PUSH2 0xA59 JUMPI DUP3 SWAP1 SUB PUSH1 0x1F AND DUP3 ADD SWAP2 JUMPDEST POP POP POP POP POP SWAP1 DUP1 PUSH1 0x1 ADD SLOAD SWAP1 DUP1 PUSH1 0x2 ADD PUSH1 0x0 SWAP1 SLOAD SWAP1 PUSH2 0x100 EXP SWAP1 DIV PUSH20 0xFFFFFFFFFFFFFFFFFFFFFFFFFFFFFFFFFFFFFFFF AND SWAP1 DUP1 PUSH1 0x2 ADD PUSH1 0x14 SWAP1 SLOAD SWAP1 PUSH2 0x100 EXP SWAP1 DIV PUSH1 0xFF AND SWAP1 DUP1 PUSH1 0x3 ADD SLOAD SWAP1 POP DUP6 JUMP JUMPDEST DUP3 DUP1 SLOAD PUSH2 0xAD1 SWAP1 PUSH2 0x145A JUMP JUMPDEST SWAP1 PUSH1 0x0 MSTORE PUSH1 0x20 PUSH1 0x0 KECCAK256 SWAP1 PUSH1 0x1F ADD PUSH1 0x20 SWAP1 DIV DUP2 ADD SWAP3 DUP3 PUSH2 0xAF3 JUMPI PUSH1 0x0 DUP6 SSTORE PUSH2 0xB3A JUMP JUMPDEST DUP3 PUSH1 0x1F LT PUSH2 0xB0C JUMPI DUP1 MLOAD PUSH1 0xFF NOT AND DUP4 DUP1 ADD OR DUP6 SSTORE PUSH2 0xB3A JUMP JUMPDEST DUP3 DUP1 ADD PUSH1 0x1 ADD DUP6 SSTORE DUP3 ISZERO PUSH2 0xB3A JUMPI SWAP2 DUP3 ADD JUMPDEST DUP3 DUP2 GT ISZERO PUSH2 0xB39 JUMPI DUP3 MLOAD DUP3 SSTORE SWAP2 PUSH1 0x20 ADD SWAP2 SWAP1 PUSH1 0x1 ADD SWAP1 PUSH2 0xB1E JUMP JUMPDEST JUMPDEST POP SWAP1 POP PUSH2 0xB47 SWAP2 SWAP1 PUSH2 0xB4B JUMP JUMPDEST POP SWAP1 JUMP JUMPDEST JUMPDEST DUP1 DUP3 GT ISZERO PUSH2 0xB64 JUMPI PUSH1 0x0 DUP2 PUSH1 0x0 SWAP1 SSTORE POP PUSH1 0x1 ADD PUSH2 0xB4C JUMP JUMPDEST POP SWAP1 JUMP JUMPDEST PUSH1 0x0 PUSH1 0x40 MLOAD SWAP1 POP SWAP1 JUMP JUMPDEST PUSH1 0x0 DUP1 REVERT JUMPDEST PUSH1 0x0 DUP1 REVERT JUMPDEST PUSH1 0x0 PUSH20 0xFFFFFFFFFFFFFFFFFFFFFFFFFFFFFFFFFFFFFFFF DUP3 AND SWAP1 POP SWAP2 SWAP1 POP JUMP JUMPDEST PUSH1 0x0 PUSH2 0xBA7 DUP3 PUSH2 0xB7C JUMP JUMPDEST SWAP1 POP SWAP2 SWAP1 POP JUMP JUMPDEST PUSH2 0xBB7 DUP2 PUSH2 0xB9C JUMP JUMPDEST DUP2 EQ PUSH2 0xBC2 JUMPI PUSH1 0x0 DUP1 REVERT JUMPDEST POP JUMP JUMPDEST PUSH1 0x0 DUP2 CALLDATALOAD SWAP1 POP PUSH2 0xBD4 DUP2 PUSH2 0xBAE JUMP JUMPDEST SWAP3 SWAP2 POP POP JUMP JUMPDEST PUSH1 0x0 PUSH1 0x20 DUP3 DUP5 SUB SLT ISZERO PUSH2 0xBF0 JUMPI PUSH2 0xBEF PUSH2 0xB72 JUMP JUMPDEST JUMPDEST PUSH1 0x0 PUSH2 0xBFE DUP5 DUP3 DUP6 ADD PUSH2 0xBC5 JUMP JUMPDEST SWAP2 POP POP SWAP3 SWAP2 POP POP JUMP JUMPDEST PUSH1 0x0 DUP2 ISZERO ISZERO SWAP1 POP SWAP2 SWAP1 POP JUMP JUMPDEST PUSH2 0xC1C DUP2 PUSH2 0xC07 JUMP JUMPDEST DUP3 MSTORE POP POP JUMP JUMPDEST PUSH1 0x0 PUSH1 0x20 DUP3 ADD SWAP1 POP PUSH2 0xC37 PUSH1 0x0 DUP4 ADD DUP5 PUSH2 0xC13 JUMP JUMPDEST SWAP3 SWAP2 POP POP JUMP JUMPDEST PUSH1 0x0 DUP2 SWAP1 POP SWAP2 SWAP1 POP JUMP JUMPDEST PUSH2 0xC50 DUP2 PUSH2 0xC3D JUMP JUMPDEST DUP3 MSTORE POP POP JUMP JUMPDEST PUSH1 0x0 PUSH1 0x20 DUP3 ADD SWAP1 POP PUSH2 0xC6B PUSH1 0x0 DUP4 ADD DUP5 PUSH2 0xC47 JUMP JUMPDEST SWAP3 SWAP2 POP POP JUMP JUMPDEST PUSH2 0xC7A DUP2 PUSH2 0xB9C JUMP JUMPDEST DUP3 MSTORE POP POP JUMP JUMPDEST PUSH1 0x0 PUSH1 0xA0 DUP3 ADD SWAP1 POP PUSH2 0xC95 PUSH1 0x0 DUP4 ADD DUP9 PUSH2 0xC47 JUMP JUMPDEST PUSH2 0xCA2 PUSH1 0x20 DUP4 ADD DUP8 PUSH2 0xC47 JUMP JUMPDEST PUSH2 0xCAF PUSH1 0x40 DUP4 ADD DUP7 PUSH2 0xC47 JUMP JUMPDEST PUSH2 0xCBC PUSH1 0x60 DUP4 ADD DUP6 PUSH2 0xC47 JUMP JUMPDEST PUSH2 0xCC9 PUSH1 0x80 DUP4 ADD DUP5 PUSH2 0xC71 JUMP JUMPDEST SWAP7 SWAP6 POP POP POP POP POP POP JUMP JUMPDEST PUSH1 0x0 PUSH1 0x20 DUP3 ADD SWAP1 POP PUSH2 0xCE8 PUSH1 0x0 DUP4 ADD DUP5 PUSH2 0xC71 JUMP JUMPDEST SWAP3 SWAP2 POP POP JUMP JUMPDEST PUSH1 0x0 DUP1 REVERT JUMPDEST PUSH1 0x0 DUP1 REVERT JUMPDEST PUSH1 0x0 PUSH1 0x1F NOT PUSH1 0x1F DUP4 ADD AND SWAP1 POP SWAP2 SWAP1 POP JUMP JUMPDEST PUSH32 0x4E487B7100000000000000000000000000000000000000000000000000000000 PUSH1 0x0 MSTORE PUSH1 0x41 PUSH1 0x4 MSTORE PUSH1 0x24 PUSH1 0x0 REVERT JUMPDEST PUSH2 0xD41 DUP3 PUSH2 0xCF8 JUMP JUMPDEST DUP2 ADD DUP2 DUP2 LT PUSH8 0xFFFFFFFFFFFFFFFF DUP3 GT OR ISZERO PUSH2 0xD60 JUMPI PUSH2 0xD5F PUSH2 0xD09 JUMP JUMPDEST JUMPDEST DUP1 PUSH1 0x40 MSTORE POP POP POP JUMP JUMPDEST PUSH1 0x0 PUSH2 0xD73 PUSH2 0xB68 JUMP JUMPDEST SWAP1 POP PUSH2 0xD7F DUP3 DUP3 PUSH2 0xD38 JUMP JUMPDEST SWAP2 SWAP1 POP JUMP JUMPDEST PUSH1 0x0 PUSH8 0xFFFFFFFFFFFFFFFF DUP3 GT ISZERO PUSH2 0xD9F JUMPI PUSH2 0xD9E PUSH2 0xD09 JUMP JUMPDEST JUMPDEST PUSH2 0xDA8 DUP3 PUSH2 0xCF8 JUMP JUMPDEST SWAP1 POP PUSH1 0x20 DUP2 ADD SWAP1 POP SWAP2 SWAP1 POP JUMP JUMPDEST DUP3 DUP2 DUP4 CALLDATACOPY PUSH1 0x0 DUP4 DUP4 ADD MSTORE POP POP POP JUMP JUMPDEST PUSH1 0x0 PUSH2 0xDD7 PUSH2 0xDD2 DUP5 PUSH2 0xD84 JUMP JUMPDEST PUSH2 0xD69 JUMP JUMPDEST SWAP1 POP DUP3 DUP2 MSTORE PUSH1 0x20 DUP2 ADD DUP5 DUP5 DUP5 ADD GT ISZERO PUSH2 0xDF3 JUMPI PUSH2 0xDF2 PUSH2 0xCF3 JUMP JUMPDEST JUMPDEST PUSH2 0xDFE DUP5 DUP3 DUP6 PUSH2 0xDB5 JUMP JUMPDEST POP SWAP4 SWAP3 POP POP POP JUMP JUMPDEST PUSH1 0x0 DUP3 PUSH1 0x1F DUP4 ADD SLT PUSH2 0xE1B JUMPI PUSH2 0xE1A PUSH2 0xCEE JUMP JUMPDEST JUMPDEST DUP2 CALLDATALOAD PUSH2 0xE2B DUP5 DUP3 PUSH1 0x20 DUP7 ADD PUSH2 0xDC4 JUMP JUMPDEST SWAP2 POP POP SWAP3 SWAP2 POP POP JUMP JUMPDEST PUSH2 0xE3D DUP2 PUSH2 0xC3D JUMP JUMPDEST DUP2 EQ PUSH2 0xE48 JUMPI PUSH1 0x0 DUP1 REVERT JUMPDEST POP JUMP JUMPDEST PUSH1 0x0 DUP2 CALLDATALOAD SWAP1 POP PUSH2 0xE5A DUP2 PUSH2 0xE34 JUMP JUMPDEST SWAP3 SWAP2 POP POP JUMP JUMPDEST PUSH1 0x0 DUP1 PUSH1 0x0 PUSH1 0x60 DUP5 DUP7 SUB SLT ISZERO PUSH2 0xE79 JUMPI PUSH2 0xE78 PUSH2 0xB72 JUMP JUMPDEST JUMPDEST PUSH1 0x0 DUP5 ADD CALLDATALOAD PUSH8 0xFFFFFFFFFFFFFFFF DUP2 GT ISZERO PUSH2 0xE97 JUMPI PUSH2 0xE96 PUSH2 0xB77 JUMP JUMPDEST JUMPDEST PUSH2 0xEA3 DUP7 DUP3 DUP8 ADD PUSH2 0xE06 JUMP JUMPDEST SWAP4 POP POP PUSH1 0x20 PUSH2 0xEB4 DUP7 DUP3 DUP8 ADD PUSH2 0xE4B JUMP JUMPDEST SWAP3 POP POP PUSH1 0x40 PUSH2 0xEC5 DUP7 DUP3 DUP8 ADD PUSH2 0xBC5 JUMP JUMPDEST SWAP2 POP POP SWAP3 POP SWAP3 POP SWAP3 JUMP JUMPDEST PUSH1 0x0 PUSH1 0x20 DUP3 DUP5 SUB SLT ISZERO PUSH2 0xEE5 JUMPI PUSH2 0xEE4 PUSH2 0xB72 JUMP JUMPDEST JUMPDEST PUSH1 0x0 PUSH2 0xEF3 DUP5 DUP3 DUP6 ADD PUSH2 0xE4B JUMP JUMPDEST SWAP2 POP POP SWAP3 SWAP2 POP POP JUMP JUMPDEST PUSH1 0x0 DUP2 MLOAD SWAP1 POP SWAP2 SWAP1 POP JUMP JUMPDEST PUSH1 0x0 DUP3 DUP3 MSTORE PUSH1 0x20 DUP3 ADD SWAP1 POP SWAP3 SWAP2 POP POP JUMP JUMPDEST PUSH1 0x0 JUMPDEST DUP4 DUP2 LT ISZERO PUSH2 0xF36 JUMPI DUP1 DUP3 ADD MLOAD DUP2 DUP5 ADD MSTORE PUSH1 0x20 DUP2 ADD SWAP1 POP PUSH2 0xF1B JUMP JUMPDEST DUP4 DUP2 GT ISZERO PUSH2 0xF45 JUMPI PUSH1 0x0 DUP5 DUP5 ADD MSTORE JUMPDEST POP POP POP POP JUMP JUMPDEST PUSH1 0x0 PUSH2 0xF56 DUP3 PUSH2 0xEFC JUMP JUMPDEST PUSH2 0xF60 DUP2 DUP6 PUSH2 0xF07 JUMP JUMPDEST SWAP4 POP PUSH2 0xF70 DUP2 DUP6 PUSH1 0x20 DUP7 ADD PUSH2 0xF18 JUMP JUMPDEST PUSH2 0xF79 DUP2 PUSH2 0xCF8 JUMP JUMPDEST DUP5 ADD SWAP2 POP POP SWAP3 SWAP2 POP POP JUMP JUMPDEST PUSH1 0x0 PUSH1 0xA0 DUP3 ADD SWAP1 POP DUP2 DUP2 SUB PUSH1 0x0 DUP4 ADD MSTORE PUSH2 0xF9E DUP2 DUP9 PUSH2 0xF4B JUMP JUMPDEST SWAP1 POP PUSH2 0xFAD PUSH1 0x20 DUP4 ADD DUP8 PUSH2 0xC47 JUMP JUMPDEST PUSH2 0xFBA PUSH1 0x40 DUP4 ADD DUP7 PUSH2 0xC71 JUMP JUMPDEST PUSH2 0xFC7 PUSH1 0x60 DUP4 ADD DUP6 PUSH2 0xC13 JUMP JUMPDEST PUSH2 0xFD4 PUSH1 0x80 DUP4 ADD DUP5 PUSH2 0xC47 JUMP JUMPDEST SWAP7 SWAP6 POP POP POP POP POP POP JUMP JUMPDEST PUSH32 0x4F6E6C79206D616E616765722063616E2063616C6C2074686973206F7074696F PUSH1 0x0 DUP3 ADD MSTORE PUSH32 0x6E00000000000000000000000000000000000000000000000000000000000000 PUSH1 0x20 DUP3 ADD MSTORE POP JUMP JUMPDEST PUSH1 0x0 PUSH2 0x103A PUSH1 0x21 DUP4 PUSH2 0xF07 JUMP JUMPDEST SWAP2 POP PUSH2 0x1045 DUP3 PUSH2 0xFDE JUMP JUMPDEST PUSH1 0x40 DUP3 ADD SWAP1 POP SWAP2 SWAP1 POP JUMP JUMPDEST PUSH1 0x0 PUSH1 0x20 DUP3 ADD SWAP1 POP DUP2 DUP2 SUB PUSH1 0x0 DUP4 ADD MSTORE PUSH2 0x1069 DUP2 PUSH2 0x102D JUMP JUMPDEST SWAP1 POP SWAP2 SWAP1 POP JUMP JUMPDEST PUSH32 0x4E487B7100000000000000000000000000000000000000000000000000000000 PUSH1 0x0 MSTORE PUSH1 0x32 PUSH1 0x4 MSTORE PUSH1 0x24 PUSH1 0x0 REVERT JUMPDEST PUSH32 0x526571756573742068617320616C7265616479206265656E2066696E616C6973 PUSH1 0x0 DUP3 ADD MSTORE PUSH32 0x6564000000000000000000000000000000000000000000000000000000000000 PUSH1 0x20 DUP3 ADD MSTORE POP JUMP JUMPDEST PUSH1 0x0 PUSH2 0x10FB PUSH1 0x22 DUP4 PUSH2 0xF07 JUMP JUMPDEST SWAP2 POP PUSH2 0x1106 DUP3 PUSH2 0x109F JUMP JUMPDEST PUSH1 0x40 DUP3 ADD SWAP1 POP SWAP2 SWAP1 POP JUMP JUMPDEST PUSH1 0x0 PUSH1 0x20 DUP3 ADD SWAP1 POP DUP2 DUP2 SUB PUSH1 0x0 DUP4 ADD MSTORE PUSH2 0x112A DUP2 PUSH2 0x10EE JUMP JUMPDEST SWAP1 POP SWAP2 SWAP1 POP JUMP JUMPDEST PUSH32 0x4E487B7100000000000000000000000000000000000000000000000000000000 PUSH1 0x0 MSTORE PUSH1 0x12 PUSH1 0x4 MSTORE PUSH1 0x24 PUSH1 0x0 REVERT JUMPDEST PUSH32 0x4E487B7100000000000000000000000000000000000000000000000000000000 PUSH1 0x0 MSTORE PUSH1 0x11 PUSH1 0x4 MSTORE PUSH1 0x24 PUSH1 0x0 REVERT JUMPDEST PUSH1 0x0 PUSH2 0x119A DUP3 PUSH2 0xC3D JUMP JUMPDEST SWAP2 POP PUSH2 0x11A5 DUP4 PUSH2 0xC3D JUMP JUMPDEST SWAP3 POP DUP3 PUSH2 0x11B5 JUMPI PUSH2 0x11B4 PUSH2 0x1131 JUMP JUMPDEST JUMPDEST DUP3 DUP3 DIV SWAP1 POP SWAP3 SWAP2 POP POP JUMP JUMPDEST PUSH32 0x5265717565737420686173206E6F74206D6574206E756D62657273206F662061 PUSH1 0x0 DUP3 ADD MSTORE PUSH32 0x7070726F76657273000000000000000000000000000000000000000000000000 PUSH1 0x20 DUP3 ADD MSTORE POP JUMP JUMPDEST PUSH1 0x0 PUSH2 0x121C PUSH1 0x28 DUP4 PUSH2 0xF07 JUMP JUMPDEST SWAP2 POP PUSH2 0x1227 DUP3 PUSH2 0x11C0 JUMP JUMPDEST PUSH1 0x40 DUP3 ADD SWAP1 POP SWAP2 SWAP1 POP JUMP JUMPDEST PUSH1 0x0 PUSH1 0x20 DUP3 ADD SWAP1 POP DUP2 DUP2 SUB PUSH1 0x0 DUP4 ADD MSTORE PUSH2 0x124B DUP2 PUSH2 0x120F JUMP JUMPDEST SWAP1 POP SWAP2 SWAP1 POP JUMP JUMPDEST PUSH32 0x436F6E747269627574696F6E20616D6F756E742073686F756C64206265206772 PUSH1 0x0 DUP3 ADD MSTORE PUSH32 0x6561746572207468616E206D696E696D756D20616D6F756E7400000000000000 PUSH1 0x20 DUP3 ADD MSTORE POP JUMP JUMPDEST PUSH1 0x0 PUSH2 0x12AE PUSH1 0x39 DUP4 PUSH2 0xF07 JUMP JUMPDEST SWAP2 POP PUSH2 0x12B9 DUP3 PUSH2 0x1252 JUMP JUMPDEST PUSH1 0x40 DUP3 ADD SWAP1 POP SWAP2 SWAP1 POP JUMP JUMPDEST PUSH1 0x0 PUSH1 0x20 DUP3 ADD SWAP1 POP DUP2 DUP2 SUB PUSH1 0x0 DUP4 ADD MSTORE PUSH2 0x12DD DUP2 PUSH2 0x12A1 JUMP JUMPDEST SWAP1 POP SWAP2 SWAP1 POP JUMP JUMPDEST PUSH1 0x0 PUSH2 0x12EF DUP3 PUSH2 0xC3D JUMP JUMPDEST SWAP2 POP PUSH32 0xFFFFFFFFFFFFFFFFFFFFFFFFFFFFFFFFFFFFFFFFFFFFFFFFFFFFFFFFFFFFFFFF DUP3 EQ ISZERO PUSH2 0x1322 JUMPI PUSH2 0x1321 PUSH2 0x1160 JUMP JUMPDEST JUMPDEST PUSH1 0x1 DUP3 ADD SWAP1 POP SWAP2 SWAP1 POP JUMP JUMPDEST PUSH32 0x596F7520617265206E6F74206120636F6E747269627574657200000000000000 PUSH1 0x0 DUP3 ADD MSTORE POP JUMP JUMPDEST PUSH1 0x0 PUSH2 0x1363 PUSH1 0x19 DUP4 PUSH2 0xF07 JUMP JUMPDEST SWAP2 POP PUSH2 0x136E DUP3 PUSH2 0x132D JUMP JUMPDEST PUSH1 0x20 DUP3 ADD SWAP1 POP SWAP2 SWAP1 POP JUMP JUMPDEST PUSH1 0x0 PUSH1 0x20 DUP3 ADD SWAP1 POP DUP2 DUP2 SUB PUSH1 0x0 DUP4 ADD MSTORE PUSH2 0x1392 DUP2 PUSH2 0x1356 JUMP JUMPDEST SWAP1 POP SWAP2 SWAP1 POP JUMP JUMPDEST PUSH32 0x596F75206861766520616C726561647920617070726F76656420746869732072 PUSH1 0x0 DUP3 ADD MSTORE PUSH32 0x6571756573740000000000000000000000000000000000000000000000000000 PUSH1 0x20 DUP3 ADD MSTORE POP JUMP JUMPDEST PUSH1 0x0 PUSH2 0x13F5 PUSH1 0x26 DUP4 PUSH2 0xF07 JUMP JUMPDEST SWAP2 POP PUSH2 0x1400 DUP3 PUSH2 0x1399 JUMP JUMPDEST PUSH1 0x40 DUP3 ADD SWAP1 POP SWAP2 SWAP1 POP JUMP JUMPDEST PUSH1 0x0 PUSH1 0x20 DUP3 ADD SWAP1 POP DUP2 DUP2 SUB PUSH1 0x0 DUP4 ADD MSTORE PUSH2 0x1424 DUP2 PUSH2 0x13E8 JUMP JUMPDEST SWAP1 POP SWAP2 SWAP1 POP JUMP JUMPDEST PUSH32 0x4E487B7100000000000000000000000000000000000000000000000000000000 PUSH1 0x0 MSTORE PUSH1 0x22 PUSH1 0x4 MSTORE PUSH1 0x24 PUSH1 0x0 REVERT JUMPDEST PUSH1 0x0 PUSH1 0x2 DUP3 DIV SWAP1 POP PUSH1 0x1 DUP3 AND DUP1 PUSH2 0x1472 JUMPI PUSH1 0x7F DUP3 AND SWAP2 POP JUMPDEST PUSH1 0x20 DUP3 LT DUP2 EQ ISZERO PUSH2 0x1486 JUMPI PUSH2 0x1485 PUSH2 0x142B JUMP JUMPDEST JUMPDEST POP SWAP2 SWAP1 POP JUMP INVALID LOG2 PUSH5 0x6970667358 0x22 SLT KECCAK256 0xD 0xD3 0xC9 KECCAK256 0x27 0xAA 0xF7 PUSH9 0xB8F5E2B0B5E1B35FDA 0xB5 ADDMOD LOG2 0xB9 PUSH26 0x91630645AC6E77010EC864736F6C63430008090033A264697066 PUSH20 0x58221220DDF14EE222A811F5AECA4319DBC41961 0x2B CALLER MSTORE 0xC0 0x4A PUSH27 0x665733128C2E5CAAC3FF64736F6C63430008090033000000000000 "
    },
    "gasEstimates": {
      "creation": {
        "codeDepositCost": "1727800",
        "executionCost": "1813",
        "totalCost": "1729613"
      },
      "external": {
        "createCampaign(string,uint256)": "infinite",
        "deployedContract(uint256)": "4934",
        "deployedContractName(uint256)": "infinite",
        "getDeployedContract()": "infinite"
      }
    },
    "methodIdentifiers": {
      "createCampaign(string,uint256)": "f102a67c",
      "deployedContract(uint256)": "1e285caa",
      "deployedContractName(uint256)": "30d91045",
      "getDeployedContract()": "a97c4796"
    }
  },
  "storageLayout": {
    "storage": [
      {
        "astId": 4,
        "contract": "Campaign.sol:Factory",
        "label": "deployedContract",
        "offset": 0,
        "slot": "0",
        "type": "t_array(t_address)dyn_storage"
      },
      {
        "astId": 7,
        "contract": "Campaign.sol:Factory",
        "label": "deployedContractName",
        "offset": 0,
        "slot": "1",
        "type": "t_array(t_string_storage)dyn_storage"
      }
    ],
    "types": {
      "t_address": {
        "encoding": "inplace",
        "label": "address",
        "numberOfBytes": "20"
      },
      "t_array(t_address)dyn_storage": {
        "base": "t_address",
        "encoding": "dynamic_array",
        "label": "address[]",
        "numberOfBytes": "32"
      },
      "t_array(t_string_storage)dyn_storage": {
        "base": "t_string_storage",
        "encoding": "dynamic_array",
        "label": "string[]",
        "numberOfBytes": "32"
      },
      "t_string_storage": {
        "encoding": "bytes",
        "label": "string",
        "numberOfBytes": "32"
      }
    }
  },
  "userdoc": {
    "kind": "user",
    "methods": {},
    "version": 1
  }
}